:100000000C942A000C9447000C9447000C94470071
:100010000C9447000C9447000C9447000C94470044
:100020000C9447000C9447000C9447000C94470034
:100030000C9447000C9447000C9447000C94470024
:100040000C9447000C9447000C9447000C94470014
:100050000C94470011241FBECFE5D8E0DEBFCDBF12
:1000600010E0A0E6B0E0E4E4F1E102C005900D92FA
:10007000A43CB107D9F711E0A4ECB0E001C01D9297
:10008000AE32B107E1F70E9497080C94A0080C94D7
:100090000000DF93CF930F92CDB7DEB78983AAE23A
:1000A000B0E0EAE2F0E0808180618C93AAE2B0E007
:1000B000EAE2F0E0808188608C93ABE2B0E0EBE2B2
:1000C000F0E080818D7F8C93AAE2B0E0EAE2F0E07C
:1000D00080818B7F8C93A0E4B0E0E0E4F0E080814D
:1000E00086688C93E9E2F0E083E3808380E00F9000
:1000F000CF91DF910895DF93CF9300D0CDB7DEB7D6
:1001000089836A83ECE2F0E08A818083EBE2F0E0AD
:100110008081829586958770882F90E0817090709D
:100120000097A1F380E00F900F90CF91DF91089599
:10013000DF93CF9300D000D0CDB7DEB78A837C8326
:100140006B8319821BC0ACE2B0E08981282F30E0BC
:100150008B819C81FC01E20FF31F80818C93EBE289
:10016000F0E08081829586958770882F90E081707D
:1001700090700097A1F389818F5F89838981282FEF
:1001800030E08B819C81FC01E20FF31F808188238A
:10019000D1F680E00F900F900F900F90CF91DF91EC
:1001A0000895DF93CF9300D00F92CDB7DEB7898348
:1001B0007B836A83EBE2F0E080818823DCF7ECE26A
:1001C000F0E08081EA81FB81808380E00F900F90D6
:1001D0000F90CF91DF910895DF93CF9300D000D09F
:1001E000CDB7DEB78A837C836B831982EBE2F0E0C4
:1001F00080818823DCF78981282F30E08B819C81E6
:10020000DC01A20FB31FECE2F0E080818C938981C6
:10021000282F30E08B819C81FC01E20FF31F90813D
:1002200080E0692F0E947B0089818F5F8983ECE2E7
:10023000F0E080818D30A1F48981882F90E09C01CD
:10024000215030408B819C81FC01E20FF31F108212
:1002500080E00F900F900F900F90CF91DF91089555
:10026000ECE2F0E08081883039F48981823020F03E
:10027000898182508983BACFECE2F0E080818830B6
:1002800009F0B4CF8981823008F0B0CF1982AECFA7
:10029000DF93CF9300D000D0CDB7DEB789836A83D8
:1002A0008981882F90E0009751F58A81282F30E0CE
:1002B0003C832B838B819C818130910589F02B813C
:1002C0003C8122303105A1F08B819C810097B9F4EB
:1002D000AAE2B0E0EAE2F0E0808180688C930FC08F
:1002E000AAE2B0E0EAE2F0E0808180648C9307C08B
:1002F000AAE2B0E0EAE2F0E0808180628C9380E0E4
:100300000F900F900F900F90CF91DF910895DF9392
:10031000CF9300D000D0CDB7DEB789836A838981BF
:10032000882F90E0009751F58A81282F30E03C8398
:100330002B838B819C818130910589F02B813C81BD
:1003400022303105A1F08B819C810097B9F4AAE29B
:10035000B0E0EAE2F0E080818F778C930FC0AAE2F0
:10036000B0E0EAE2F0E080818F7B8C9307C0AAE2E4
:10037000B0E0EAE2F0E080818F7D8C9380E00F9026
:100380000F900F900F90CF91DF910895DF93CF934F
:1003900000D000D00F92CDB7DEB789836A83898100
:1003A0008430A0F58981282F30E03D832C838C8117
:1003B0009D8181309105D1F02C813D812230310524
:1003C0002CF48C819D81009761F01EC02C813D81B1
:1003D0002230310581F08C819D818330910581F03F
:1003E00013C0EAE3F0E08A8180830EC0E7E3F0E027
:1003F0008A81808309C0E4E3F0E08A81808304C0BD
:10040000E1E3F0E08A8180831B8202C091E09B835C
:100410008B810F900F900F900F900F90CF91DF91E5
:100420000895DF93CF93CDB7DEB728970FB6F89432
:10043000DEBF0FBECDBF89836A834B838981843041
:1004400008F0F4C08A81883008F0F0C08B818130D8
:1004500009F070C08981282F30E038872F838F8181
:1004600098858130910549F12F81388522303105F9
:100470002CF48F819885009761F05AC02F813885C0
:100480002230310571F18F81988583309105E9F132
:100490004FC0AAE3B0E0EAE3F0E08081482F8A8110
:1004A000282F30E081E090E0022E02C0880F991FD3
:1004B0000A94E2F7842B8C933BC0A7E3B0E0E7E318
:1004C000F0E08081482F8A81282F30E081E090E0A1
:1004D000022E02C0880F991F0A94E2F7842B8C9396
:1004E00027C0A4E3B0E0E4E3F0E08081482F8A81F4
:1004F000282F30E081E090E0022E02C0880F991F83
:100500000A94E2F7842B8C9313C0A1E3B0E0E1E3FB
:10051000F0E08081482F8A81282F30E081E090E050
:10052000022E02C0880F991F0A94E2F7842B8C9345
:100530001E827EC08B81882309F075C08981282F97
:1005400030E03D832C838C819D818130910559F170
:100550002C813D81223031052CF48C819D810097C6
:1005600069F05FC02C813D812230310589F18C8199
:100570009D818330910509F440C053C0AAE3B0E0E7
:10058000EAE3F0E08081482F8A81282F30E081E083
:1005900090E0022E02C0880F991F0A94E2F780951E
:1005A00084238C933EC0A7E3B0E0E7E3F0E08081D2
:1005B000482F8A81282F30E081E090E0022E02C08F
:1005C000880F991F0A94E2F7809584238C9329C0A1
:1005D000A4E3B0E0E4E3F0E08081482F8A81282F93
:1005E00030E081E090E0022E02C0880F991F0A944B
:1005F000E2F7809584238C9314C0A1E3B0E0E1E39B
:10060000F0E08081482F8A81282F30E081E090E05F
:10061000022E02C0880F991F0A94E2F78095842366
:100620008C931E8205C092E09E8302C021E02E833F
:100630008E8128960FB6F894DEBF0FBECDBFCF9146
:10064000DF910895DF93CF9300D000D00F92CDB704
:10065000DEB789836A8389818430A0F58981282F58
:1006600030E03D832C838C819D8181309105D1F0D8
:100670002C813D81223031052CF48C819D810097A5
:1006800061F01EC02C813D812230310581F08C81CA
:100690009D818330910581F013C0EBE3F0E08A8106
:1006A00080830EC0E8E3F0E08A81808309C0E5E33F
:1006B000F0E08A81808304C0E2E3F0E08A818083F5
:1006C0001B8202C091E09B838B810F900F900F9053
:1006D0000F900F90CF91DF910895DF93CF93CDB717
:1006E000DEB728970FB6F894DEBF0FBECDBF898363
:1006F0006A834B838981843008F0F4C08A81883012
:1007000008F0F0C08B81813009F070C08981282FFA
:1007100030E038872F838F8198858130910549F1AA
:100720002F813885223031052CF48F8198850097F0
:1007300061F05AC02F8138852230310571F18F81E7
:10074000988583309105E9F14FC0ABE3B0E0EBE36E
:10075000F0E08081482F8A81282F30E081E090E00E
:10076000022E02C0880F991F0A94E2F7842B8C9303
:100770003BC0A8E3B0E0E8E3F0E08081482F8A8145
:10078000282F30E081E090E0022E02C0880F991FF0
:100790000A94E2F7842B8C9327C0A5E3B0E0E5E34D
:1007A000F0E08081482F8A81282F30E081E090E0BE
:1007B000022E02C0880F991F0A94E2F7842B8C93B3
:1007C00013C0A2E3B0E0E2E3F0E08081482F8A8129
:1007D000282F30E081E090E0022E02C0880F991FA0
:1007E0000A94E2F7842B8C931E827EC08B8188232F
:1007F00009F075C08981282F30E03D832C838C81DE
:100800009D818130910559F12C813D812230310546
:100810002CF48C819D81009769F05FC02C813D8113
:100820002230310589F18C819D818330910509F455
:1008300040C053C0ABE3B0E0EBE3F0E08081482F71
:100840008A81282F30E081E090E0022E02C0880FDC
:10085000991F0A94E2F7809584238C933EC0A8E305
:10086000B0E0E8E3F0E08081482F8A81282F30E073
:1008700081E090E0022E02C0880F991F0A94E2F7EF
:10088000809584238C9329C0A5E3B0E0E5E3F0E0F4
:100890008081482F8A81282F30E081E090E0022E6D
:1008A00002C0880F991F0A94E2F7809584238C93E5
:1008B00014C0A2E3B0E0E2E3F0E08081482F8A8137
:1008C000282F30E081E090E0022E02C0880F991FAF
:1008D0000A94E2F7809584238C931E8205C092E0EF
:1008E0009E8302C021E02E838E8128960FB6F89455
:1008F000DEBF0FBECDBFCF91DF910895DF93CF93C1
:1009000000D000D000D0CDB7DEB789837B836A8367
:1009100089818430E0F58981282F30E03E832D8362
:100920008D819E8181309105E1F02D813E812230C3
:1009300031052CF48D819E81009761F026C02D81B8
:100940003E8122303105A1F08D819E818330910559
:10095000B1F01BC0E9E3F0E08081EA81FB81808394
:1009600014C0E6E3F0E08081EA81FB8180830DC062
:10097000E3E3F0E08081EA81FB81808306C0E0E36D
:10098000F0E08081EA81FB8180831C8202C091E0DB
:100990009C838C8126960FB6F894DEBF0FBECDBF28
:1009A000CF91DF910895DF93CF93CDB7DEB727972F
:1009B0000FB6F894DEBF0FBECDBF89836A835C8318
:1009C0004B838981843008F076C08A81883008F0B2
:1009D00072C08981282F30E03F832E834E815F8152
:1009E0004130510559F18E819F818230910534F457
:1009F0002E813F812115310569F05BC04E815F81F9
:100A00004230510579F18E819F818330910509F43F
:100A10003DC04FC0E9E3F0E08081282F30E08A81BB
:100A2000882F90E0A90102C0559547958A95E2F775
:100A3000CA018170EB81FC8180833BC0E6E3F0E07A
:100A40008081282F30E08A81882F90E0A90102C0A0
:100A5000559547958A95E2F7CA018170EB81FC8133
:100A6000808327C0E3E3F0E08081282F30E08A8193
:100A7000882F90E0A90102C0559547958A95E2F725
:100A8000CA018170EB81FC81808313C0E0E3F0E058
:100A90008081282F30E08A81882F90E0A90102C050
:100AA000559547958A95E2F7CA018170EB81FC81E3
:100AB00080831D8202C051E05D838D8127960FB631
:100AC000F894DEBF0FBECDBFCF91DF910895DF93C5
:100AD000CF9300D000D00F92CDB7DEB789836A8361
:100AE0008981843008F074C08A81883008F070C031
:100AF0008981282F30E03D832C838C819D8181303A
:100B0000910549F12C813D81223031052CF48C81F5
:100B10009D81009761F05AC02C813D8122303105C2
:100B200071F18C819D8183309105E9F14FC0ABE378
:100B3000B0E0EBE3F0E08081482F8A81282F30E09D
:100B400081E090E0022E02C0880F991F0A94E2F71C
:100B500084278C933BC0A8E3B0E0E8E3F0E0808119
:100B6000482F8A81282F30E081E090E0022E02C0D9
:100B7000880F991F0A94E2F784278C9327C0A5E376
:100B8000B0E0E5E3F0E08081482F8A81282F30E053
:100B900081E090E0022E02C0880F991F0A94E2F7CC
:100BA00084278C9313C0A2E3B0E0E2E3F0E08081FD
:100BB000482F8A81282F30E081E090E0022E02C089
:100BC000880F991F0A94E2F784278C931B8202C036
:100BD00091E09B838B810F900F900F900F900F905F
:100BE000CF91DF910895DF93CF9300D000D00F9283
:100BF000CDB7DEB789836A838981843008F0D1C09C
:100C00008A81883008F0CDC08981282F30E03D836B
:100C10002C834C815D814130510509F442C08C81A7
:100C20009D818230910534F42C813D81211531055F
:100C300071F0B5C04C815D814230510509F45BC053
:100C40008C819D818330910509F47FC0A8C0EAE3BF
:100C5000F0E08081282F30E08A81882F90E0A90180
:100C600002C0559547958A95E2F7CA018170907048
:100C70000097A1F4ABE3B0E0EBE3F0E08081482F14
:100C80008A81282F30E081E090E0022E02C0880F98
:100C9000991F0A94E2F7842B8C9381C053E05B8305
:100CA00082C0E7E3F0E08081282F30E08A81882F3E
:100CB00090E0A90102C0559547958A95E2F7CA01CF
:100CC000817090700097A1F4A8E3B0E0E8E3F0E051
:100CD0008081482F8A81282F30E081E090E0022E29
:100CE00002C0880F991F0A94E2F7842B8C9357C097
:100CF00053E05B8358C0E4E3F0E08081282F30E0CC
:100D00008A81882F90E0A90102C0559547958A9560
:100D1000E2F7CA01817090700097A1F4A5E3B0E0FA
:100D2000E5E3F0E08081482F8A81282F30E081E0E0
:100D300090E0022E02C0880F991F0A94E2F7842BDC
:100D40008C932DC053E05B832EC0E1E3F0E0808103
:100D5000282F30E08A81882F90E0A90102C05595A4
:100D600047958A95E2F7CA01817090700097A1F4C7
:100D7000A2E3B0E0E2E3F0E08081482F8A81282FEF
:100D800030E081E090E0022E02C0880F991F0A94A3
:100D9000E2F7842B8C9303C053E05B8304C01B8277
:100DA00002C081E08B838B810F900F900F900F908A
:100DB0000F90CF91DF910895DF93CF93CDB7DEB73A
:100DC00080E060E041E00E94110280E061E041E0EB
:100DD0000E94110280E062E041E00E94110280E086
:100DE000CF91DF910895DF93CF9300D00F92CDB7CD
:100DF000DEB789838981282F30E03B832A838A816B
:100E00009B818230910581F02A813B81233031051D
:100E100089F08A819B818130910589F480E060E0CE
:100E200041E00E946D030BC080E061E041E00E9460
:100E30006D0305C080E062E041E00E946D0380E048
:100E40000F900F900F90CF91DF910895DF93CF9384
:100E500000D00F92CDB7DEB789838981282F30E08B
:100E60003B832A838A819B818230910581F02A818C
:100E70003B812330310589F08A819B818130910546
:100E800089F480E060E040E00E946D030BC080E0E8
:100E900061E040E00E946D0305C080E062E040E058
:100EA0000E946D0380E00F900F900F90CF91DF9123
:100EB0000895DF93CF9300D00F92CDB7DEB789832B
:100EC0008981282F30E03B832A838A819B8182306D
:100ED000910579F02A813B812330310579F08A81AF
:100EE0009B818130910571F480E060E00E9467058C
:100EF00009C080E061E00E94670504C080E062E014
:100F00000E94670580E00F900F900F90CF91DF91C6
:100F10000895DF93CF9300D000D00F92CDB7DEB706
:100F200089837B836A838981282F30E03D832C83EA
:100F30008C819D818230910591F02C813D812330FF
:100F40003105A9F08C819D8181309105B9F42A8108
:100F50003B8180E060E0A9010E94D3040FC02A8198
:100F60003B8180E061E0A9010E94D30407C02A818F
:100F70003B8180E062E0A9010E94D30480E00F90F1
:100F80000F900F900F900F90CF91DF910895DF9306
:100F9000CF9300D000D000D0CDB7DEB79B838A833B
:100FA0007D836C83198219C08981282F30E08A8162
:100FB0009B81FC01E20FF31F40818981282F30E0E3
:100FC0008C819D81FC01E20FF31F8081481711F095
:100FD0001E821BC089818F5F89838981282F30E021
:100FE0008A819B81FC01E20FF31F80818823E1F657
:100FF0008981282F30E08C819D81FC01E20FF31F55
:101000008081882389F681E08E838E8126960FB6B3
:10101000F894DEBF0FBECDBFCF91DF910895DF936F
:10102000CF930F92CDB7DEB70E94DC06898380E0B4
:101030000E94490080E00F90CF91DF910895DF93E7
:10104000CF93CDB7DEB72AEC30E080E0B9010E9443
:10105000EC0080E690E02AEC30E0B9010E94C7077E
:10106000813081F426E630E080E0B9010E949800EA
:1010700081E00E94F30682E00E94260783E00E943E
:10108000260751C087E790E02AEC30E0B9010E94C2
:10109000C707813081F42CE730E080E0B9010E947D
:1010A000980081E00E94260782E00E94F30683E018
:1010B0000E94260738C08EE890E02AEC30E0B901A3
:1010C0000E94C707813081F423E930E080E0B90154
:1010D0000E94980081E00E94260782E00E94260775
:1010E00083E00E94F3061FC082EB90E02AEC30E020
:1010F000B9010E94C707813039F425EB30E080E068
:10110000B9010E9498000FC022EA30E080E0B901E6
:101110000E94980081E00E94260782E00E94260734
:1011200083E00E94260780E0CF91DF910895DF934E
:10113000CF93CDB7DEB70E940F080E941F08FDCFE6
:04114000F894FFCF51
:101144005354415254004C454420475245454E2087
:101154004953204F4E0D0057414954004C454420FB
:1011640059454C4C4F57204953204F4E0D00535472
:101174004F50004C454420524544204953204F4E83
:101184000D004E4F54205245434F474E495A454453
:101194000D0041540053595354454D204953204F99
:0411A4004B0D0000EF
:00000001FF
