:100000000C942A000C940D080C941D080C943C00D0
:100010000C943C000C943C000C943C000C943C0070
:100020000C943C000C943C000C943C000C943C0060
:100030000C946E060C943C000C943C000C943C0018
:100040000C943C000C943C000C943C000C94340543
:100050000C943C0011241FBECFE5D4E0DEBFCDBF21
:1000600010E0A0E6B0E001C01D92A237B107E1F7B1
:100070000E94610E0C946A0E0C940000DF93CF93E3
:1000800000D0CDB7DEB78A8319828A81882319F020
:100090008CEF898335C080916600813019F48FEF31
:1000A00089832EC080916600882351F5AAE2B0E0D2
:1000B000EAE2F0E0808180618C93AAE2B0E0EAE2BB
:1000C000F0E0808188608C93ABE2B0E0EBE2F0E09E
:1000D00080818D7F8C93AAE2B0E0EAE2F0E080813B
:1000E0008B7F8C93A0E4B0E0E0E4F0E08081866850
:1000F0008C93E9E2F0E083E3808381E08093660003
:1001000089810F900F90CF91DF910895DF93CF9366
:1001100000D00F92CDB7DEB78A836B8319828A81B4
:10012000882319F08CEF89831BC080916600882397
:1001300019F48EEF898314C080916600813081F4B8
:10014000ECE2F0E08B818083EBE2F0E0808182954D
:1001500086958770882F90E0817090700097A1F34A
:1001600089810F900F900F90CF91DF910895DF93C9
:10017000CF9300D000D00F92CDB7DEB78B837D83B5
:100180006C831A828C819D81009719F48DEF8A838C
:1001900039C08B81882319F08CEF8A8333C080911A
:1001A0006600882319F48EEF8A832CC08091660044
:1001B000813041F519821BC0ACE2B0E08981282F63
:1001C00030E08C819D81FC01E20FF31F80818C93D4
:1001D000EBE2F0E08081829586958770882F90E031
:1001E000817090700097A1F389818F5F89838981E5
:1001F000282F30E08C819D81FC01E20FF31F80816C
:100200008823D1F68A810F900F900F900F900F9056
:10021000CF91DF910895DF93CF9300D000D0CDB779
:10022000DEB78A837C836B8319828B819C810097E4
:1002300019F48DEF89831CC08A81882319F08CEF13
:10024000898316C080916600882319F48EEF898314
:100250000FC080916600813059F4EBE2F0E08081BC
:100260008823DCF7ECE2F0E08081EB81FC81808385
:1002700089810F900F900F900F90CF91DF9108958B
:10028000DF93CF9300D000D00F92CDB7DEB78B8332
:100290007D836C831A828C819D81009719F48DEF88
:1002A0008A835EC08B81882319F08CEF8A8358C0C3
:1002B00080916600882319F48EEF8A8351C0809163
:1002C0006600813009F04CC01982EBE2F0E08081D9
:1002D0008823DCF78981282F30E08C819D81DC0127
:1002E000A20FB31FECE2F0E080818C938981282F6C
:1002F00030E08C819D81FC01E20FF31F908180E052
:10030000692F0E94860089818F5F8983ECE2F0E08B
:1003100080818D3069F48981882F90E09C01215083
:1003200030408C819D81FC01E20FF31F108218C0C8
:10033000ECE2F0E08081883039F48981823020F06D
:10034000898182508983C1CFECE2F0E080818830DE
:1003500009F0BBCF8981823008F0B7CF1982B5CFC1
:100360008A810F900F900F900F900F90CF91DF9197
:100370000895DF93CF9300D000D00F92CDB7DEB7B2
:100380008A836B83198280916600882319F48EEF2B
:10039000898339C0809166008130A9F58A81882FD0
:1003A00090E0009771F58B81282F30E03D832C83FE
:1003B0008C819D818130910589F02C813D81223095
:1003C0003105A1F08C819D810097C1F4AAE2B0E0D3
:1003D000EAE2F0E0808180688C9315C0AAE2B0E088
:1003E000EAE2F0E0808180648C930DC0AAE2B0E084
:1003F000EAE2F0E0808180628C9305C08BEF898314
:1004000002C08CEF898389810F900F900F900F901D
:100410000F90CF91DF910895DF93CF9300D000D05C
:100420000F92CDB7DEB78A836B8319828091660005
:10043000882319F48EEF898339C08091660081305A
:10044000A9F58A81882F90E0009771F58B81282F7C
:1004500030E03D832C838C819D818130910589F032
:100460002C813D8122303105A1F08C819D81009746
:10047000C1F4AAE2B0E0EAE2F0E080818F778C93E9
:1004800015C0AAE2B0E0EAE2F0E080818F7B8C93B5
:100490000DC0AAE2B0E0EAE2F0E080818F7D8C93AB
:1004A00005C08BEF898302C08CEF898389810F900F
:1004B0000F900F900F900F90CF91DF910895DF93E1
:1004C000CF93CDB7DEB727970FB6F894DEBF0FBE38
:1004D000CDBF8A836B835D834C8319828C819D8120
:1004E000009719F48DEF89833DC0809166008823C1
:1004F00019F48EEF898336C080916600813091F5C2
:100500008A81882F90E0009759F58B81282F30E061
:100510003F832E838E819F818130910581F02E81D2
:100520003F812230310591F08E819F810097A9F49F
:100530008C819D81909361008093600013C08C81B9
:100540009D8190936500809364000CC08C819D8197
:10055000909363008093620005C08BEF898302C093
:100560008CEF8983898127960FB6F894DEBF0FBE82
:10057000CDBFCF91DF910895DF93CF93CDB7DEB795
:10058000E2E2F0E080E38083CF91DF910895DF9392
:10059000CF9300D0CDB7DEB78A8319828A818230AB
:1005A00018F08CEF898329C080916900813019F49B
:1005B0008FEF898322C0809169008823F1F40E9423
:1005C000BC02E0E2F0E08EE18083A1E2B0E0E1E293
:1005D000F0E080818C7F8C93A6E5B0E0E6E5F0E06A
:1005E000808180648C93A6E5B0E0E6E5F0E0808150
:1005F00084608C9381E08093690089810F900F90D3
:10060000CF91DF910895DF93CF9300D0CDB7DEB7C0
:100610008A8319828A81823018F08CEF898317C00F
:1006200080916900882319F48EEF898310C080912E
:100630006900813061F4E6E5F0E084EA8083E6E574
:10064000F0E08081881F8827881F8130C1F7898169
:100650000F900F90CF91DF910895DF93CF9300D04B
:10066000CDB7DEB78A8319828A81823018F08CEF89
:1006700089830FC080916900882319F48EEF8983E4
:1006800008C080916900813021F4E6E5F0E084E95A
:10069000808389810F900F90CF91DF910895DF9330
:1006A000CF9300D00F92CDB7DEB78A836B831982C8
:1006B0008A81823018F08CEF898319C0809169009B
:1006C000882319F48EEF898312C0809169008130EC
:1006D00071F4E3E2F0E08B81880F8083E6E5F0E0DF
:1006E00084E88083E6E5F0E080818823DCF7898177
:1006F0000F900F900F90CF91DF910895DF93CF93DC
:1007000000D00F92CDB7DEB78A836B8319828A81BE
:10071000823018F08CEF89831DC080916900882396
:1007200019F48EEF898316C080916900813091F4AD
:10073000E3E2F0E08B81882F90E0880F991F8160C1
:100740008083E6E5F0E084E88083E6E5F0E0808100
:100750008823DCF789810F900F900F90CF91DF9164
:100760000895DF93CF9300D00F92CDB7DEB78A8381
:100770006B8319828A81823018F08CEF898318C0CC
:1007800080916900882319F48EEF898311C08091CC
:100790006900813069F4E3E2F0E08B818083E6E573
:1007A000F0E084E88083E6E5F0E080818823DCF7F0
:1007B00089810F900F900F90CF91DF910895DF9373
:1007C000CF9300D000D0CDB7DEB78A836B834C8344
:1007D00019828A81823018F08CEF898319C0809148
:1007E0006900882319F48EEF898312C08091690013
:1007F000813071F48A810E9403038A816B810E9497
:100800004F038A816C810E94B1038A810E942D036B
:1008100089810F900F900F900F90CF91DF910895E5
:10082000DF93CF9300D000D0CDB7DEB78A837C832F
:100830006B8319828B819C81009719F48DEF8983DA
:1008400023C08A81823018F08CEF89831DC080918B
:100850006900882319F48EEF898316C0809169009E
:10086000813091F4A6E5B0E0E6E5F0E080818C60AF
:100870008C93E6E5F0E080818823DCF7E3E2F0E0AA
:100880008081EB81FC81808389810F900F900F9094
:100890000F90CF91DF910895DF93CF9300D000D0D8
:1008A0000F92CDB7DEB78A836B835D834C83198249
:1008B0008C819D81009719F48DEF898321C08A81F5
:1008C000823018F08CEF89831BC0809169008823E7
:1008D00019F48EEF898314C080916900813081F40E
:1008E0008A810E9403038A816B810E947E032C818E
:1008F0003D818A81B9010E9410048A810E942D03E2
:1009000089810F900F900F900F900F90CF91DF91F2
:100910000895DF93CF9300D0CDB7DEB78A831982D5
:100920008A81823018F08CEF898312C0809169002F
:10093000882319F48EEF89830BC080916900813080
:1009400039F4A6E5B0E0E6E5F0E0808181608C93C3
:1009500089810F900F90CF91DF910895DF93CF930E
:1009600000D0CDB7DEB78A8319828A81823018F031
:100970008CEF898312C080916900882319F48EEF6F
:1009800089830BC080916900813039F4A6E5B0E01D
:10099000E6E5F0E080818E7F8C9389810F900F9047
:1009A000CF91DF910895DF93CF9300D000D0CDB7E2
:1009B000DEB78A837C836B8319828B819C8100974D
:1009C00019F48DEF898318C08A81823018F08CEF7A
:1009D000898312C080916900882319F48EEF89837E
:1009E0000BC080916900813039F4E3E2F0E080814E
:1009F0008170EB81FC81808389810F900F900F9033
:100A00000F90CF91DF910895DF93CF9300D000D066
:100A1000CDB7DEB78A837C836B8319828B819C81FF
:100A2000009719F48DEF898317C08A81823018F0FE
:100A30008CEF898311C080916900882319F48EEFAF
:100A400089830AC080916900813031F48B819C8157
:100A5000909368008093670089810F900F900F90AA
:100A60000F90CF91DF9108951F920F920FB60F92C2
:100A700011242F933F934F935F936F937F938F93A3
:100A80009F93AF93BF93EF93FF93DF93CF93CDB734
:100A9000DEB7E0916700F09168000995CF91DF9192
:100AA000FF91EF91BF91AF919F918F917F916F9146
:100AB0005F914F913F912F910F900FBE0F901F901C
:100AC0001895DF93CF930F92CDB7DEB78983ADE250
:100AD000B0E0EDE2F0E080818F7E8C93ADE2B0E09B
:100AE000EDE2F0E0808180648C9381E066E041E09B
:100AF0000E94780881E065E040E00E94780881E08B
:100B000067E040E00E94780881E064E040E00E94F5
:100B1000780880E00F90CF91DF910895DF93CF9315
:100B200000D00F92CDB7DEB789836A834B83EFE2A3
:100B3000F0E08A818083EEE2F0E080818823DCF7B8
:100B400080E00F900F900F90CF91DF910895DF9389
:100B5000CF9300D000D00F92CDB7DEB78A837C83CD
:100B60006B834D8319821FC08981282F30E08B81D0
:100B70009C81FC01E20FF31F80818823B9F0AFE272
:100B8000B0E08981282F30E08B819C81FC01E20F4D
:100B9000F31F80818C9389818F5F8983EEE2F0E07F
:100BA00080818823DCF789818F3FF1F280E00F900C
:100BB0000F900F900F900F90CF91DF910895DF93DA
:100BC000CF9300D000D0CDB7DEB789837B836A8313
:100BD0004C83EEE2F0E080818823DCF7EFE2F0E086
:100BE0008081EA81FB81808380E00F900F900F90DD
:100BF0000F90CF91DF910895DF93CF9300D000D075
:100C00000F92CDB7DEB78A837C836B834D831982C5
:100C1000EEE2F0E08081881F8827881F8130C1F7CD
:100C20008981282F30E08B819C81DC01A20FB31FCA
:100C3000EFE2F0E080818C938981282F30E08B8176
:100C40009C81FC01E20FF31F8081882321F08981C0
:100C50008F5F8983DDCF80E00F900F900F900F9012
:100C60000F90CF91DF910895DF93CF930F92CDB77F
:100C7000DEB78983ADE2B0E0EDE2F0E0808180682C
:100C80008C9380E00F90CF91DF910895DF93CF9305
:100C90000F92CDB7DEB78983ADE2B0E0EDE2F0E0D0
:100CA00080818F778C9380E00F90CF91DF910895B2
:100CB000DF93CF9300D00F92CDB7DEB789837B83CC
:100CC0006A838A819B81909371008093700080E099
:100CD0000F900F900F90CF91DF9108951F920F9278
:100CE0000FB60F9211242F933F934F935F936F93FF
:100CF0007F938F939F93AF93BF93EF93FF93DF9374
:100D0000CF93CDB7DEB7E0917000F09171000995F7
:100D1000CF91DF91FF91EF91BF91AF919F918F9113
:100D20007F916F915F914F913F912F910F900FBEE7
:100D30000F901F901895DF93CF93CDB7DEB7AFE537
:100D4000B0E0EFE5F0E0808180688C93CF91DF9197
:100D50000895DF93CF93CDB7DEB7AFE5B0E0EFE511
:100D6000F0E080818F778C93CF91DF910895DF93AE
:100D7000CF9300D00F92CDB7DEB7898389818330BE
:100D800050F58981282F30E03B832A838A819B811B
:100D90008130910589F02A813B8122303105A1F013
:100DA0008A819B810097B9F4ABE5B0E0EBE5F0E018
:100DB00080818F7B8C930FC0ABE5B0E0EBE5F0E07A
:100DC00080818F778C9307C0ABE5B0E0EBE5F0E076
:100DD00080818F7D8C930F900F900F90CF91DF913A
:100DE0000895DF93CF93CDB7DEB72A970FB6F89467
:100DF000DEBF0FBECDBF89836A838981833008F04F
:100E000003C18A81843008F0FFC08981282F30E037
:100E10003A87298789859A858130910509F46DC0C3
:100E200029853A852230310509F4C9C089859A851A
:100E3000009709F0E9C0ABE5B0E0EBE5F0E08081B8
:100E400080648C938A81282F30E038872F838F81AC
:100E500098858130910521F12F8138852230310527
:100E60002CF48F819885009761F0CEC02F81388552
:100E70002230310521F18F8198858330910571F100
:100E8000C3C0A5E5B0E0E5E5F0E080818E7F8C93FE
:100E9000A5E5B0E0E5E5F0E0808182608C93B4C028
:100EA000A5E5B0E0E5E5F0E0808181608C93A5E503
:100EB000B0E0E5E5F0E0808182608C93A5C0A5E517
:100EC000B0E0E5E5F0E080818E7F8C93A5E5B0E0B1
:100ED000E5E5F0E080818D7F8C9396C0A5E5B0E0DC
:100EE000E5E5F0E0808181608C93A5E5B0E0E5E583
:100EF000F0E080818D7F8C9387C0ABE5B0E0EBE5BF
:100F0000F0E0808180688C938A81282F30E03E83D6
:100F10002D838D819E818130910521F12D813E812E
:100F2000223031052CF48D819E81009761F06CC0D8
:100F30002D813E812230310521F18D819E818330CA
:100F4000910571F161C0A5E5B0E0E5E5F0E08081D3
:100F50008B7F8C93A5E5B0E0E5E5F0E080818860CB
:100F60008C9352C0A5E5B0E0E5E5F0E080818460B7
:100F70008C93A5E5B0E0E5E5F0E0808188608C9396
:100F800043C0A5E5B0E0E5E5F0E080818B7F8C9380
:100F9000A5E5B0E0E5E5F0E08081877F8C9334C083
:100FA000A5E5B0E0E5E5F0E0808184608C93A5E5FF
:100FB000B0E0E5E5F0E08081877F8C9325C0ABE56C
:100FC000B0E0EBE5F0E0808180628C938A81282F8D
:100FD00030E03C832B838B819C81009731F02B8107
:100FE0003C812130310549F00FC0A4E5B0E0E4E5D3
:100FF000F0E080818F7B8C9307C0A4E5B0E0E4E54E
:10100000F0E0808180648C932A960FB6F894DEBF5E
:101010000FBECDBFCF91DF9108951F920F920FB6F3
:101020000F921124DF93CF93CDB7DEB7CF91DF912D
:101030000F900FBE0F901F9018951F920F920FB632
:101040000F921124DF93CF93CDB7DEB7CF91DF910D
:101050000F900FBE0F901F901895DF93CF9300D085
:1010600000D00F92CDB7DEB789836A83898184303F
:10107000A0F58981282F30E03D832C838C819D81D0
:1010800081309105D1F02C813D81223031052CF445
:101090008C819D81009761F01EC02C813D812230A2
:1010A000310581F08C819D818330910581F013C0E1
:1010B000EAE3F0E08A8180830EC0E7E3F0E08A8112
:1010C000808309C0E4E3F0E08A81808304C0E1E327
:1010D000F0E08A8180831B8202C091E09B838B8138
:1010E0000F900F900F900F900F90CF91DF91089578
:1010F000DF93CF93CDB7DEB728970FB6F894DEBF56
:101100000FBECDBF89836A834B838981843008F009
:10111000F4C08A81883008F0F0C08B81813009F0FA
:1011200070C08981282F30E038872F838F81988580
:101130008130910549F12F813885223031052CF419
:101140008F819885009761F05AC02F8138852230B1
:10115000310571F18F81988583309105E9F14FC098
:10116000AAE3B0E0EAE3F0E08081482F8A81282FEB
:1011700030E081E090E0022E02C0880F991F0A94AF
:10118000E2F7842B8C933BC0A7E3B0E0E7E3F0E009
:101190008081482F8A81282F30E081E090E0022E64
:1011A00002C0880F991F0A94E2F7842B8C9327C002
:1011B000A4E3B0E0E4E3F0E08081482F8A81282FA7
:1011C00030E081E090E0022E02C0880F991F0A945F
:1011D000E2F7842B8C9313C0A1E3B0E0E1E3F0E0ED
:1011E0008081482F8A81282F30E081E090E0022E14
:1011F00002C0880F991F0A94E2F7842B8C931E82F9
:101200007EC08B81882309F075C08981282F30E04A
:101210003D832C838C819D818130910559F12C81F6
:101220003D81223031052CF48C819D81009769F03D
:101230005FC02C813D812230310589F18C819D81F7
:101240008330910509F440C053C0AAE3B0E0EAE35B
:10125000F0E08081482F8A81282F30E081E090E003
:10126000022E02C0880F991F0A94E2F7809584230A
:101270008C933EC0A7E3B0E0E7E3F0E08081482F25
:101280008A81282F30E081E090E0022E02C0880F92
:10129000991F0A94E2F7809584238C9329C0A4E3D4
:1012A000B0E0E4E3F0E08081482F8A81282F30E02D
:1012B00081E090E0022E02C0880F991F0A94E2F7A5
:1012C000809584238C9314C0A1E3B0E0E1E3F0E0C7
:1012D0008081482F8A81282F30E081E090E0022E23
:1012E00002C0880F991F0A94E2F7809584238C939B
:1012F0001E8205C092E09E8302C021E02E838E8173
:1013000028960FB6F894DEBF0FBECDBFCF91DF9108
:101310000895DF93CF9300D000D00F92CDB7DEB702
:1013200089836A8389818430A0F58981282F30E000
:101330003D832C838C819D8181309105D1F02C815E
:101340003D81223031052CF48C819D81009761F024
:101350001EC02C813D812230310581F08C819D8120
:101360008330910581F013C0EBE3F0E08A81808344
:101370000EC0E8E3F0E08A81808309C0E5E3F0E095
:101380008A81808304C0E2E3F0E08A8180831B824B
:1013900002C091E09B838B810F900F900F900F9074
:1013A0000F90CF91DF910895DF93CF93CDB7DEB744
:1013B00028970FB6F894DEBF0FBECDBF89836A832E
:1013C0004B838981843008F0F4C08A81883008F02A
:1013D000F0C08B81813009F070C08981282F30E006
:1013E00038872F838F8198858130910549F12F812E
:1013F0003885223031052CF48F819885009761F073
:101400005AC02F8138852230310571F18F8198853E
:1014100083309105E9F14FC0ABE3B0E0EBE3F0E0DE
:101420008081482F8A81282F30E081E090E0022ED1
:1014300002C0880F991F0A94E2F7842B8C933BC05B
:10144000A8E3B0E0E8E3F0E08081482F8A81282F0C
:1014500030E081E090E0022E02C0880F991F0A94CC
:10146000E2F7842B8C9327C0A5E3B0E0E5E3F0E03E
:101470008081482F8A81282F30E081E090E0022E81
:1014800002C0880F991F0A94E2F7842B8C9313C033
:10149000A2E3B0E0E2E3F0E08081482F8A81282FC8
:1014A00030E081E090E0022E02C0880F991F0A947C
:1014B000E2F7842B8C931E827EC08B81882309F0F7
:1014C00075C08981282F30E03D832C838C819D81DC
:1014D0008130910559F12C813D81223031052CF468
:1014E0008C819D81009769F05FC02C813D81223005
:1014F000310589F18C819D818330910509F440C0CB
:1015000053C0ABE3B0E0EBE3F0E08081482F8A8189
:10151000282F30E081E090E0022E02C0880F991F52
:101520000A94E2F7809584238C933EC0A8E3B0E050
:10153000E8E3F0E08081482F8A81282F30E081E0C5
:1015400090E0022E02C0880F991F0A94E2F780955E
:1015500084238C9329C0A5E3B0E0E5E3F0E080812B
:10156000482F8A81282F30E081E090E0022E02C0CF
:10157000880F991F0A94E2F7809584238C9314C0F6
:10158000A2E3B0E0E2E3F0E08081482F8A81282FD7
:1015900030E081E090E0022E02C0880F991F0A948B
:1015A000E2F7809584238C931E8205C092E09E838F
:1015B00002C021E02E838E8128960FB6F894DEBFFC
:1015C0000FBECDBFCF91DF910895DF93CF9300D0B1
:1015D00000D000D0CDB7DEB789837B836A83898151
:1015E0008430E0F58981282F30E03E832D838D8182
:1015F0009E8181309105E1F02D813E8122303105BF
:101600002CF48D819E81009761F026C02D813E8152
:1016100022303105A1F08D819E8183309105B1F09A
:101620001BC0E9E3F0E08081EA81FB81808314C084
:10163000E6E3F0E08081EA81FB8180830DC0E3E393
:10164000F0E08081EA81FB81808306C0E0E3F0E086
:101650008081EA81FB8180831C8202C091E09C83AF
:101660008C8126960FB6F894DEBF0FBECDBFCF910A
:10167000DF910895DF93CF93CDB7DEB727970FB6ED
:10168000F894DEBF0FBECDBF89836A835C834B8332
:101690008981843008F076C08A81883008F072C071
:1016A0008981282F30E03F832E834E815F81413036
:1016B000510559F18E819F818230910534F42E813C
:1016C0003F812115310569F05BC04E815F81423059
:1016D000510579F18E819F818330910509F43DC0D8
:1016E0004FC0E9E3F0E08081282F30E08A81882F25
:1016F00090E0A90102C0559547958A95E2F7CA0185
:101700008170EB81FC8180833BC0E6E3F0E0808167
:10171000282F30E08A81882F90E0A90102C05595DA
:1017200047958A95E2F7CA018170EB81FC8180833D
:1017300027C0E3E3F0E08081282F30E08A81882F02
:1017400090E0A90102C0559547958A95E2F7CA0134
:101750008170EB81FC81808313C0E0E3F0E0808145
:10176000282F30E08A81882F90E0A90102C055958A
:1017700047958A95E2F7CA018170EB81FC818083ED
:101780001D8202C051E05D838D8127960FB6F894CB
:10179000DEBF0FBECDBFCF91DF910895DF93CF9312
:1017A00000D000D00F92CDB7DEB789836A838981DC
:1017B000843008F074C08A81883008F070C0898154
:1017C000282F30E03D832C838C819D8181309105D1
:1017D00049F12C813D81223031052CF48C819D8191
:1017E000009761F05AC02C813D812230310571F1A2
:1017F0008C819D8183309105E9F14FC0ABE3B0E06E
:10180000EBE3F0E08081482F8A81282F30E081E0EF
:1018100090E0022E02C0880F991F0A94E2F78427F5
:101820008C933BC0A8E3B0E0E8E3F0E08081482F70
:101830008A81282F30E081E090E0022E02C0880FDC
:10184000991F0A94E2F784278C9327C0A5E3B0E0A0
:10185000E5E3F0E08081482F8A81282F30E081E0A5
:1018600090E0022E02C0880F991F0A94E2F78427A5
:101870008C9313C0A2E3B0E0E2E3F0E08081482F54
:101880008A81282F30E081E090E0022E02C0880F8C
:10189000991F0A94E2F784278C931B8202C091E07F
:1018A0009B838B810F900F900F900F900F90CF9193
:1018B000DF910895DF93CF9300D000D00F92CDB782
:1018C000DEB789836A838981843008F0D1C08A8138
:1018D000883008F0CDC08981282F30E03D832C83EB
:1018E0004C815D814130510509F442C08C819D815C
:1018F0008230910534F42C813D812115310571F040
:10190000B5C04C815D814230510509F45BC08C81CA
:101910009D818330910509F47FC0A8C0EAE3F0E01F
:101920008081282F30E08A81882F90E0A90102C0B1
:10193000559547958A95E2F7CA0181709070009796
:10194000A1F4ABE3B0E0EBE3F0E08081482F8A81C3
:10195000282F30E081E090E0022E02C0880F991F0E
:101960000A94E2F7842B8C9381C053E05B8382C09E
:10197000E7E3F0E08081282F30E08A81882F90E033
:10198000A90102C0559547958A95E2F7CA01817071
:1019900090700097A1F4A8E3B0E0E8E3F0E0808164
:1019A000482F8A81282F30E081E090E0022E02C08B
:1019B000880F991F0A94E2F7842B8C9357C053E049
:1019C0005B8358C0E4E3F0E08081282F30E08A8117
:1019D000882F90E0A90102C0559547958A95E2F7B6
:1019E000CA01817090700097A1F4A5E3B0E0E5E32F
:1019F000F0E08081482F8A81282F30E081E090E05C
:101A0000022E02C0880F991F0A94E2F7842B8C9350
:101A10002DC053E05B832EC0E1E3F0E08081282FEE
:101A200030E08A81882F90E0A90102C05595479542
:101A30008A95E2F7CA01817090700097A1F4A2E341
:101A4000B0E0E2E3F0E08081482F8A81282F30E087
:101A500081E090E0022E02C0880F991F0A94E2F7FD
:101A6000842B8C9303C053E05B8304C01B8202C0B1
:101A700081E08B838B810F900F900F900F900F90D0
:101A8000CF91DF910895DF93CF93CDB7DEB780E09C
:101A900060E041E00E94780880E061E041E00E945F
:101AA000780880E062E041E00E94780880E0CF9111
:101AB000DF910895DF93CF9300D00F92CDB7DEB7BB
:101AC00089838981282F30E03B832A838A819B8107
:101AD0008230910581F02A813B812330310589F0E4
:101AE0008A819B818130910589F480E060E041E04A
:101AF0000E94D4090BC080E061E041E00E94D4095B
:101B000005C080E062E041E00E94D40980E00F90CF
:101B10000F900F90CF91DF910895DF93CF9300D076
:101B20000F92CDB7DEB789838981282F30E03B83C0
:101B30002A838A819B818230910581F02A813B81B1
:101B40002330310589F08A819B818130910589F4A8
:101B500080E060E040E00E94D4090BC080E061E0DA
:101B600040E00E94D40905C080E062E040E00E94AD
:101B7000D40980E00F900F900F90CF91DF910895DE
:101B8000DF93CF9300D00F92CDB7DEB789838981E1
:101B9000282F30E03B832A838A819B818230910504
:101BA00079F02A813B812330310579F08A819B814C
:101BB0008130910571F480E060E00E94CE0B09C095
:101BC00080E061E00E94CE0B04C080E062E00E94F1
:101BD000CE0B80E00F900F900F90CF91DF91089582
:101BE000DF93CF9300D000D00F92CDB7DEB78983BB
:101BF0007B836A838981282F30E03D832C838C810D
:101C00009D818230910591F02C813D8123303105F9
:101C1000A9F08C819D8181309105B9F42A813B81A5
:101C200080E060E0A9010E943A0B0FC02A813B814D
:101C300080E061E0A9010E943A0B07C02A813B8144
:101C400080E062E0A9010E943A0B80E00F900F90C3
:101C50000F900F900F90CF91DF910895DF93CF9366
:101C6000CDB7DEB780E00E94C70280E00E94890401
:101C70002EE43EE080E0B9010E94040580E06FEFB1
:101C80000E942D080E949B06CF91DF910895DF935B
:101C9000CF93CDB7DEB7CF91DF910895DF93CF9388
:101CA000CDB7DEB72FE630E081E0B9010E94100425
:101CB00090916F0080E0692F0E948909CF91DF9198
:101CC0000895DF93CF93CDB7DEB70E942E0E0E940A
:081CD000470EFFCFF894FFCF8F
:00000001FF
