:100000000C942A000C9489060C9499060C944700D1
:100010000C9447000C9447000C9447000C94470044
:100020000C9447000C9447000C9447000C94470034
:100030000C94EA040C9447000C9447000C9447007D
:100040000C9447000C9447000C9447000C94B003A8
:100050000C94470011241FBECFE5D4E0DEBFCDBF16
:1000600010E0A0E6B0E0EAE4FBE102C005900D92EA
:10007000A63CB107D9F711E0A6ECB0E001C01D9293
:10008000A134B107E1F70E949A0D0C94A30D0C94D2
:100090000000DF93CF930F92CDB7DEB78983AAE23A
:1000A000B0E0EAE2F0E0808180618C93AAE2B0E007
:1000B000EAE2F0E0808188608C93ABE2B0E0EBE2B2
:1000C000F0E080818D7F8C93AAE2B0E0EAE2F0E07C
:1000D00080818B7F8C93A0E4B0E0E0E4F0E080814D
:1000E00086688C93E9E2F0E083E3808380E00F9000
:1000F000CF91DF910895DF93CF9300D0CDB7DEB7D6
:1001000089836A83ECE2F0E08A818083EBE2F0E0AD
:100110008081829586958770882F90E0817090709D
:100120000097A1F380E00F900F90CF91DF91089599
:10013000DF93CF9300D000D0CDB7DEB78A837C8326
:100140006B8319821BC0ACE2B0E08981282F30E0BC
:100150008B819C81FC01E20FF31F80818C93EBE289
:10016000F0E08081829586958770882F90E081707D
:1001700090700097A1F389818F5F89838981282FEF
:1001800030E08B819C81FC01E20FF31F808188238A
:10019000D1F6ECE2F0E08DE08083EBE2F0E08081EC
:1001A000829586958770882F90E081709070009777
:1001B000A1F380E00F900F900F900F90CF91DF91FF
:1001C0000895DF93CF9300D00F92CDB7DEB7898328
:1001D0007B836A83EBE2F0E080818823DCF7ECE24A
:1001E000F0E08081EA81FB81808380E00F900F90B6
:1001F0000F90CF91DF910895DF93CF9300D000D07F
:10020000CDB7DEB78A837C836B831982EBE2F0E0A3
:1002100080818823DCF78981282F30E08B819C81C5
:10022000DC01A20FB31FECE2F0E080818C938981A6
:10023000282F30E08B819C81FC01E20FF31F80812D
:100240008D3089F48981282F30E08B819C81FC01DD
:10025000E20FF31F108280E00F900F900F900F902D
:10026000CF91DF91089589818F5F89838981882F5C
:1002700090E09C01215030408B819C81FC01E20F79
:10028000F31F8081883039F48981823020F08981A0
:1002900082508983BBCF8981882F90E09C012150B7
:1002A00030408B819C81FC01E20FF31F80818830FC
:1002B00009F0ACCF8981823008F0A8CF1982A6CF8F
:1002C000DF93CF9300D000D0CDB7DEB789836A83A8
:1002D0008981882F90E0009751F58A81282F30E09E
:1002E0003C832B838B819C818130910589F02B810C
:1002F0003C8122303105A1F08B819C810097B9F4BB
:10030000AAE2B0E0EAE2F0E0808180688C930FC05E
:10031000AAE2B0E0EAE2F0E0808180648C9307C05A
:10032000AAE2B0E0EAE2F0E0808180628C9380E0B3
:100330000F900F900F900F90CF91DF910895DF9362
:10034000CF9300D000D0CDB7DEB789836A8389818F
:10035000882F90E0009751F58A81282F30E03C8368
:100360002B838B819C818130910589F02B813C818D
:1003700022303105A1F08B819C810097B9F4AAE26B
:10038000B0E0EAE2F0E080818F778C930FC0AAE2C0
:10039000B0E0EAE2F0E080818F7B8C9307C0AAE2B4
:1003A000B0E0EAE2F0E080818F7D8C9380E00F90F6
:1003B0000F900F900F90CF91DF910895DF93CF931F
:1003C0000F92CDB7DEB78983E2E2F0E080E380836D
:1003D00080E00F90CF91DF910895DF93CF930F923C
:1003E000CDB7DEB7898389810E94DE01E0E2F0E0CB
:1003F0008EE18083A1E2B0E0E1E2F0E080818C7FD9
:100400008C93A6E5B0E0E6E5F0E0808180648C9313
:10041000A6E5B0E0E6E5F0E0808184608C9380E0C2
:100420000F90CF91DF910895DF93CF9300D00F927B
:10043000CDB7DEB78A831982E6E5F0E084EA8083EF
:10044000E6E5F0E08081881F8827881F8130C1F7AA
:10045000E1E2F0E08081887F89838981883011F42E
:100460001B8202C081E08B838B810F900F900F90D5
:10047000CF91DF910895DF93CF930F92CDB7DEB781
:100480008983E6E5F0E084E9808380E00F90CF91F6
:10049000DF910895DF93CF9300D000D0CDB7DEB7C2
:1004A0008A836B831982E3E2F0E08B81880F80837B
:1004B000E6E5F0E084E88083E6E5F0E080818823EB
:1004C000DCF7E1E2F0E08081887F898389818831EF
:1004D00011F41C8208C08981803219F482E08C8377
:1004E00002C083E08C838C810F900F900F900F904F
:1004F000CF91DF910895DF93CF9300D000D0CDB797
:10050000DEB78A836B831982E3E2F0E08B81882F68
:1005100090E0880F991F81608083E6E5F0E084E831
:100520008083E6E5F0E080818823DCF7E1E2F0E01B
:100530008081887F89838981803411F41C8208C07E
:100540008981883419F482E08C8302C083E08C8333
:100550008C810F900F900F900F90CF91DF910895A5
:10056000DF93CF9300D000D0CDB7DEB78A836B8303
:100570001982E3E2F0E08B818083E6E5F0E084E835
:100580008083E6E5F0E080818823DCF7E1E2F0E0BB
:100590008081887F89838981883211F41C8208C018
:1005A0008981803319F486E08C8302C087E08C83D4
:1005B0008C810F900F900F900F90CF91DF91089545
:1005C000DF93CF9300D00F92CDB7DEB789836A83D4
:1005D0004B8389810E94140289816A810E944A02A8
:1005E00089816B810E94B00289810E943B0280E078
:1005F0000F900F900F90CF91DF910895DF93CF93DD
:1006000000D000D00F92CDB7DEB78A837C836B8396
:100610001982A6E5B0E0E6E5F0E0808180648C9385
:10062000A6E5B0E0E6E5F0E0808180688C93E6E541
:10063000F0E080818823DCF7E3E2F0E08081EB8169
:10064000FC818083E1E2F0E08081887F8983898179
:10065000803511F41D8208C08981883519F486E03F
:100660008D8302C087E08D838D810F900F900F9056
:100670000F900F90CF91DF910895DF93CF9300D02B
:1006800000D0CDB7DEB789836A835C834B838981D1
:100690000E94140289816A810E947B022B813C8125
:1006A0008981B9010E94FE0289810E943B0280E09B
:1006B0000F900F900F900F90CF91DF910895DF93DF
:1006C000CF930F92CDB7DEB78983A6E5B0E0E6E51C
:1006D000F0E0808181608C9380E00F90CF91DF917A
:1006E0000895DF93CF930F92CDB7DEB78983A6E548
:1006F000B0E0E6E5F0E080818E7F8C9380E00F90A3
:10070000CF91DF910895DF93CF9300D00F92CDB7B3
:10071000DEB789837B836A83E3E2F0E080818170C6
:10072000EA81FB81808380E00F900F900F90CF9142
:10073000DF910895DF93CF9300D00F92CDB7DEB74E
:1007400089837B836A838A819B8190933E01809316
:100750003D0180E00F900F900F90CF91DF910895B1
:100760001F920F920FB60F9211242F933F934F9326
:100770005F936F937F938F939F93AF93BF93EF9309
:10078000FF93DF93CF93CDB7DEB7E0913D01F091BA
:100790003E010995CF91DF91FF91EF91BF91AF910C
:1007A0009F918F917F916F915F914F913F912F9189
:1007B0000F900FBE0F901F901895DF93CF930F925D
:1007C000CDB7DEB78983ADE2B0E0EDE2F0E0808145
:1007D0008F7E8C93ADE2B0E0EDE2F0E0808180644A
:1007E0008C9381E066E041E00E94F40681E065E0E0
:1007F00040E00E94F40681E067E040E00E94F406D9
:1008000081E064E040E00E94F40680E00F90CF9128
:10081000DF910895DF93CF9300D00F92CDB7DEB76D
:1008200089836A834B83EFE2F0E08A818083EEE282
:10083000F0E080818823DCF780E00F900F900F902C
:10084000CF91DF910895DF93CF9300D000D00F9226
:10085000CDB7DEB78A837C836B834D8319821FC03B
:100860008981282F30E08B819C81FC01E20FF31FEE
:1008700080818823B9F0AFE2B0E08981282F30E091
:100880008B819C81FC01E20FF31F80818C93898115
:100890008F5F8983EEE2F0E080818823DCF7898135
:1008A0008F3FF1F280E00F900F900F900F900F901C
:1008B000CF91DF910895DF93CF9300D000D0CDB7D3
:1008C000DEB789837B836A834C83EEE2F0E080812C
:1008D0008823DCF7EFE2F0E08081EA81FB8180830E
:1008E00080E00F900F900F900F90CF91DF910895BF
:1008F000DF93CF9300D000D00F92CDB7DEB78A83BD
:100900007C836B834D831982EEE2F0E08081881F47
:100910008827881F8130C1F78981282F30E08B819B
:100920009C81DC01A20FB31FEFE2F0E080818C9389
:100930008981282F30E08B819C81FC01E20FF31F1D
:100940008081882321F089818F5F8983DDCF80E0DA
:100950000F900F900F900F900F90CF91DF9108950F
:10096000DF93CF930F92CDB7DEB78983ADE2B0E0CE
:10097000EDE2F0E0808180688C9380E00F90CF9171
:10098000DF910895DF93CF930F92CDB7DEB78983C0
:10099000ADE2B0E0EDE2F0E080818F778C9380E013
:1009A0000F90CF91DF910895DF93CF9300D00F92F6
:1009B000CDB7DEB789837B836A838A819B819093DD
:1009C000400180933F0180E00F900F900F90CF91F6
:1009D000DF9108951F920F920FB60F9211242F935B
:1009E0003F934F935F936F937F938F939F93AF93B7
:1009F000BF93EF93FF93DF93CF93CDB7DEB7E09133
:100A00003F01F09140010995CF91DF91FF91EF9166
:100A1000BF91AF919F918F917F916F915F914F9116
:100A20003F912F910F900FBE0F901F901895DF935D
:100A3000CF93CDB7DEB7AFE5B0E0EFE5F0E0808172
:100A400080688C93CF91DF910895DF93CF93CDB7DA
:100A5000DEB7AFE5B0E0EFE5F0E080818F778C9313
:100A6000CF91DF910895DF93CF9300D00F92CDB750
:100A7000DEB789838981833050F58981282F30E062
:100A80003B832A838A819B818130910589F02A8169
:100A90003B8122303105A1F08A819B810097B9F416
:100AA000ABE5B0E0EBE5F0E080818F7B8C930FC08D
:100AB000ABE5B0E0EBE5F0E080818F778C9307C089
:100AC000ABE5B0E0EBE5F0E080818F7D8C930F909B
:100AD0000F900F90CF91DF910895DF93CF93CDB713
:100AE000DEB72A970FB6F894DEBF0FBECDBF89835D
:100AF0006A838981833008F003C18A81843008F0D9
:100B0000FFC08981282F30E03A87298789859A8517
:100B10008130910509F46DC029853A85223031056F
:100B200009F4C9C089859A85009709F0E9C0ABE549
:100B3000B0E0EBE5F0E0808180648C938A81282F1F
:100B400030E038872F838F8198858130910521F19E
:100B50002F813885223031052CF48F8198850097BC
:100B600061F0CEC02F8138852230310521F18F818F
:100B700098858330910571F1C3C0A5E5B0E0E5E546
:100B8000F0E080818E7F8C93A5E5B0E0E5E5F0E0B4
:100B9000808182608C93B4C0A5E5B0E0E5E5F0E02B
:100BA000808181608C93A5E5B0E0E5E5F0E080818F
:100BB00082608C93A5C0A5E5B0E0E5E5F0E080811A
:100BC0008E7F8C93A5E5B0E0E5E5F0E080818D7F38
:100BD0008C9396C0A5E5B0E0E5E5F0E0808181600A
:100BE0008C93A5E5B0E0E5E5F0E080818D7F8C9306
:100BF00087C0ABE5B0E0EBE5F0E0808180688C93E6
:100C00008A81282F30E03E832D838D819E81813023
:100C1000910521F12D813E81223031052CF48D8109
:100C20009E81009761F06CC02D813E81223031059C
:100C300021F18D819E818330910571F161C0A5E51F
:100C4000B0E0E5E5F0E080818B7F8C93A5E5B0E036
:100C5000E5E5F0E0808188608C9352C0A5E5B0E0C6
:100C6000E5E5F0E0808184608C93A5E5B0E0E5E502
:100C7000F0E0808188608C9343C0A5E5B0E0E5E5B5
:100C8000F0E080818B7F8C93A5E5B0E0E5E5F0E0B6
:100C90008081877F8C9334C0A5E5B0E0E5E5F0E086
:100CA000808184608C93A5E5B0E0E5E5F0E080818B
:100CB000877F8C9325C0ABE5B0E0EBE5F0E0808169
:100CC00080628C938A81282F30E03C832B838B8138
:100CD0009C81009731F02B813C812130310549F016
:100CE0000FC0A4E5B0E0E4E5F0E080818F7B8C9359
:100CF00007C0A4E5B0E0E4E5F0E0808180648C9377
:100D00002A960FB6F894DEBF0FBECDBFCF91DF910C
:100D100008951F920F920FB60F921124DF93CF9375
:100D2000CDB7DEB7CF91DF910F900FBE0F901F9020
:100D300018951F920F920FB60F921124DF93CF9345
:100D4000CDB7DEB7CF91DF910F900FBE0F901F9000
:100D50001895DF93CF9300D000D00F92CDB7DEB7B8
:100D600089836A8389818430A0F58981282F30E0C6
:100D70003D832C838C819D8181309105D1F02C8124
:100D80003D81223031052CF48C819D81009761F0EA
:100D90001EC02C813D812230310581F08C819D81E6
:100DA0008330910581F013C0EAE3F0E08A8180830B
:100DB0000EC0E7E3F0E08A81808309C0E4E3F0E05D
:100DC0008A81808304C0E1E3F0E08A8180831B8212
:100DD00002C091E09B838B810F900F900F900F903A
:100DE0000F90CF91DF910895DF93CF93CDB7DEB70A
:100DF00028970FB6F894DEBF0FBECDBF89836A83F4
:100E00004B838981843008F0F4C08A81883008F0EF
:100E1000F0C08B81813009F070C08981282F30E0CB
:100E200038872F838F8198858130910549F12F81F3
:100E30003885223031052CF48F819885009761F038
:100E40005AC02F8138852230310571F18F81988504
:100E500083309105E9F14FC0AAE3B0E0EAE3F0E0A6
:100E60008081482F8A81282F30E081E090E0022E97
:100E700002C0880F991F0A94E2F7842B8C933BC021
:100E8000A7E3B0E0E7E3F0E08081482F8A81282FD4
:100E900030E081E090E0022E02C0880F991F0A9492
:100EA000E2F7842B8C9327C0A4E3B0E0E4E3F0E006
:100EB0008081482F8A81282F30E081E090E0022E47
:100EC00002C0880F991F0A94E2F7842B8C9313C0F9
:100ED000A1E3B0E0E1E3F0E08081482F8A81282F90
:100EE00030E081E090E0022E02C0880F991F0A9442
:100EF000E2F7842B8C931E827EC08B81882309F0BD
:100F000075C08981282F30E03D832C838C819D81A1
:100F10008130910559F12C813D81223031052CF42D
:100F20008C819D81009769F05FC02C813D812230CA
:100F3000310589F18C819D818330910509F440C090
:100F400053C0AAE3B0E0EAE3F0E08081482F8A8151
:100F5000282F30E081E090E0022E02C0880F991F18
:100F60000A94E2F7809584238C933EC0A7E3B0E017
:100F7000E7E3F0E08081482F8A81282F30E081E08C
:100F800090E0022E02C0880F991F0A94E2F7809524
:100F900084238C9329C0A4E3B0E0E4E3F0E08081F3
:100FA000482F8A81282F30E081E090E0022E02C095
:100FB000880F991F0A94E2F7809584238C9314C0BC
:100FC000A1E3B0E0E1E3F0E08081482F8A81282F9F
:100FD00030E081E090E0022E02C0880F991F0A9451
:100FE000E2F7809584238C931E8205C092E09E8355
:100FF00002C021E02E838E8128960FB6F894DEBFC2
:101000000FBECDBFCF91DF910895DF93CF9300D076
:1010100000D00F92CDB7DEB789836A83898184308F
:10102000A0F58981282F30E03D832C838C819D8120
:1010300081309105D1F02C813D81223031052CF495
:101040008C819D81009761F01EC02C813D812230F2
:10105000310581F08C819D818330910581F013C031
:10106000EBE3F0E08A8180830EC0E8E3F0E08A8160
:10107000808309C0E5E3F0E08A81808304C0E2E375
:10108000F0E08A8180831B8202C091E09B838B8188
:101090000F900F900F900F900F90CF91DF910895C8
:1010A000DF93CF93CDB7DEB728970FB6F894DEBFA6
:1010B0000FBECDBF89836A834B838981843008F05A
:1010C000F4C08A81883008F0F0C08B81813009F04B
:1010D00070C08981282F30E038872F838F819885D1
:1010E0008130910549F12F813885223031052CF46A
:1010F0008F819885009761F05AC02F813885223002
:10110000310571F18F81988583309105E9F14FC0E8
:10111000ABE3B0E0EBE3F0E08081482F8A81282F39
:1011200030E081E090E0022E02C0880F991F0A94FF
:10113000E2F7842B8C933BC0A8E3B0E0E8E3F0E057
:101140008081482F8A81282F30E081E090E0022EB4
:1011500002C0880F991F0A94E2F7842B8C9327C052
:10116000A5E3B0E0E5E3F0E08081482F8A81282FF5
:1011700030E081E090E0022E02C0880F991F0A94AF
:10118000E2F7842B8C9313C0A2E3B0E0E2E3F0E03B
:101190008081482F8A81282F30E081E090E0022E64
:1011A00002C0880F991F0A94E2F7842B8C931E8249
:1011B0007EC08B81882309F075C08981282F30E09B
:1011C0003D832C838C819D818130910559F12C8147
:1011D0003D81223031052CF48C819D81009769F08E
:1011E0005FC02C813D812230310589F18C819D8148
:1011F0008330910509F440C053C0ABE3B0E0EBE3AA
:10120000F0E08081482F8A81282F30E081E090E053
:10121000022E02C0880F991F0A94E2F7809584235A
:101220008C933EC0A8E3B0E0E8E3F0E08081482F73
:101230008A81282F30E081E090E0022E02C0880FE2
:10124000991F0A94E2F7809584238C9329C0A5E323
:10125000B0E0E5E3F0E08081482F8A81282F30E07C
:1012600081E090E0022E02C0880F991F0A94E2F7F5
:10127000809584238C9314C0A2E3B0E0E2E3F0E015
:101280008081482F8A81282F30E081E090E0022E73
:1012900002C0880F991F0A94E2F7809584238C93EB
:1012A0001E8205C092E09E8302C021E02E838E81C3
:1012B00028960FB6F894DEBF0FBECDBFCF91DF9159
:1012C0000895DF93CF9300D000D000D0CDB7DEB724
:1012D00089837B836A8389818430E0F58981282F23
:1012E00030E03E832D838D819E8181309105E1F038
:1012F0002D813E81223031052CF48D819E81009715
:1013000061F026C02D813E8122303105A1F08D8112
:101310009E8183309105B1F01BC0E9E3F0E080814C
:10132000EA81FB81808314C0E6E3F0E08081EA81FA
:10133000FB8180830DC0E3E3F0E08081EA81FB81E3
:10134000808306C0E0E3F0E08081EA81FB81808356
:101350001C8202C091E09C838C8126960FB6F89483
:10136000DEBF0FBECDBFCF91DF910895DF93CF9346
:10137000CDB7DEB727970FB6F894DEBF0FBECDBF4F
:1013800089836A835C834B838981843008F076C0CB
:101390008A81883008F072C08981282F30E03F832D
:1013A0002E834E815F814130510559F18E819F819D
:1013B0008230910534F42E813F812115310569F089
:1013C0005BC04E815F814230510579F18E819F81F2
:1013D0008330910509F43DC04FC0E9E3F0E080811E
:1013E000282F30E08A81882F90E0A90102C055950E
:1013F00047958A95E2F7CA018170EB81FC81808371
:101400003BC0E6E3F0E08081282F30E08A81882F1E
:1014100090E0A90102C0559547958A95E2F7CA0167
:101420008170EB81FC81808327C0E3E3F0E0808161
:10143000282F30E08A81882F90E0A90102C05595BD
:1014400047958A95E2F7CA018170EB81FC81808320
:1014500013C0E0E3F0E08081282F30E08A81882FFC
:1014600090E0A90102C0559547958A95E2F7CA0117
:101470008170EB81FC8180831D8202C051E05D831D
:101480008D8127960FB6F894DEBF0FBECDBFCF91EA
:10149000DF910895DF93CF9300D000D00F92CDB7A6
:1014A000DEB789836A838981843008F074C08A81B9
:1014B000883008F070C08981282F30E03D832C836C
:1014C0008C819D818130910549F12C813D812230B3
:1014D00031052CF48C819D81009761F05AC02C81DC
:1014E0003D812230310571F18C819D8183309105E0
:1014F000E9F14FC0ABE3B0E0EBE3F0E08081482FCF
:101500008A81282F30E081E090E0022E02C0880F0F
:10151000991F0A94E2F784278C933BC0A8E3B0E0BC
:10152000E8E3F0E08081482F8A81282F30E081E0D5
:1015300090E0022E02C0880F991F0A94E2F78427D8
:101540008C9327C0A5E3B0E0E5E3F0E08081482F6D
:101550008A81282F30E081E090E0022E02C0880FBF
:10156000991F0A94E2F784278C9313C0A2E3B0E09A
:10157000E2E3F0E08081482F8A81282F30E081E08B
:1015800090E0022E02C0880F991F0A94E2F7842788
:101590008C931B8202C091E09B838B810F900F90F4
:1015A0000F900F900F90CF91DF910895DF93CF931D
:1015B00000D000D00F92CDB7DEB789836A838981CE
:1015C000843008F0D1C08A81883008F0CDC089818C
:1015D000282F30E03D832C834C815D8141305105C3
:1015E00009F442C08C819D818230910534F42C81B4
:1015F0003D812115310571F0B5C04C815D814230CE
:10160000510509F45BC08C819D818330910509F4FB
:101610007FC0A8C0EAE3F0E08081282F30E08A8113
:10162000882F90E0A90102C0559547958A95E2F769
:10163000CA01817090700097A1F4ABE3B0E0EBE3D6
:10164000F0E08081482F8A81282F30E081E090E00F
:10165000022E02C0880F991F0A94E2F7842B8C9304
:1016600081C053E05B8382C0E7E3F0E08081282FF4
:1016700030E08A81882F90E0A90102C055954795F6
:101680008A95E2F7CA01817090700097A1F4A8E3EF
:10169000B0E0E8E3F0E08081482F8A81282F30E035
:1016A00081E090E0022E02C0880F991F0A94E2F7B1
:1016B000842B8C9357C053E05B8358C0E4E3F0E085
:1016C0008081282F30E08A81882F90E0A90102C014
:1016D000559547958A95E2F7CA01817090700097F9
:1016E000A1F4A5E3B0E0E5E3F0E08081482F8A8132
:1016F000282F30E081E090E0022E02C0880F991F71
:101700000A94E2F7842B8C932DC053E05B832EC0A8
:10171000E1E3F0E08081282F30E08A81882F90E09B
:10172000A90102C0559547958A95E2F7CA018170D3
:1017300090700097A1F4A2E3B0E0E2E3F0E08081D2
:10174000482F8A81282F30E081E090E0022E02C0ED
:10175000880F991F0A94E2F7842B8C9303C053E0FF
:101760005B8304C01B8202C081E08B838B810F905E
:101770000F900F900F900F90CF91DF910895DF930E
:10178000CF9300D000D0CDB7DEB789836A835C8366
:101790004B8381E00E94140281E069810E944A0229
:1017A00081E06A810E94B00281E00E94140281E01F
:1017B00069810E947B022B813C8181E0B9010E94FA
:1017C000FE0281E00E943B0280E00F900F900F909C
:1017D0000F90CF91DF910895DF93CF9300D00F92B8
:1017E000CDB7DEB789836A834B8381E00E94140200
:1017F00081E069810E944A0281E06A810E94B00210
:1018000081E06B810E94B00281E00E943B0280E097
:101810000F900F900F90CF91DF910895DF93CF93AA
:1018200000D000D000D0CDB7DEB79B838A837D8304
:101830006C83198219C08981282F30E08A819B81AD
:10184000FC01E20FF31F40818981282F30E08C8159
:101850009D81FC01E20FF31F8081481711F01E8269
:101860001BC089818F5F89838981282F30E08A811D
:101870009B81FC01E20FF31F80818823E1F68981BF
:10188000282F30E08C819D81FC01E20FF31F8081C5
:10189000882389F681E08E838E8126960FB6F89490
:1018A000DEBF0FBECDBFCF91DF910895DF93CF9301
:1018B000CDB7DEB727970FB6F894DEBF0FBECDBF0A
:1018C0009C838B837E836D831A8219822DC08A81CB
:1018D000282F30E08B819C81FC01E20FF31F808177
:1018E000803371F08A81282F30E08B819C81FC014C
:1018F000E20FF31F8081813319F062E06F834FC0E4
:101900008A81282F30E08B819C81DC01A20FB31FDC
:101910008A81882F90E0FC01E35DFE4F8081805337
:101920008C938A818F5F8A838A81282F30E08B8114
:101930009C81FC01E20FF31F8081882341F68A819C
:1019400081508A838A81873031F171E07F8327C09B
:10195000ED81FE818081482F8A81282F30E08B81A4
:101960009C81FC01E20FF31F8081282F30E08981E8
:10197000882F90E0B90102C0660F771F8A95E2F7C1
:10198000CB01842BED81FE8180838A8181508A8303
:1019900089818F5F898389818830D1F61F828F8109
:1019A00027960FB6F894DEBF0FBECDBFCF91DF9163
:1019B0000895DF93CF93CDB7DEB780E06FEF0E943D
:1019C000A90680E00E94490081E00E94ED01CF91CC
:1019D000DF910895DF93CF93CDB7DEB729EC30E0E8
:1019E00080E0B9010E94FC008AE690E029EC30E03A
:1019F000B9010E940E0C882309F442C024E830E0AB
:101A000080E0B9010E9498002DE231E080E0B90148
:101A10000E94FC000CC026E930E080E0B9010E9481
:101A200098002DE231E080E0B9010E94FC008DE2D7
:101A300091E026EC30E0B9010E94560C882359F75A
:101A400025E730E080E0B9010E94980028EC30E002
:101A500080E0B9010E94E10080E06DE00E947B001F
:101A60009091C6002091C80080E5692F422F0E9406
:101A7000EC0B20E630E080E0B9010E94980057C0EE
:101A800089EC90E020E730E0B9010E940E0C813033
:101A900009F047C024E830E080E0B9010E949800D6
:101AA0002DE231E080E0B9010E94FC000CC026E983
:101AB00030E080E0B9010E9498002DE231E080E042
:101AC000B9010E94FC008DE291E027EC30E0B90101
:101AD0000E94560C882359F79091C70028EC30E0FB
:101AE00080E5692FA9010E94BF0B8091C8008F3F3C
:101AF00039F42EEA30E080E0B9010E94980017C066
:101B000020E630E080E0B9010E9498009091C80082
:101B100080E0692F0E947B0080E06DE00E947B00E6
:101B200006C023E630E080E0B9010E949800CF9122
:101B3000DF910895DF93CF93CDB7DEB70E94D90C24
:0A1B40000E94EA0CFDCFF894FFCFDD
:101B4A004F4B0045524F52522100575249544500BB
:101B5A005245414400456E746572205468652043BD
:101B6A0068617200456E746572205468652041642C
:101B7A00647265737300456E7465722054686520DB
:101B8A004164647265737320416761696E005468C9
:101B9A00697320506C61636520486173204E6F2021
:061BAA006461746100009B
:00000001FF
