:100000000C942A000C943C000C943C000C943C0092
:100010000C943C000C943C000C943C000C943C0070
:100020000C943C000C943C000C943C000C943C0060
:100030000C943C000C943C000C943C000C943C0050
:100040000C943C000C943C000C943C000C943C0040
:100050000C943C0011241FBECFE5D4E0DEBFCDBF21
:1000600011E0A0E6B0E001C01D92A536B107E1F7AE
:100070000E946D090C9476090C940000DF93CF93D5
:100080000F92CDB7DEB78983AAE2B0E0EAE2F0E0F2
:10009000808180618C93AAE2B0E0EAE2F0E08081A6
:1000A00088608C93ABE2B0E0EBE2F0E080818D7F82
:1000B0008C93AAE2B0E0EAE2F0E080818B7F8C933F
:1000C000A0E4B0E0E0E4F0E0808186688C93E9E2AF
:1000D000F0E083E3808380E00F90CF91DF9108957B
:1000E000DF93CF9300D0CDB7DEB789836A83ECE28C
:1000F000F0E08A818083EBE2F0E080818295869552
:100100008770882F90E0817090700097A1F380E055
:100110000F900F90CF91DF910895DF93CF9300D090
:1001200000D0CDB7DEB78A837C836B8319821BC076
:10013000ACE2B0E08981282F30E08B819C81FC010A
:10014000E20FF31F80818C93EBE2F0E080818295D7
:1001500086958770882F90E0817090700097A1F34A
:1001600089818F5F89838981282F30E08B819C81F1
:10017000FC01E20FF31F80818823D1F6ECE2F0E06E
:100180008DE08083EBE2F0E0808182958695877038
:10019000882F90E0817090700097A1F380E00F901D
:1001A0000F900F900F90CF91DF910895DF93CF9331
:1001B00000D00F92CDB7DEB789837B836A83EBE2F1
:1001C000F0E080818823DCF7ECE2F0E08081EA81D6
:1001D000FB81808380E00F900F900F90CF91DF9193
:1001E0000895DF93CF9300D000D0CDB7DEB78A83D8
:1001F0007C836B831982EBE2F0E080818823DCF75B
:100200008981282F30E08B819C81DC01A20FB31FF4
:10021000ECE2F0E080818C938981282F30E08B81A3
:100220009C81FC01E20FF31F908180E0692F0E9406
:10023000700089818F5F8983ECE2F0E080818D30EE
:10024000A1F48981882F90E09C01215030408B815E
:100250009C81FC01E20FF31F108280E00F900F9051
:100260000F900F90CF91DF910895ECE2F0E0808144
:10027000883039F48981823020F0898182508983E5
:10028000BACFECE2F0E08081883009F0B4CF898108
:10029000823008F0B0CF1982AECFDF93CF9300D079
:1002A00000D0CDB7DEB789836A838981882F90E03B
:1002B000009751F58A81282F30E03C832B838B8176
:1002C0009C818130910589F02B813C812230310560
:1002D000A1F08B819C810097B9F4AAE2B0E0EAE238
:1002E000F0E0808180688C930FC0AAE2B0E0EAE27F
:1002F000F0E0808180648C9307C0AAE2B0E0EAE27B
:10030000F0E0808180628C9380E00F900F900F90DE
:100310000F90CF91DF910895DF93CF9300D000D05D
:10032000CDB7DEB789836A838981882F90E00097F3
:1003300051F58A81282F30E03C832B838B819C816F
:100340008130910589F02B813C8122303105A1F06B
:100350008B819C810097B9F4AAE2B0E0EAE2F0E078
:1003600080818F778C930FC0AAE2B0E0EAE2F0E0E0
:1003700080818F7B8C9307C0AAE2B0E0EAE2F0E0D4
:1003800080818F7D8C9380E00F900F900F900F9065
:10039000CF91DF910895DF93CF93CDB7DEB780E0A3
:1003A00060E041E00E94980380E060E041E00E944C
:1003B000F40480E0CF91DF910895DF93CF930F9203
:1003C000CDB7DEB78983ADE2B0E0EDE2F0E0808149
:1003D00080648C93ADE2B0E0EDE2F0E0808180617A
:1003E0008C93ADE2B0E0EDE2F0E0808181608C932F
:1003F00081E066E040E00E94980381E065E041E032
:100400000E94980381E067E041E00E94980381E048
:1004100064E040E00E9498030E94CB01AEE2B0E0AD
:10042000EEE2F0E080818E7F8C9380E00F90CF91A0
:10043000DF910895DF93CF9300D00F92CDB7DEB751
:1004400089836A834B838B81882F90E0009799F48E
:1004500080E060E040E00E94F404EFE2F0E08A8196
:100460008083EEE2F0E080818823DCF780E060E0CA
:1004700041E00E94F40480E00F900F900F90CF9124
:10048000DF910895DF93CF9300D000D00F92CDB7C6
:10049000DEB78A837C836B834D8319828D81882F9D
:1004A00090E00097E1F580E060E040E00E94F40415
:1004B0008981282F30E08B819C81FC01E20FF31FA2
:1004C00080818823B9F4AFE2B0E08981282F30E041
:1004D0008B819C81FC01E20FF31F80818C93EEE203
:1004E000F0E080818823DCF780E060E041E00E945A
:1004F000F40415C0AFE2B0E08981282F30E08B8191
:100500009C81FC01E20FF31F80818C9389818F5FB6
:100510008983EEE2F0E080818823DCF7C9CF80E0B8
:100520000F900F900F900F900F90CF91DF91089543
:10053000DF93CF9300D000D00F92CDB7DEB78A8380
:100540007C836B834D8319828D81882F90E0009787
:10055000E9F480E060E040E00E94F40480E069811A
:1005600040E00E941A02EEE2F0E08081881F8827B6
:10057000881F8130C1F7EFE2F0E08081EB81FC81E0
:10058000808380E060E041E00E94F40480E00F900E
:100590000F900F900F900F90CF91DF910895DF9300
:1005A000CF9300D000D000D0CDB7DEB78B837D8352
:1005B0006C834E831A8219828E81882F90E0009777
:1005C000E1F580E060E040E00E94F40480E06981B1
:1005D00040E00E941A02EEE2F0E08081881F882746
:1005E000881F8130C1F78A81282F30E08C819D815E
:1005F000DC01A20FB31FEFE2F0E080818C938A81CF
:10060000282F30E08C819D81FC01E20FF31F808157
:100610008D3079F48A81282F30E08C819D81FC0116
:10062000E20FF31F108280E060E041E00E94F404DA
:1006300004C08A818F5F8A83C9CF80E026960FB677
:10064000F894DEBF0FBECDBFCF91DF910895DF9349
:10065000CF930F92CDB7DEB7898380E00F90CF9113
:10066000DF910895DF93CF930F92CDB7DEB78983E3
:1006700080E00F90CF91DF910895DF93CF9300D06A
:100680000F92CDB7DEB789837B836A8380E00F90BA
:100690000F900F90CF91DF910895DF93CF9300D00B
:1006A00000D00F92CDB7DEB789836A838981843009
:1006B000A0F58981282F30E03D832C838C819D819A
:1006C00081309105D1F02C813D81223031052CF40F
:1006D0008C819D81009761F01EC02C813D8122306C
:1006E000310581F08C819D818330910581F013C0AB
:1006F000EAE3F0E08A8180830EC0E7E3F0E08A81DC
:10070000808309C0E4E3F0E08A81808304C0E1E3F0
:10071000F0E08A8180831B8202C091E09B838B8101
:100720000F900F900F900F900F90CF91DF91089541
:10073000DF93CF93CDB7DEB728970FB6F894DEBF1F
:100740000FBECDBF89836A834B838981843008F0D3
:10075000F4C08A81883008F0F0C08B81813009F0C4
:1007600070C08981282F30E038872F838F8198854A
:100770008130910549F12F813885223031052CF4E3
:100780008F819885009761F05AC02F81388522307B
:10079000310571F18F81988583309105E9F14FC062
:1007A000AAE3B0E0EAE3F0E08081482F8A81282FB5
:1007B00030E081E090E0022E02C0880F991F0A9479
:1007C000E2F7842B8C933BC0A7E3B0E0E7E3F0E0D3
:1007D0008081482F8A81282F30E081E090E0022E2E
:1007E00002C0880F991F0A94E2F7842B8C9327C0CC
:1007F000A4E3B0E0E4E3F0E08081482F8A81282F71
:1008000030E081E090E0022E02C0880F991F0A9428
:10081000E2F7842B8C9313C0A1E3B0E0E1E3F0E0B6
:100820008081482F8A81282F30E081E090E0022EDD
:1008300002C0880F991F0A94E2F7842B8C931E82C2
:100840007EC08B81882309F075C08981282F30E014
:100850003D832C838C819D818130910559F12C81C0
:100860003D81223031052CF48C819D81009769F007
:100870005FC02C813D812230310589F18C819D81C1
:100880008330910509F440C053C0AAE3B0E0EAE325
:10089000F0E08081482F8A81282F30E081E090E0CD
:1008A000022E02C0880F991F0A94E2F780958423D4
:1008B0008C933EC0A7E3B0E0E7E3F0E08081482FEF
:1008C0008A81282F30E081E090E0022E02C0880F5C
:1008D000991F0A94E2F7809584238C9329C0A4E39E
:1008E000B0E0E4E3F0E08081482F8A81282F30E0F7
:1008F00081E090E0022E02C0880F991F0A94E2F76F
:10090000809584238C9314C0A1E3B0E0E1E3F0E090
:100910008081482F8A81282F30E081E090E0022EEC
:1009200002C0880F991F0A94E2F7809584238C9364
:100930001E8205C092E09E8302C021E02E838E813C
:1009400028960FB6F894DEBF0FBECDBFCF91DF91D2
:100950000895DF93CF9300D000D00F92CDB7DEB7CC
:1009600089836A8389818430A0F58981282F30E0CA
:100970003D832C838C819D8181309105D1F02C8128
:100980003D81223031052CF48C819D81009761F0EE
:100990001EC02C813D812230310581F08C819D81EA
:1009A0008330910581F013C0EBE3F0E08A8180830E
:1009B0000EC0E8E3F0E08A81808309C0E5E3F0E05F
:1009C0008A81808304C0E2E3F0E08A8180831B8215
:1009D00002C091E09B838B810F900F900F900F903E
:1009E0000F90CF91DF910895DF93CF93CDB7DEB70E
:1009F00028970FB6F894DEBF0FBECDBF89836A83F8
:100A00004B838981843008F0F4C08A81883008F0F3
:100A1000F0C08B81813009F070C08981282F30E0CF
:100A200038872F838F8198858130910549F12F81F7
:100A30003885223031052CF48F819885009761F03C
:100A40005AC02F8138852230310571F18F81988508
:100A500083309105E9F14FC0ABE3B0E0EBE3F0E0A8
:100A60008081482F8A81282F30E081E090E0022E9B
:100A700002C0880F991F0A94E2F7842B8C933BC025
:100A8000A8E3B0E0E8E3F0E08081482F8A81282FD6
:100A900030E081E090E0022E02C0880F991F0A9496
:100AA000E2F7842B8C9327C0A5E3B0E0E5E3F0E008
:100AB0008081482F8A81282F30E081E090E0022E4B
:100AC00002C0880F991F0A94E2F7842B8C9313C0FD
:100AD000A2E3B0E0E2E3F0E08081482F8A81282F92
:100AE00030E081E090E0022E02C0880F991F0A9446
:100AF000E2F7842B8C931E827EC08B81882309F0C1
:100B000075C08981282F30E03D832C838C819D81A5
:100B10008130910559F12C813D81223031052CF431
:100B20008C819D81009769F05FC02C813D812230CE
:100B3000310589F18C819D818330910509F440C094
:100B400053C0ABE3B0E0EBE3F0E08081482F8A8153
:100B5000282F30E081E090E0022E02C0880F991F1C
:100B60000A94E2F7809584238C933EC0A8E3B0E01A
:100B7000E8E3F0E08081482F8A81282F30E081E08F
:100B800090E0022E02C0880F991F0A94E2F7809528
:100B900084238C9329C0A5E3B0E0E5E3F0E08081F5
:100BA000482F8A81282F30E081E090E0022E02C099
:100BB000880F991F0A94E2F7809584238C9314C0C0
:100BC000A2E3B0E0E2E3F0E08081482F8A81282FA1
:100BD00030E081E090E0022E02C0880F991F0A9455
:100BE000E2F7809584238C931E8205C092E09E8359
:100BF00002C021E02E838E8128960FB6F894DEBFC6
:100C00000FBECDBFCF91DF910895DF93CF9300D07A
:100C100000D000D0CDB7DEB789837B836A8389811A
:100C20008430E0F58981282F30E03E832D838D814B
:100C30009E8181309105E1F02D813E812230310588
:100C40002CF48D819E81009761F026C02D813E811C
:100C500022303105A1F08D819E8183309105B1F064
:100C60001BC0E9E3F0E08081EA81FB81808314C04E
:100C7000E6E3F0E08081EA81FB8180830DC0E3E35D
:100C8000F0E08081EA81FB81808306C0E0E3F0E050
:100C90008081EA81FB8180831C8202C091E09C8379
:100CA0008C8126960FB6F894DEBF0FBECDBFCF91D4
:100CB000DF910895DF93CF93CDB7DEB727970FB6B7
:100CC000F894DEBF0FBECDBF89836A835C834B83FC
:100CD0008981843008F076C08A81883008F072C03B
:100CE0008981282F30E03F832E834E815F81413000
:100CF000510559F18E819F818230910534F42E8106
:100D00003F812115310569F05BC04E815F81423022
:100D1000510579F18E819F818330910509F43DC0A1
:100D20004FC0E9E3F0E08081282F30E08A81882FEE
:100D300090E0A90102C0559547958A95E2F7CA014E
:100D40008170EB81FC8180833BC0E6E3F0E0808131
:100D5000282F30E08A81882F90E0A90102C05595A4
:100D600047958A95E2F7CA018170EB81FC81808307
:100D700027C0E3E3F0E08081282F30E08A81882FCC
:100D800090E0A90102C0559547958A95E2F7CA01FE
:100D90008170EB81FC81808313C0E0E3F0E080810F
:100DA000282F30E08A81882F90E0A90102C0559554
:100DB00047958A95E2F7CA018170EB81FC818083B7
:100DC0001D8202C051E05D838D8127960FB6F89495
:100DD000DEBF0FBECDBFCF91DF910895DF93CF93DC
:100DE00000D000D00F92CDB7DEB789836A838981A6
:100DF000843008F074C08A81883008F070C089811E
:100E0000282F30E03D832C838C819D81813091059A
:100E100049F12C813D81223031052CF48C819D815A
:100E2000009761F05AC02C813D812230310571F16B
:100E30008C819D8183309105E9F14FC0ABE3B0E037
:100E4000EBE3F0E08081482F8A81282F30E081E0B9
:100E500090E0022E02C0880F991F0A94E2F78427BF
:100E60008C933BC0A8E3B0E0E8E3F0E08081482F3A
:100E70008A81282F30E081E090E0022E02C0880FA6
:100E8000991F0A94E2F784278C9327C0A5E3B0E06A
:100E9000E5E3F0E08081482F8A81282F30E081E06F
:100EA00090E0022E02C0880F991F0A94E2F784276F
:100EB0008C9313C0A2E3B0E0E2E3F0E08081482F1E
:100EC0008A81282F30E081E090E0022E02C0880F56
:100ED000991F0A94E2F784278C931B8202C091E049
:100EE0009B838B810F900F900F900F900F90CF915D
:100EF000DF910895DF93CF9300D000D00F92CDB74C
:100F0000DEB789836A838981843008F0D1C08A8101
:100F1000883008F0CDC08981282F30E03D832C83B4
:100F20004C815D814130510509F442C08C819D8125
:100F30008230910534F42C813D812115310571F009
:100F4000B5C04C815D814230510509F45BC08C8194
:100F50009D818330910509F47FC0A8C0EAE3F0E0E9
:100F60008081282F30E08A81882F90E0A90102C07B
:100F7000559547958A95E2F7CA0181709070009760
:100F8000A1F4ABE3B0E0EBE3F0E08081482F8A818D
:100F9000282F30E081E090E0022E02C0880F991FD8
:100FA0000A94E2F7842B8C9381C053E05B8382C068
:100FB000E7E3F0E08081282F30E08A81882F90E0FD
:100FC000A90102C0559547958A95E2F7CA0181703B
:100FD00090700097A1F4A8E3B0E0E8E3F0E080812E
:100FE000482F8A81282F30E081E090E0022E02C055
:100FF000880F991F0A94E2F7842B8C9357C053E013
:101000005B8358C0E4E3F0E08081282F30E08A81E0
:10101000882F90E0A90102C0559547958A95E2F77F
:10102000CA01817090700097A1F4A5E3B0E0E5E3F8
:10103000F0E08081482F8A81282F30E081E090E025
:10104000022E02C0880F991F0A94E2F7842B8C931A
:101050002DC053E05B832EC0E1E3F0E08081282FB8
:1010600030E08A81882F90E0A90102C0559547950C
:101070008A95E2F7CA01817090700097A1F4A2E30B
:10108000B0E0E2E3F0E08081482F8A81282F30E051
:1010900081E090E0022E02C0880F991F0A94E2F7C7
:1010A000842B8C9303C053E05B8304C01B8202C07B
:1010B00081E08B838B810F900F900F900F900F909A
:1010C000CF91DF910895DF93CF93CDB7DEB780E066
:1010D00060E041E00E94980380E061E041E00E940E
:1010E000980380E062E041E00E94980380E0CF91A5
:1010F000DF910895DF93CF9300D00F92CDB7DEB785
:1011000089838981282F30E03B832A838A819B81D0
:101110008230910581F02A813B812330310589F0AD
:101120008A819B818130910589F480E060E041E013
:101130000E94F4040BC080E061E041E00E94F404EE
:1011400005C080E062E041E00E94F40480E00F907E
:101150000F900F90CF91DF910895DF93CF9300D040
:101160000F92CDB7DEB789838981282F30E03B838A
:101170002A838A819B818230910581F02A813B817B
:101180002330310589F08A819B818130910589F472
:1011900080E060E040E00E94F4040BC080E061E089
:1011A00040E00E94F40405C080E062E040E00E945C
:1011B000F40480E00F900F900F90CF91DF9108958D
:1011C000DF93CF9300D00F92CDB7DEB789838981AB
:1011D000282F30E03B832A838A819B8182309105CE
:1011E00079F02A813B812330310579F08A819B8116
:1011F0008130910571F480E060E00E94EE0609C044
:1012000080E061E00E94EE0604C080E062E00E949F
:10121000EE0680E00F900F900F90CF91DF91089530
:10122000DF93CF9300D000D00F92CDB7DEB7898384
:101230007B836A838981282F30E03D832C838C81D6
:101240009D818230910591F02C813D8123303105C3
:10125000A9F08C819D8181309105B9F42A813B816F
:1012600080E060E0A9010E945A060FC02A813B81FC
:1012700080E061E0A9010E945A0607C02A813B81F3
:1012800080E062E0A9010E945A0680E00F900F9072
:101290000F900F900F90CF91DF910895DF93CF9330
:1012A000CDB7DEB780E00E943E0080E00E94DD0105
:1012B000CF91DF910895DF93CF93CDB7DEB726E6C8
:1012C00030E080E0B9010E94F10026E630E080E0E5
:1012D000B90140E00E944202F2CFDF93CF93CDB735
:1012E000DEB70E944E090E945B09FDCFF894FFCF44
:00000001FF
