:100000000C942A000C946A070C947A070C9447000D
:100010000C9447000C9447000C9447000C94470044
:100020000C9447000C9447000C9447000C94470034
:100030000C9447000C9447000C9447000C94470024
:100040000C94440D0C9447000C9447000C94B0039E
:100050000C94470011241FBECFE5D4E0DEBFCDBF16
:1000600010E0A0E6B0E0E0E3F8E202C005900D92F7
:10007000AE3DB107D9F710E0AEEDB0E001C01D9282
:10008000A53FB107E1F70E94B8130C9416140C9425
:100090000000DF93CF930F92CDB7DEB78983AAE23A
:1000A000B0E0EAE2F0E0808180618C93AAE2B0E007
:1000B000EAE2F0E0808188608C93ABE2B0E0EBE2B2
:1000C000F0E080818D7F8C93AAE2B0E0EAE2F0E07C
:1000D00080818B7F8C93A0E4B0E0E0E4F0E080814D
:1000E00086688C93E9E2F0E083E3808380E00F9000
:1000F000CF91DF910895DF93CF9300D0CDB7DEB7D6
:1001000089836A83ECE2F0E08A818083EBE2F0E0AD
:100110008081829586958770882F90E0817090709D
:100120000097A1F380E00F900F90CF91DF91089599
:10013000DF93CF9300D000D0CDB7DEB78A837C8326
:100140006B8319821BC0ACE2B0E08981282F30E0BC
:100150008B819C81FC01E20FF31F80818C93EBE289
:10016000F0E08081829586958770882F90E081707D
:1001700090700097A1F389818F5F89838981282FEF
:1001800030E08B819C81FC01E20FF31F808188238A
:10019000D1F6ECE2F0E08DE08083EBE2F0E08081EC
:1001A000829586958770882F90E081709070009777
:1001B000A1F380E00F900F900F900F90CF91DF91FF
:1001C0000895DF93CF9300D00F92CDB7DEB7898328
:1001D0007B836A83EBE2F0E080818823DCF7ECE24A
:1001E000F0E08081EA81FB81808380E00F900F90B6
:1001F0000F90CF91DF910895DF93CF9300D000D07F
:10020000CDB7DEB78A837C836B831982EBE2F0E0A3
:1002100080818823DCF78981282F30E08B819C81C5
:10022000DC01A20FB31FECE2F0E080818C938981A6
:10023000282F30E08B819C81FC01E20FF31F80812D
:100240008D3089F48981282F30E08B819C81FC01DD
:10025000E20FF31F108280E00F900F900F900F902D
:10026000CF91DF91089589818F5F89838981882F5C
:1002700090E09C01215030408B819C81FC01E20F79
:10028000F31F8081883039F48981823020F08981A0
:1002900082508983BBCF8981882F90E09C012150B7
:1002A00030408B819C81FC01E20FF31F80818830FC
:1002B00009F0ACCF8981823008F0A8CF1982A6CF8F
:1002C000DF93CF9300D000D0CDB7DEB789836A83A8
:1002D0008981882F90E0009751F58A81282F30E09E
:1002E0003C832B838B819C818130910589F02B810C
:1002F0003C8122303105A1F08B819C810097B9F4BB
:10030000AAE2B0E0EAE2F0E0808180688C930FC05E
:10031000AAE2B0E0EAE2F0E0808180648C9307C05A
:10032000AAE2B0E0EAE2F0E0808180628C9380E0B3
:100330000F900F900F900F90CF91DF910895DF9362
:10034000CF9300D000D0CDB7DEB789836A8389818F
:10035000882F90E0009751F58A81282F30E03C8368
:100360002B838B819C818130910589F02B813C818D
:1003700022303105A1F08B819C810097B9F4AAE26B
:10038000B0E0EAE2F0E080818F778C930FC0AAE2C0
:10039000B0E0EAE2F0E080818F7B8C9307C0AAE2B4
:1003A000B0E0EAE2F0E080818F7D8C9380E00F90F6
:1003B0000F900F900F90CF91DF910895DF93CF931F
:1003C0000F92CDB7DEB78983E2E2F0E080E380836D
:1003D00080E00F90CF91DF910895DF93CF930F923C
:1003E000CDB7DEB7898389810E94DE01E0E2F0E0CB
:1003F0008EE18083A1E2B0E0E1E2F0E080818C7FD9
:100400008C93A6E5B0E0E6E5F0E0808180648C9313
:10041000A6E5B0E0E6E5F0E0808184608C9380E0C2
:100420000F90CF91DF910895DF93CF9300D00F927B
:10043000CDB7DEB78A831982E6E5F0E084EA8083EF
:10044000E6E5F0E08081881F8827881F8130C1F7AA
:10045000E1E2F0E08081887F89838981883011F42E
:100460001B8202C081E08B838B810F900F900F90D5
:10047000CF91DF910895DF93CF930F92CDB7DEB781
:100480008983E6E5F0E084E9808380E00F90CF91F6
:10049000DF910895DF93CF9300D000D0CDB7DEB7C2
:1004A0008A836B831982E3E2F0E08B81880F80837B
:1004B000E6E5F0E084E88083E6E5F0E080818823EB
:1004C000DCF7E1E2F0E08081887F898389818831EF
:1004D00011F41C8208C08981803219F482E08C8377
:1004E00002C083E08C838C810F900F900F900F904F
:1004F000CF91DF910895DF93CF9300D000D0CDB797
:10050000DEB78A836B831982E3E2F0E08B81882F68
:1005100090E0880F991F81608083E6E5F0E084E831
:100520008083E6E5F0E080818823DCF7E1E2F0E01B
:100530008081887F89838981803411F41C8208C07E
:100540008981883419F482E08C8302C083E08C8333
:100550008C810F900F900F900F90CF91DF910895A5
:10056000DF93CF9300D000D0CDB7DEB78A836B8303
:100570001982E3E2F0E08B818083E6E5F0E084E835
:100580008083E6E5F0E080818823DCF7E1E2F0E0BB
:100590008081887F89838981883211F41C8208C018
:1005A0008981803319F486E08C8302C087E08C83D4
:1005B0008C810F900F900F900F90CF91DF91089545
:1005C000DF93CF9300D00F92CDB7DEB789836A83D4
:1005D0004B8389810E94140289816A810E944A02A8
:1005E00089816B810E94B00289810E943B0280E078
:1005F0000F900F900F90CF91DF910895DF93CF93DD
:1006000000D000D00F92CDB7DEB78A837C836B8396
:100610001982A6E5B0E0E6E5F0E0808180648C9385
:10062000A6E5B0E0E6E5F0E0808180688C93E6E541
:10063000F0E080818823DCF7E3E2F0E08081EB8169
:10064000FC818083E1E2F0E08081887F8983898179
:10065000803511F41D8208C08981883519F486E03F
:100660008D8302C087E08D838D810F900F900F9056
:100670000F900F90CF91DF910895DF93CF9300D02B
:1006800000D0CDB7DEB789836A835C834B838981D1
:100690000E94140289816A810E947B022B813C8125
:1006A0008981B9010E94FE0289810E943B0280E09B
:1006B0000F900F900F900F90CF91DF910895DF93DF
:1006C000CF930F92CDB7DEB78983A6E5B0E0E6E51C
:1006D000F0E0808181608C9380E00F90CF91DF917A
:1006E0000895DF93CF930F92CDB7DEB78983A6E548
:1006F000B0E0E6E5F0E080818E7F8C9380E00F90A3
:10070000CF91DF910895DF93CF9300D00F92CDB7B3
:10071000DEB789837B836A83E3E2F0E080818170C6
:10072000EA81FB81808380E00F900F900F90CF9142
:10073000DF910895DF93CF9300D00F92CDB7DEB74E
:1007400089837B836A838A819B819093F200809363
:10075000F10080E00F900F900F90CF91DF910895FE
:100760001F920F920FB60F9211242F933F934F9326
:100770005F936F937F938F939F93AF93BF93EF9309
:10078000FF93DF93CF93CDB7DEB7E091F100F09107
:10079000F2000995CF91DF91FF91EF91BF91AF9159
:1007A0009F918F917F916F915F914F913F912F9189
:1007B0000F900FBE0F901F901895DF93CF93CDB77A
:1007C000DEB728970FB6F894DEBF0FBECDBF8F837C
:1007D0008F81882F90E00097D1F486E590E09E838A
:1007E0008D8381E290E09C838B8380E290E09A830A
:1007F0008983EB81FC8183E08083E981FA8187E052
:100800008083ED81FE8184E08083188602C082E0CF
:100810008887888528960FB6F894DEBF0FBECDBFB7
:10082000CF91DF910895DF93CF9300D000D00F9246
:10083000CDB7DEB78B836C838B81882F90E00097D8
:1008400051F482E290E09A838983E981FA818C8174
:1008500080831D8202C082E08D838D810F900F9076
:100860000F900F900F90CF91DF910895DF93CF936A
:1008700000D000D0CDB7DEB78B838B81882F90E07E
:10088000009749F486E590E09A838983E981FA81AB
:1008900084EA808303C082E08C8306C0E981FA8108
:1008A00080818823DCF71C828C810F900F900F9041
:1008B0000F90CF91DF910895DF93CF9300D000D0B8
:1008C000CDB7DEB78B838B81882F90E0009781F4C2
:1008D00086E590E09A838983E981FA8184E08083C8
:1008E000E981FA818081806AE981FA81808303C08D
:1008F00082E08C8306C0E981FA8180818823DCF75D
:100900001C828C810F900F900F900F90CF91DF91F0
:100910000895DF93CF93CDB7DEB727970FB6F8943E
:10092000DEBF0FBECDBF8D836E838D81882F90E09B
:100930000097A1F483E290E09A83898386E590E0B2
:100940009C838B83E981FA818E818083EB81FC819A
:1009500080818468EB81FC81808303C082E08F8387
:1009600006C0EB81FC8180818823DCF71F828F81A8
:1009700027960FB6F894DEBF0FBECDBFCF91DF91A3
:100980000895DF93CF93CDB7DEB728970FB6F894CD
:10099000DEBF0FBECDBF8D837F836E838D81882F99
:1009A00090E0009781F483E290E09A83898386E562
:1009B00090E09C838B83EB81FC818081846CEB8154
:1009C000FC81808303C082E088870CC0EB81FC81BE
:1009D00080818823DCF7E981FA818081EE81FF81C3
:1009E00080831886888528960FB6F894DEBF0FBEE0
:1009F000CDBFCF91DF910895DF93CF93CDB7DEB711
:100A000028970FB6F894DEBF0FBECDBF8D837F83CE
:100A10006E838D81882F90E0009781F483E290E0CF
:100A20009A83898386E590E09C838B83EB81FC81AC
:100A300080818468EB81FC81808303C082E08887A9
:100A40000CC0EB81FC8180818823DCF7E981FA818D
:100A50008081EE81FF8180831886888528960FB675
:100A6000F894DEBF0FBECDBFCF91DF910895DF9325
:100A7000CF9300D000D0CDB7DEB78B838B81882F8A
:100A800090E0009749F486E590E09A838983E981B4
:100A9000FA8184E9808303C082E08C830AC0E98103
:100AA000FA818081882F90E0807190700097B9F76B
:100AB0001C828C810F900F900F900F90CF91DF913F
:100AC0000895DF93CF9300D000D000D0CDB7DEB72C
:100AD0008B837D836C838B81882F90E0009769F4F2
:100AE00081E290E09A838983E981FA818081887F1D
:100AF000EC81FD8180831E8202C082E08E838E8124
:100B000026960FB6F894DEBF0FBECDBFCF91DF9112
:100B10000895DF93CF9300D000D0CDB7DEB78B839D
:100B20008B81882F90E0009769F486E590E09A83A6
:100B30008983E981FA8180818160E981FA818083FA
:100B40001C8202C082E08C838C810F900F900F90EA
:100B50000F90CF91DF910895DF93CF9300D000D015
:100B6000CDB7DEB78B838B81882F90E0009769F437
:100B700086E590E09A838983E981FA8180818E7F7E
:100B8000E981FA8180831C8202C082E08C838C819F
:100B90000F900F900F900F90CF91DF910895DF93FA
:100BA000CF9300D000D00F92CDB7DEB78A837C837D
:100BB0006B838A81882F90E0009779F4198289816C
:100BC000882F90E0880F991FFC01E252FF4F8B8124
:100BD0009C81918380831D8202C082E08D838D8100
:100BE0000F900F900F900F900F90CF91DF9108957D
:100BF000DF93CF93CDB7DEB7AFE5B0E0EFE5F0E040
:100C0000808180688C93CF91DF910895DF93CF939B
:100C1000CDB7DEB7AFE5B0E0EFE5F0E080818F77EC
:100C20008C93CF91DF910895DF93CF9300D00F92F3
:100C3000CDB7DEB789838981833050F58981282F2C
:100C400030E03B832A838A819B818130910589F042
:100C50002A813B8122303105A1F08A819B81009756
:100C6000B9F4ABE5B0E0EBE5F0E080818F7B8C93ED
:100C70000FC0ABE5B0E0EBE5F0E080818F778C93BF
:100C800007C0ABE5B0E0EBE5F0E080818F7D8C93B1
:100C90000F900F900F90CF91DF910895DF93CF9336
:100CA000CDB7DEB72A970FB6F894DEBF0FBECDBF23
:100CB00089836A838981833008F003C18A81843003
:100CC00008F0FFC08981282F30E03A87298789857D
:100CD0009A858130910509F46DC029853A852230C5
:100CE000310509F4C9C089859A85009709F0E9C0E2
:100CF000ABE5B0E0EBE5F0E0808180648C938A8125
:100D0000282F30E038872F838F8198858130910597
:100D100021F12F813885223031052CF48F8198857F
:100D2000009761F0CEC02F8138852230310521F146
:100D30008F8198858330910571F1C3C0A5E5B0E03E
:100D4000E5E5F0E080818E7F8C93A5E5B0E0E5E5F8
:100D5000F0E0808182608C93B4C0A5E5B0E0E5E569
:100D6000F0E0808181608C93A5E5B0E0E5E5F0E0FE
:100D7000808182608C93A5C0A5E5B0E0E5E5F0E058
:100D800080818E7F8C93A5E5B0E0E5E5F0E0808181
:100D90008D7F8C9396C0A5E5B0E0E5E5F0E080811D
:100DA00081608C93A5E5B0E0E5E5F0E080818D7F82
:100DB0008C9387C0ABE5B0E0EBE5F0E08081806824
:100DC0008C938A81282F30E03E832D838D819E81F4
:100DD0008130910521F12D813E81223031052CF4A5
:100DE0008D819E81009761F06CC02D813E81223003
:100DF000310521F18D819E818330910571F161C0B2
:100E0000A5E5B0E0E5E5F0E080818B7F8C93A5E57A
:100E1000B0E0E5E5F0E0808188608C9352C0A5E504
:100E2000B0E0E5E5F0E0808184608C93A5E5B0E07A
:100E3000E5E5F0E0808188608C9343C0A5E5B0E0F3
:100E4000E5E5F0E080818B7F8C93A5E5B0E0E5E5FA
:100E5000F0E08081877F8C9334C0A5E5B0E0E5E5C4
:100E6000F0E0808184608C93A5E5B0E0E5E5F0E0FA
:100E70008081877F8C9325C0ABE5B0E0EBE5F0E0A7
:100E8000808180628C938A81282F30E03C832B8381
:100E90008B819C81009731F02B813C812130310581
:100EA00049F00FC0A4E5B0E0E4E5F0E080818F7B7D
:100EB0008C9307C0A4E5B0E0E4E5F0E080818064B5
:100EC0008C932A960FB6F894DEBF0FBECDBFCF919C
:100ED000DF9108951F920F920FB60F921124DF93A6
:100EE000CF93CDB7DEB7CF91DF910F900FBE0F90AC
:100EF0001F9018951F920F920FB60F921124DF9337
:100F0000CF93CDB7DEB7CF91DF910F900FBE0F908B
:100F10001F901895DF93CF9300D000D00F92CDB7DC
:100F2000DEB789836A8389818430A0F58981282F7F
:100F300030E03D832C838C819D8181309105D1F0FF
:100F40002C813D81223031052CF48C819D810097CC
:100F500061F01EC02C813D812230310581F08C81F1
:100F60009D818330910581F013C0EAE3F0E08A812E
:100F700080830EC0E7E3F0E08A81808309C0E4E368
:100F8000F0E08A81808304C0E1E3F0E08A8180831D
:100F90001B8202C091E09B838B810F900F900F907A
:100FA0000F900F90CF91DF910895DF93CF93CDB73E
:100FB000DEB728970FB6F894DEBF0FBECDBF89838A
:100FC0006A834B838981843008F0F4C08A81883039
:100FD00008F0F0C08B81813009F070C08981282F22
:100FE00030E038872F838F8198858130910549F1D2
:100FF0002F813885223031052CF48F819885009718
:1010000061F05AC02F8138852230310571F18F810E
:10101000988583309105E9F14FC0AAE3B0E0EAE397
:10102000F0E08081482F8A81282F30E081E090E035
:10103000022E02C0880F991F0A94E2F7842B8C932A
:101040003BC0A7E3B0E0E7E3F0E08081482F8A816E
:10105000282F30E081E090E0022E02C0880F991F17
:101060000A94E2F7842B8C9327C0A4E3B0E0E4E376
:10107000F0E08081482F8A81282F30E081E090E0E5
:10108000022E02C0880F991F0A94E2F7842B8C93DA
:1010900013C0A1E3B0E0E1E3F0E08081482F8A8152
:1010A000282F30E081E090E0022E02C0880F991FC7
:1010B0000A94E2F7842B8C931E827EC08B81882356
:1010C00009F075C08981282F30E03D832C838C8105
:1010D0009D818130910559F12C813D81223031056E
:1010E0002CF48C819D81009769F05FC02C813D813B
:1010F0002230310589F18C819D818330910509F47D
:1011000040C053C0AAE3B0E0EAE3F0E08081482F9A
:101110008A81282F30E081E090E0022E02C0880F03
:10112000991F0A94E2F7809584238C933EC0A7E32D
:10113000B0E0E7E3F0E08081482F8A81282F30E09B
:1011400081E090E0022E02C0880F991F0A94E2F716
:10115000809584238C9329C0A4E3B0E0E4E3F0E01D
:101160008081482F8A81282F30E081E090E0022E94
:1011700002C0880F991F0A94E2F7809584238C930C
:1011800014C0A1E3B0E0E1E3F0E08081482F8A8160
:10119000282F30E081E090E0022E02C0880F991FD6
:1011A0000A94E2F7809584238C931E8205C092E016
:1011B0009E8302C021E02E838E8128960FB6F8947C
:1011C000DEBF0FBECDBFCF91DF910895DF93CF93E8
:1011D00000D000D00F92CDB7DEB789836A838981B2
:1011E0008430A0F58981282F30E03D832C838C81C9
:1011F0009D8181309105D1F02C813D8122303105D6
:101200002CF48C819D81009761F01EC02C813D8162
:101210002230310581F08C819D818330910581F0F0
:1012200013C0EBE3F0E08A8180830EC0E8E3F0E0D6
:101230008A81808309C0E5E3F0E08A81808304C06D
:10124000E2E3F0E08A8180831B8202C091E09B830D
:101250008B810F900F900F900F900F90CF91DF9197
:101260000895DF93CF93CDB7DEB728970FB6F894E4
:10127000DEBF0FBECDBF89836A834B8389818430F3
:1012800008F0F4C08A81883008F0F0C08B8181308A
:1012900009F070C08981282F30E038872F838F8133
:1012A00098858130910549F12F81388522303105AB
:1012B0002CF48F819885009761F05AC02F81388572
:1012C0002230310571F18F81988583309105E9F1E4
:1012D0004FC0ABE3B0E0EBE3F0E08081482F8A81C0
:1012E000282F30E081E090E0022E02C0880F991F85
:1012F0000A94E2F7842B8C933BC0A8E3B0E0E8E3C8
:10130000F0E08081482F8A81282F30E081E090E052
:10131000022E02C0880F991F0A94E2F7842B8C9347
:1013200027C0A5E3B0E0E5E3F0E08081482F8A81A3
:10133000282F30E081E090E0022E02C0880F991F34
:101340000A94E2F7842B8C9313C0A2E3B0E0E2E3AB
:10135000F0E08081482F8A81282F30E081E090E002
:10136000022E02C0880F991F0A94E2F7842B8C93F7
:101370001E827EC08B81882309F075C08981282F49
:1013800030E03D832C838C819D818130910559F122
:101390002C813D81223031052CF48C819D81009778
:1013A00069F05FC02C813D812230310589F18C814B
:1013B0009D818330910509F440C053C0ABE3B0E098
:1013C000EBE3F0E08081482F8A81282F30E081E034
:1013D00090E0022E02C0880F991F0A94E2F78095D0
:1013E00084238C933EC0A8E3B0E0E8E3F0E0808182
:1013F000482F8A81282F30E081E090E0022E02C041
:10140000880F991F0A94E2F7809584238C9329C052
:10141000A5E3B0E0E5E3F0E08081482F8A81282F42
:1014200030E081E090E0022E02C0880F991F0A94FC
:10143000E2F7809584238C9314C0A2E3B0E0E2E34A
:10144000F0E08081482F8A81282F30E081E090E011
:10145000022E02C0880F991F0A94E2F78095842318
:101460008C931E8205C092E09E8302C021E02E83F1
:101470008E8128960FB6F894DEBF0FBECDBFCF91F8
:10148000DF910895DF93CF9300D000D000D0CDB787
:10149000DEB789837B836A8389818430E0F5898123
:1014A000282F30E03E832D838D819E8181309105F0
:1014B000E1F02D813E81223031052CF48D819E8119
:1014C000009761F026C02D813E8122303105A1F0C8
:1014D0008D819E8183309105B1F01BC0E9E3F0E07E
:1014E0008081EA81FB81808314C0E6E3F0E08081A3
:1014F000EA81FB8180830DC0E3E3F0E08081EA8133
:10150000FB81808306C0E0E3F0E08081EA81FB811B
:1015100080831C8202C091E09C838C8126960FB64A
:10152000F894DEBF0FBECDBFCF91DF910895DF935A
:10153000CF93CDB7DEB727970FB6F894DEBF0FBEB7
:10154000CDBF89836A835C834B838981843008F0B3
:1015500076C08A81883008F072C08981282F30E0F7
:101560003F832E834E815F814130510559F18E8139
:101570009F818230910534F42E813F812115310500
:1015800069F05BC04E815F814230510579F18E81F7
:101590009F818330910509F43DC04FC0E9E3F0E03D
:1015A0008081282F30E08A81882F90E0A90102C035
:1015B000559547958A95E2F7CA018170EB81FC81C8
:1015C00080833BC0E6E3F0E08081282F30E08A8111
:1015D000882F90E0A90102C0559547958A95E2F7BA
:1015E000CA018170EB81FC81808327C0E3E3F0E0D6
:1015F0008081282F30E08A81882F90E0A90102C0E5
:10160000559547958A95E2F7CA018170EB81FC8177
:10161000808313C0E0E3F0E08081282F30E08A81EE
:10162000882F90E0A90102C0559547958A95E2F769
:10163000CA018170EB81FC8180831D8202C051E070
:101640005D838D8127960FB6F894DEBF0FBECDBFA8
:10165000CF91DF910895DF93CF9300D000D00F9208
:10166000CDB7DEB789836A838981843008F074C07E
:101670008A81883008F070C08981282F30E03D834E
:101680002C838C819D818130910549F12C813D8194
:10169000223031052CF48C819D81009761F05AC075
:1016A0002C813D812230310571F18C819D81833007
:1016B0009105E9F14FC0ABE3B0E0EBE3F0E08081EE
:1016C000482F8A81282F30E081E090E0022E02C06E
:1016D000880F991F0A94E2F784278C933BC0A8E3F4
:1016E000B0E0E8E3F0E08081482F8A81282F30E0E5
:1016F00081E090E0022E02C0880F991F0A94E2F761
:1017000084278C9327C0A5E3B0E0E5E3F0E0808177
:10171000482F8A81282F30E081E090E0022E02C01D
:10172000880F991F0A94E2F784278C9313C0A2E3D1
:10173000B0E0E2E3F0E08081482F8A81282F30E09A
:1017400081E090E0022E02C0880F991F0A94E2F710
:1017500084278C931B8202C091E09B838B810F9026
:101760000F900F900F900F90CF91DF910895DF931E
:10177000CF9300D000D00F92CDB7DEB789836A83B4
:101780008981843008F0D1C08A81883008F0CDC0CA
:101790008981282F30E03D832C834C815D8141304D
:1017A000510509F442C08C819D818230910534F449
:1017B0002C813D812115310571F0B5C04C815D81D1
:1017C0004230510509F45BC08C819D8183309105C5
:1017D00009F47FC0A8C0EAE3F0E08081282F30E060
:1017E0008A81882F90E0A90102C0559547958A9576
:1017F000E2F7CA01817090700097A1F4ABE3B0E00A
:10180000EBE3F0E08081482F8A81282F30E081E0EF
:1018100090E0022E02C0880F991F0A94E2F7842BF1
:101820008C9381C053E05B8382C0E7E3F0E080816A
:10183000282F30E08A81882F90E0A90102C05595B9
:1018400047958A95E2F7CA01817090700097A1F4DC
:10185000A8E3B0E0E8E3F0E08081482F8A81282FF8
:1018600030E081E090E0022E02C0880F991F0A94B8
:10187000E2F7842B8C9357C053E05B8358C0E4E3BA
:10188000F0E08081282F30E08A81882F90E0A90144
:1018900002C0559547958A95E2F7CA01817090700C
:1018A0000097A1F4A5E3B0E0E5E3F0E08081482FE4
:1018B0008A81282F30E081E090E0022E02C0880F5C
:1018C000991F0A94E2F7842B8C932DC053E05B831D
:1018D0002EC0E1E3F0E08081282F30E08A81882F5C
:1018E00090E0A90102C0559547958A95E2F7CA0193
:1018F000817090700097A1F4A2E3B0E0E2E3F0E021
:101900008081482F8A81282F30E081E090E0022EEC
:1019100002C0880F991F0A94E2F7842B8C9303C0AE
:1019200053E05B8304C01B8202C081E08B838B8108
:101930000F900F900F900F900F90CF91DF9108951F
:10194000DF93CF930F92CDB7DEB78983A6E2B0E0E5
:10195000E6E2F0E0808180688C93A6E2B0E0E6E207
:10196000F0E0808181608C93A7E2B0E0E7E2F0E0F4
:1019700080818C93A7E2B0E0E7E2F0E080818C9375
:10198000A6E2B0E0E6E2F0E080818F7D8C9380E01B
:101990000F90CF91DF910895DF93CF930F92CDB742
:1019A000DEB78983A7E2B0E0E7E2F0E090818981C9
:1019B000892B8C93A6E2B0E0E6E2F0E080818064BF
:1019C0008C9380E00F90CF91DF910895DF93CF93B8
:1019D00000D00F92CDB7DEB789837B836A8389817C
:1019E0000E94CC0CE6E2F0E0808182958F70882F17
:1019F00090E0817090700097A9F3A6E2B0E0E6E273
:101A0000F0E0808180618C93E4E2F0E0808191815C
:101A1000EA81FB819183808380E00F900F900F908B
:101A2000CF91DF910895DF93CF93CDB7DEB7A6E2D4
:101A3000B0E0E6E2F0E0808188608C9380E0CF91B6
:101A4000DF910895DF93CF93CDB7DEB7A6E2B0E084
:101A5000E6E2F0E08081877F8C9380E0CF91DF9198
:101A60000895DF93CF9300D0CDB7DEB79A838983F3
:101A700089819A819093F4008093F30080E00F9025
:101A80000F90CF91DF9108951F920F920FB60F9292
:101A900011242F933F934F935F936F937F938F9373
:101AA0009F93AF93BF93EF93FF93DF93CF93CDB704
:101AB000DEB7E091F300F091F4000995CF91DF914A
:101AC000FF91EF91BF91AF919F918F917F916F9116
:101AD0005F914F913F912F910F900FBE0F901F90EC
:101AE0001895DF93CF9300D00F92CDB7DEB78983DF
:101AF0008981282F30E03B832A838A819B81833030
:101B00009105A9F12A813B81243031057CF48A8139
:101B10009B818130910519F12A813B812230310569
:101B200014F58A819B810097B1F039C02A813B81ED
:101B30002530310521F18A819B8185309105DCF0CA
:101B40002A813B8126303105F1F08A819B818730E3
:101B50009105E9F024C080E00E94A00C20C081E043
:101B60000E94A00C1CC082E00E94A00C18C083E060
:101B70000E94A00C14C084E00E94A00C10C085E05C
:101B80000E94A00C0CC086E00E94A00C08C080E05F
:101B900067E040E00E94D50787E00E94A00C80E04B
:101BA0000F900F900F90CF91DF910895DF93CF9317
:101BB000CDB7DEB727970FB6F894DEBF0FBECDBF07
:101BC0008B837D836C831A8219828B81282F30E06E
:101BD0003F832E838E819F818330910509F467C0F6
:101BE0002E813F81243031058CF48E819F8181309C
:101BF000910509F44CC02E813F81223031050CF053
:101C00004EC08E819F810097D1F098C02E813F8178
:101C10002530310509F45BC08E819F8185309105A7
:101C20000CF44DC02E813F812630310509F457C098
:101C30008E819F818730910509F459C07FC080E073
:101C40009E012F5F3F4FB9010E94E60C89819A8166
:101C5000CC01A0E0B0E026E930E040E050E0BC017B
:101C6000CD010E94C113DC01CB012FEF33E040E036
:101C700050E0BC01CD010E94F413DA01C9019A833E
:101C8000898389819A81EC81FD81808357C081E0BD
:101C90009E012F5F3F4FB9010E94E60C4FC082E0CA
:101CA0009E012F5F3F4FB9010E94E60C47C083E0C1
:101CB0009E012F5F3F4FB9010E94E60C3FC084E0B8
:101CC0009E012F5F3F4FB9010E94E60C37C085E0AF
:101CD0009E012F5F3F4FB9010E94E60C2FC086E0A6
:101CE0009E012F5F3F4FB9010E94E60C27C087E09D
:101CF0009E012F5F3F4FB9010E94E60C89819A81B6
:101D0000CC01A0E0B0E026E930E040E050E0BC01CA
:101D1000CD010E94C113DC01CB012FEF33E040E085
:101D200050E0BC01CD010E94F413DA01C9019A838D
:101D3000898389819A81EC81FD81808380E0279667
:101D40000FB6F894DEBF0FBECDBFCF91DF910895DF
:101D5000DF93CF93CDB7DEB783E064E041E00E942C
:101D6000D50783E063E041E00E94D50783E062E0AD
:101D700041E00E94D507CF91DF910895DF93CF9383
:101D800000D000D0CDB7DEB789836A838981882FE0
:101D900090E0009741F583E064E041E00E94310962
:101DA0008A81282F30E03C832B838B819C81009794
:101DB00081F02B813C8121303105A9F483E062E080
:101DC00041E00E94310983E063E040E00E94310974
:101DD0000AC083E062E040E00E94310983E063E0F2
:101DE00041E00E9431090F900F900F900F90CF911A
:101DF000DF910895DF93CF930F92CDB7DEB789833C
:101E00008981882F90E0009779F483E064E040E0D6
:101E10000E94310983E062E040E00E94310983E0E2
:101E200063E040E00E9431090F90CF91DF91089567
:101E3000DF93CF9300D000D0CDB7DEB789836A831C
:101E40008981882F90E0009719F58A81282F30E04A
:101E50003C832B838B819C81009781F02B813C817B
:101E600021303105A9F483E062E041E00E943109AC
:101E700083E063E040E00E9431090AC083E062E051
:101E800040E00E94310983E063E041E00E943109B3
:101E90000F900F900F900F90CF91DF910895DF93E7
:101EA000CF930F92CDB7DEB7898382E060E040E048
:101EB0000E94310982E061E040E00E94310981E046
:101EC00069810E94E60882E062E041E00E943109F7
:101ED00082E062E040E00E94310980E00F90CF9103
:101EE000DF910895DF93CF930F92CDB7DEB789834B
:101EF00082E060E041E00E94310982E061E040E080
:101F00000E94310981E069810E94E60882E062E076
:101F100041E00E94310982E062E040E00E94310924
:101F200080E00F90CF91DF910895DF93CF9300D0A1
:101F300000D0CDB7DEB719821A821B821C8282E0E4
:101F400060E041E00E94D50782E061E041E00E944C
:101F5000D50782E062E041E00E94D50781E06FEFA3
:101F60000E948A0719821A821B821C820BC08981F7
:101F70009A81AB81BC810196A11DB11D89839A8391
:101F8000AB83BC8389819A81AB81BC8181342DE094
:101F9000920723E0A20720E0B20748F388E30E94FB
:101FA0004F0F19821A821B821C820BC089819A8171
:101FB000AB81BC810196A11DB11D89839A83AB833E
:101FC000BC8389819A81AB81BC8181342CE99207E1
:101FD00020E0A20720E0B20748F38CE00E944F0FF8
:101FE00019821A821B821C820BC089819A81AB8163
:101FF000BC810196A11DB11D89839A83AB83BC83EB
:1020000089819A81AB81BC8181342CE9920720E0DF
:10201000A20720E0B20748F381E00E944F0F198227
:102020001A821B821C820BC089819A81AB81BC8180
:102030000196A11DB11D89839A83AB83BC838981DD
:102040009A81AB81BC8181342CE9920720E0A20700
:1020500020E0B20748F386E00E944F0F19821A82EF
:102060001B821C820BC089819A81AB81BC81019645
:10207000A11DB11D89839A83AB83BC8389819A8119
:10208000AB81BC8181342CE9920720E0A20720E0DB
:10209000B20748F380E00F900F900F900F90CF9110
:1020A000DF910895DF93CF9300D00F92CDB7DEB7C5
:1020B0009A838983E981FA818081882391F00AC01B
:1020C000E981FA8180810E94720F89819A8101964B
:1020D0009A838983E981FA818081882389F71B8229
:1020E00002C082E08B838B810F900F900F90CF9175
:1020F000DF910895DF93CF93CDB7DEB72E970FB65C
:10210000F894DEBF0FBECDBF9D878C878C859D85E3
:10211000009729F480E30E94720F1E863EC0198248
:1021200020C08981E82FFF27E7FDF0958C859D85EC
:102130002AE030E0B9010E94E013282F205DCE0193
:102140000296E80FF91F20838C859D852AE030E0F8
:10215000B9010E94E013CB019D878C8789818F5F35
:1021600089838C859D850097E1F6898181508983DB
:1021700010C08981282F332727FD3095CE01029684
:10218000FC01E20FF31F80810E94720F8981815050
:102190008983898188236CF71E868E852E960FB6DB
:1021A000F894DEBF0FBECDBFCF91DF910895DF93CE
:1021B000CF93CDB7DEB782E00E944F0F80E0CF9182
:1021C000DF910895DF93CF93CDB7DEB781E00E9412
:1021D0004F0F80E0CF91DF910895DF93CF93CDB77C
:1021E000DEB780EC0E944F0F80E0CF91DF91089521
:1021F000DF93CF9300D000D0CDB7DEB789836A8359
:102200008981282F30E03C832B838B819C81009730
:1022100031F02B813C812130310531F009C08A81B8
:1022200080580E944F0F04C08A8180540E944F0F33
:1022300080E00F900F900F900F90CF91DF91089555
:10224000DF93CF93CDB7DEB780E06FE00E948A07BF
:1022500080E06FEF0E94E60880E0CF91DF91089563
:10226000DF93CF9300D000D000D0CDB7DEB79D83F1
:102270008C831A8255C080E06A8140E00E94310957
:10228000198242C08981982F9C5F9E012D5F3F4F2C
:1022900080E0692FA9010E94970A8B81813089F122
:1022A0008981982F9C5F9E012D5F3F4F80E0692FB1
:1022B000A9010E94970A0BC08981982F9C5F9E01FB
:1022C0002D5F3F4F80E0692FA9010E94970A8B8103
:1022D000813091F78A81282F30E08981482F50E0A2
:1022E000C901880F991F820F931F840F951FFC014E
:1022F000EE52FF4F8081EC81FD81808381E08E83EF
:1023000014C089818F5F89838981833008F4BACFB3
:1023100080E06A8141E00E9431098A818F5F8A836F
:102320008A81843008F4A7CF1E828E8126960FB64C
:10233000F894DEBF0FBECDBFCF91DF910895DF933C
:10234000CF9300D000D000D0CDB7DEB79E838D8371
:102350001A8219821C821B828D819E8123E030E0CB
:10236000B9010E94E013CB0101969E838D831A82EE
:10237000198213C01C821B8205C08B819C8101962F
:102380009C838B838B819C812AE08B369207A8F3F8
:1023900089819A8101969A83898329813A818D81E5
:1023A0009E818217930730F726960FB6F894DEBF0A
:1023B0000FBECDBFCF91DF910895DF93CF93CDB7FF
:1023C000DEB71092E50080E690E00E9452100E9475
:1023D000ED1080E790E00E94521004C085EE90E07E
:1023E0000E9430118091E5008823C1F31092E5002E
:1023F0000E94E210CF91DF910895DF93CF9300D038
:1024000000D0CDB7DEB79C838B831A8219821092DD
:10241000E50003C089818F5F89838981282F30E09F
:102420008B819C81FC01E20FF31F8081882391F74F
:10243000EB81FC818081882F90E0C0979093E3002E
:102440008093E2001A822EC08091E2009091E30016
:102450009C01220F331FC901880F991F880F991FF4
:10246000820F931F9093E3008093E2008A81882F6C
:1024700090E09C012F5F3F4F8B819C81FC01E20F1C
:10248000F31F8081282F30E08091E2009091E300DB
:10249000820F931FC0979093E3008093E2008A819C
:1024A0008F5F8A838A81282F30E08981882F90E08E
:1024B00001972817390744F20F900F900F900F9053
:1024C000CF91DF910895DF93CF930F92CDB7DEB711
:1024D0000E94E21081E090E00E949F1119820AC0E0
:1024E0008981882F90E0FC01EA51FF4F1082898199
:1024F0008F5F89838981843098F31092E500809101
:10250000EA00882F90E08A519F4F0E9430118093FB
:10251000E5008091E500882391F38091EA00882FFF
:1025200090E0FC01EA51FF4F80810E94720F81E030
:1025300090E00E949F118091EA00882F90E0FC01BA
:10254000EA51FF4F80818A3209F58091EA00882F95
:1025500090E0FC01EA51FF4F10821092EA000E94C5
:10256000E21081E090E00E949F1188E790E00E94D5
:10257000521081E090E00E949F1186EE90E00E9450
:10258000521086EE90E00E94FD1127C08091EA0073
:102590008F5F8093EA008091EA00843009F0AFCF2A
:1025A00081E090E00E949F110E94E21081E090E0A3
:1025B0000E949F1185E890E00E94521088EE93E0FF
:1025C0000E949F111092EA000E94E21081E090E0C8
:1025D0000E949F110E94DD1192CF8091EA00882F06
:1025E00090E08A519F4F0E9430118093E5008091C6
:1025F000E500882391F31092E5000E94E2100F900D
:10260000CF91DF910895DF93CF93CDB7DEB781E00F
:1026100090E00E949F118DE890E00E94521024EEFD
:1026200030E087E0B9010E94D60D8091E400882F48
:1026300090E00E947A100E94ED1081E090E00E94EC
:102640009F118BE990E00E94521081E090E00E947F
:102650009F118091E2009091E3000E947A10CF9147
:10266000DF910895DF93CF93CDB7DEB788EA90E08E
:102670000E94521004C085EE90E00E9430118091BB
:10268000E5008332C1F71092E5000E94E21081E07C
:1026900090E00E949F110E94DD1181E090E00E9475
:1026A0009F110E94631224C081E090E00E949F115C
:1026B00085EB90E00E9452100E94ED1081E090E0C6
:1026C0000E949F1183EC90E00E9452108091EA00DA
:1026D000882F90E08A519F4F0E9430118093E5002F
:1026E0008091E500882391F31092E5000E94631227
:1026F0008091E2009091E30087399105A8F681E08E
:1027000090E00E949F11CF91DF910895DF93CF93C6
:10271000CDB7DEB70E94950F0E94201180E00E9485
:10272000710D0E94A80ECF91DF910895DF93CF9392
:10273000CDB7DEB70E9432131092E5000E9403135A
:102740008091E400282F30E08091E2009091E30036
:102750002817390728F080E061E00E94BE0E03C010
:1027600080E00E94FA0E88EE93E00E949F11E4CF71
:10277000DF93CF93CDB7DEB70E9486130E949613E6
:10278000FDCF629FD001739FF001829FE00DF11D8C
:10279000649FE00DF11D929FF00D839FF00D749FDB
:1027A000F00D659FF00D9927729FB00DE11DF91F87
:1027B000639FB00DE11DF91FBD01CF0111240895E4
:1027C000AA1BBB1B51E107C0AA1FBB1FA617B70757
:1027D00010F0A61BB70B881F991F5A95A9F7809573
:1027E0009095BC01CD010895A1E21A2EAA1BBB1B36
:1027F000FD010DC0AA1FBB1FEE1FFF1FA217B307CD
:10280000E407F50720F0A21BB30BE40BF50B661FE2
:10281000771F881F991F1A9469F7609570958095A6
:1028200090959B01AC01BD01CF010895F894FFCFB5
:10283000454E5445522054454D50205448454E0075
:102840005052455353202A0057414E54454420547A
:10285000454D502000494E56414C49440043555285
:1028600052454E542054454D503A00444553495228
:1028700045442054454D5000505253202320746F3E
:10288000205345540054454D502045584345454438
:1028900045440050525320414E59204B455900FFAA
:0E28A000FEF83132333435363738392A3023DA
:00000001FF
