:100000000C942A000C9447000C9447000C94470071
:100010000C9447000C9447000C9447000C94470044
:100020000C9447000C9447000C94260E0C94F90D88
:100030000C9447000C9447000C9447000C94470024
:100040000C9447000C9447000C9447000C94470014
:100050000C94470011241FBECFE5D8E0DEBFCDBF12
:1000600010E0A8E6B0E001C01D92A437B107E1F7A7
:1000700010E0A0E6B0E0ECE5FDE102C005900D92D5
:10008000A836B107D9F70E94A3050C94AC0E0C94C6
:100090000000EF92FF920F931F937B018C0120E0F1
:1000A00030E040E05FE40E94490388238CF0C801FF
:1000B000B70120E030E040E05FE40E94C1010E940F
:1000C000A9039B01AC01205030404040504806C07D
:1000D000C801B7010E94A9039B01AC01B901CA0183
:1000E0001F910F91FF90EF900895A0E0B0E0EBE733
:1000F000F0E00C94750EDC012B01FA019C9192301A
:1001000008F439C1EB018881823008F433C194309E
:1001100069F4843009F02FC111969C91119789815F
:10012000981709F428C1A0E6B0E025C1843009F48D
:1001300021C18230A9F4923009F01DC19A01AD01AC
:1001400088E0EA010990AE01E90109929E0181501F
:10015000C1F7E201898111969C918923818308C1AD
:10016000923009F407C112962D903C901397EB0141
:100170008A819B811496AD90BD90CD90DC901797AD
:10018000EC80FD800E811F819101281B390BB90184
:1001900037FF04C066277727621B730B6032710537
:1001A0000CF061C0121613066CF537014801062EDB
:1001B00004C096948794779467940A94D2F721E0C8
:1001C00030E040E050E004C0220F331F441F551FB1
:1001D0006A95D2F721503040404050402E213F21B7
:1001E00040235123211531054105510521F021E01E
:1001F00030E040E050E079018A01E628F72808293C
:1002000019293CC0232BD1F1260E371E350146019A
:10021000062E04C096948794779467940A94D2F734
:1002200021E030E040E050E004C0220F331F441FC3
:10023000551F6A95D2F721503040404050402A2146
:100240003B214C215D21211531054105510521F04E
:1002500021E030E040E050E059016A01A628B728CB
:10026000C828D9280BC0821593052CF01C01AA249C
:10027000BB24650103C0EE24FF24870111969C91E5
:10028000D20111968C91981709F445C0992339F041
:10029000A80197012A193B094C095D0906C0A6016E
:1002A00095012E193F09400B510B57FD08C01182D3
:1002B0003382228224833583468357831DC081E0A5
:1002C00081833382228288279927DC01821B930B4A
:1002D000A40BB50B84839583A683B7830DC0220F2F
:1002E000331F441F551F24833583468357838281E0
:1002F000938101979383828324813581468157813D
:10030000DA01C9010197A109B1098F5F9F4FAF4F72
:10031000BF4328F30BC0918333822282EA0CFB1C7B
:100320000C1D1D1DE482F5820683178383E0808304
:10033000248135814681578157FF1AC0C901AA27F8
:1003400097FDA095BA2F81709070A070B0705695EF
:10035000479537952795822B932BA42BB52B848318
:100360009583A683B7838281938101969383828349
:10037000DF0101C0D201CD01CDB7DEB7E2E10C94BF
:10038000910EA0E2B0E0E7ECF1E00C94810E6983FD
:100390007A838B839C832D833E834F835887E9E048
:1003A000EE2EF12CEC0EFD1ECE010196B7010E943F
:1003B000D2048E010F5E1F4FCE010596B8010E9438
:1003C000D2048A8991E089278A8BC701B801AE01DE
:1003D000475E5F4F0E9475000E94FD03A096E6E015
:1003E0000C949D0EA0E2B0E0E8EFF1E00C94810ED9
:1003F00069837A838B839C832D833E834F835887C5
:10040000F9E0EF2EF12CEC0EFD1ECE010196B701A6
:100410000E94D2048E010F5E1F4FCE010596B801D7
:100420000E94D204C701B801AE01475E5F4F0E942F
:1004300075000E94FD03A096E6E00C949D0EA0E2DC
:10044000B0E0E5E2F2E00C94750E69837A838B8369
:100450009C832D833E834F835887CE010196BE0136
:10046000675F7F4F0E94D204CE010596BE016F5E8A
:100470007F4F0E94D2049985923088F0898982301A
:10048000C8F0943019F4823051F404C0843029F457
:10049000923081F480E690E0C6C0923049F420E0CA
:1004A0009A858A89981321E02A87CE010996BBC0D4
:1004B000823049F420E09A858A89981321E02A8BBA
:1004C000CE014196B0C02D843E844F8458886D88FB
:1004D0007E888F88988CEE24FF248701AA24BB2471
:1004E000650140E050E060E070E0E0E0F0E0C10174
:1004F00081709070892BE9F0E60CF71C081D191D1E
:100500009A01AB012A0D3B1D4C1D5D1D80E090E062
:10051000A0E0B0E0E614F7040805190520F481E036
:1005200090E0A0E0B0E0BA01A901480F591F6A1F8E
:100530007B1FAA0CBB1CCC1CDD1C97FE08C081E0F5
:1005400090E0A0E0B0E0A82AB92ACA2ADB2A3196B6
:10055000E032F10549F0660C771C881C991C569412
:10056000479437942794C3CFFA85EA892B893C892D
:100570008B859C85280F391F2E5F3F4F17C0CA01FE
:1005800081709070892B61F016950795F794E79428
:1005900080E090E0A0E0B0E8E82AF92A0A2B1B2BC3
:1005A00076956795579547952F5F3F4F77FDE7CF36
:1005B0000CC0440F551F661F771F17FD4160EE0CDE
:1005C000FF1C001F111F21503040403090E05907A0
:1005D00090E0690790E4790760F32B8F3C8FDB0193
:1005E000CA018F779070A070B07080349105A1051A
:1005F000B10561F447FD0AC0E114F10401051105DC
:1006000029F0405C5F4F6F4F7F4F40781A8EFE1786
:1006100011F081E08A8F4D8F5E8F6F8F78A383E01A
:10062000898FCE0149960E94FD03A096E2E10C94C9
:10063000910EA8E1B0E0EFE1F3E00C94810E698344
:100640007A838B839C832D833E834F83588789E0F5
:10065000E82EF12CEC0EFD1ECE010196B7010E9492
:10066000D2048E010F5E1F4FCE010596B8010E9485
:10067000D2048985823040F08989823028F0C70110
:10068000B8010E944A0501C08FEF6896E6E00C941D
:100690009D0EA8E1B0E0EFE4F3E00C94810E6983D5
:1006A0007A838B839C832D833E834F83588789E095
:1006B000E82EF12CEC0EFD1ECE010196B7010E9432
:1006C000D2048E010F5E1F4FCE010596B8010E9425
:1006D000D2048985823040F08989823028F0C701B0
:1006E000B8010E944A0501C08FEF6896E6E00C94BD
:1006F0009D0EA8E1B0E0EFE7F3E00C94810E698372
:100700007A838B839C832D833E834F83588789E034
:10071000E82EF12CEC0EFD1ECE010196B7010E94D1
:10072000D2048E010F5E1F4FCE010596B8010E94C4
:10073000D2048985823040F08989823028F0C7014F
:10074000B8010E944A0501C081E06896E6E00C9479
:100750009D0EACE0B0E0EFEAF3E00C94850E698307
:100760007A838B839C83CE010196BE016B5F7F4FA2
:100770000E94D2048D81823061F1823050F1843048
:1007800021F48E81882351F12EC02F81388537FDC9
:1007900020C06E812F3131051CF06623F9F023C093
:1007A0008EE190E0821B930B29853A854B855C8511
:1007B00004C056954795379527958A95D2F76623B5
:1007C000B1F050954095309521953F4F4F4F5F4F79
:1007D0000EC020E030E040E050E009C02FEF3FEFD6
:1007E0004FEF5FE704C020E030E040E050E8B9019F
:1007F000CA012C96E2E00C94A10EDF92EF92FF92D8
:100800000F931F93FC01E480F58006811781D1804E
:100810008081823048F480E090E0A0E1B0E0E82AF6
:10082000F92A0A2B1B2BA5C0843009F49FC0823003
:1008300021F4EE24FF24870105C0E114F104010531
:10084000110519F4E0E0F0E096C0628173819FEF3A
:10085000623879070CF05BC022E83FEF261B370BAC
:100860002A3131052CF020E030E040E050E02AC091
:10087000B801A701022E04C0769567955795479554
:100880000A94D2F781E090E0A0E0B0E004C0880FC5
:10089000991FAA1FBB1F2A95D2F70197A109B10979
:1008A0008E219F21A023B1230097A105B10521F03E
:1008B00081E090E0A0E0B0E09A01AB01282B392B59
:1008C0004A2B5B2BDA01C9018F779070A070B07052
:1008D00080349105A105B10539F427FF09C0205CDA
:1008E0003F4F4F4F5F4F04C0215C3F4F4F4F5F4F13
:1008F000E0E0F0E02030A0E03A07A0E04A07A0E402
:100900005A0710F0E1E0F0E079018A0127C0603871
:10091000710564F5FB01E158FF4FD801C7018F77DE
:100920009070A070B07080349105A105B10539F4C4
:10093000E7FE0DC080E490E0A0E0B0E004C08FE3EB
:1009400090E0A0E0B0E0E80EF91E0A1F1B1F17FFA1
:1009500005C016950795F794E794319687E01695AC
:100960000795F794E7948A95D1F705C0EE24FF2404
:100970008701EFEFF0E06E2F679566276795902F60
:100980009F77D794DD24D7948E2F8695492F462BB9
:10099000582F5D29B701CA011F910F91FF90EF9069
:1009A000DF900895FC01DB01408151812281622F9B
:1009B0006F7770E0221F2227221F9381892F880FD3
:1009C000822B282F30E0991F9927991F11969C930D
:1009D000119721153105A9F54115510561057105DD
:1009E00011F482E037C082E89FEF13969C938E93B8
:1009F00012979A01AB0167E0220F331F441F551F66
:100A00006A95D1F783E08C930DC0220F331F441FEA
:100A1000551F12968D919C911397019713969C9355
:100A20008E931297203080E0380780E0480780E4FA
:100A3000580758F314962D933D934D935C93179755
:100A400008952F3F310579F4411551056105710570
:100A500019F484E08C93089564FF03C081E08C93C3
:100A600012C01C9210C02F57304013963C932E9307
:100A7000129783E08C9387E0440F551F661F771F02
:100A80008A95D1F7706414964D935D936D937C9322
:100A9000179708951F93DC01FB019C91923008F495
:100AA00047C08081823008F443C0943051F41196DD
:100AB0001C91843099F58181682F70E0611B710968
:100AC0003FC0843021F0923031F48230B9F181811D
:100AD000882389F12DC011961C9111978230F1F075
:100AE00081811817D9F412962D913C911397828128
:100AF00093818217930794F028173907BCF0149656
:100B00008D919D910D90BC91A02D248135814681C0
:100B10005781281739074A075B0718F4112341F05A
:100B20000AC082179307A407B50740F4112319F0F0
:100B300061E070E005C06FEF7FEF02C060E070E041
:100B4000CB011F910895DF93CF93CDB7DEB76E979A
:100B50000FB6F894DEBF0FBECDBF80E060E041E08D
:100B60000E94B9078E8F81E060E041E00E94B907E2
:100B70008E8F82E060E041E00E94B9078E8F83E0B3
:100B800060E041E00E94B9078E8F81E063E041E0C0
:100B90000E94B9078E8F80E00E94AD0C0E94DD0D8F
:100BA00080E00E94410D81E08D8F79C080E06D8DE5
:100BB0000E94D70C80E090E0A0E2B1E4898F9A8F88
:100BC000AB8FBC8F698D7A8D8B8D9C8D20E030E052
:100BD0004AEF54E40E941F02DC01CB018D8B9E8BF7
:100BE000AF8BB88F6D897E898F89988D20E030E03A
:100BF00040E85FE30E94790388232CF481E090E0D1
:100C00009C8B8B8B3FC06D897E898F89988D20E06E
:100C10003FEF4FE757E40E94190318164CF5698D12
:100C20007A8D8B8D9C8D20E030E040E251E40E9473
:100C30001F02DC01CB01BC01CD010E944900DC0197
:100C4000CB019C8B8B8B0FC088EC90E09A8B898BAF
:100C500089899A890197F1F79A8B898B8B899C896D
:100C600001979C8B8B8B8B899C89009769F714C0AB
:100C70006D897E898F89988D0E944900DC01CB01A6
:100C80009C8B8B8B8B899C89988B8F878F85988980
:100C90000197F1F7988B8F878D8D8F5F8D8F8D8D5D
:100CA0008F3F09F083CF79C080E06D8D0E94D70C13
:100CB00080E090E0A0E2B1E48B879C87AD87BE879F
:100CC0006B857C858D859E8520E030E04AEF54E47D
:100CD0000E941F02DC01CB018F839887A987BA8706
:100CE0006F81788589859A8520E030E040E85FE370
:100CF0000E94790388232CF481E090E09E838D8309
:100D00003FC06F81788589859A8520E03FEF4FE766
:100D100057E40E94190318164CF56B857C858D8568
:100D20009E8520E030E040E251E40E941F02DC0199
:100D3000CB01BC01CD010E944900DC01CB019E83A7
:100D40008D830FC088EC90E09C838B838B819C818A
:100D50000197F1F79C838B838D819E8101979E8300
:100D60008D838D819E81009769F714C06F8178858E
:100D700089859A850E944900DC01CB019E838D8381
:100D80008D819E819A83898389819A810197F1F768
:100D90009A8389838D8D81508D8F8D8D882309F065
:100DA00083CF01CFDF93CF93CDB7DEB780916800BB
:100DB00090916900A0916A00B0916B000196A11D0D
:100DC000B11D8093680090936900A0936A00B0936E
:100DD0006B008091680090916900A0916A00B091C9
:100DE0006B0020EA3FE040E050E0BC01CD010E94F2
:100DF000530EDC01CB010097A105B10521F482E07F
:100E000060E00E940F0B8091680090916900A091B2
:100E10006A00B0916B0020E43FE140E050E0BC018B
:100E2000CD010E94530EDC01CB010097A105B10555
:100E300021F483E060E00E940F0BCF91DF910895D1
:100E4000DF93CF93CDB7DEB780916C0090916D00AA
:100E5000A0916E00B0916F000196A11DB11D80930D
:100E60006C0090936D00A0936E00B0936F00809122
:100E70006C0090916D00A0916E00B0916F0020ED1C
:100E800037E040E050E0BC01CD010E94530EDC0190
:100E9000CB010097A105B10521F481E060E00E943B
:100EA0000F0B80916C0090916D00A0916E00B0913D
:100EB0006F0020EA3FE040E050E0BC01CD010E941D
:100EC000530EDC01CB010097A105B10521F480E0B0
:100ED00060E00E940F0BCF91DF910895DF93CF93D5
:100EE00000D000D00F92CDB7DEB789836A838981A5
:100EF0008430A0F58981282F30E03D832C838C81BC
:100F00009D8181309105D1F02C813D8122303105C8
:100F10002CF48C819D81009761F01EC02C813D8155
:100F20002230310581F08C819D818330910581F0E3
:100F300013C0EAE3F0E08A8180830EC0E7E3F0E0CB
:100F40008A81808309C0E4E3F0E08A81808304C061
:100F5000E1E3F0E08A8180831B8202C091E09B8301
:100F60008B810F900F900F900F900F90CF91DF918A
:100F70000895DF93CF93CDB7DEB728970FB6F894D7
:100F8000DEBF0FBECDBF89836A834B8389818430E6
:100F900008F0F4C08A81883008F0F0C08B8181307D
:100FA00009F070C08981282F30E038872F838F8126
:100FB00098858130910549F12F813885223031059E
:100FC0002CF48F819885009761F05AC02F81388565
:100FD0002230310571F18F81988583309105E9F1D7
:100FE0004FC0AAE3B0E0EAE3F0E08081482F8A81B5
:100FF000282F30E081E090E0022E02C0880F991F78
:101000000A94E2F7842B8C933BC0A7E3B0E0E7E3BC
:10101000F0E08081482F8A81282F30E081E090E045
:10102000022E02C0880F991F0A94E2F7842B8C933A
:1010300027C0A4E3B0E0E4E3F0E08081482F8A8198
:10104000282F30E081E090E0022E02C0880F991F27
:101050000A94E2F7842B8C9313C0A1E3B0E0E1E3A0
:10106000F0E08081482F8A81282F30E081E090E0F5
:10107000022E02C0880F991F0A94E2F7842B8C93EA
:101080001E827EC08B81882309F075C08981282F3C
:1010900030E03D832C838C819D818130910559F115
:1010A0002C813D81223031052CF48C819D8100976B
:1010B00069F05FC02C813D812230310589F18C813E
:1010C0009D818330910509F440C053C0AAE3B0E08C
:1010D000EAE3F0E08081482F8A81282F30E081E028
:1010E00090E0022E02C0880F991F0A94E2F78095C3
:1010F00084238C933EC0A7E3B0E0E7E3F0E0808177
:10110000482F8A81282F30E081E090E0022E02C033
:10111000880F991F0A94E2F7809584238C9329C045
:10112000A4E3B0E0E4E3F0E08081482F8A81282F37
:1011300030E081E090E0022E02C0880F991F0A94EF
:10114000E2F7809584238C9314C0A1E3B0E0E1E33F
:10115000F0E08081482F8A81282F30E081E090E004
:10116000022E02C0880F991F0A94E2F7809584230B
:101170008C931E8205C092E09E8302C021E02E83E4
:101180008E8128960FB6F894DEBF0FBECDBFCF91EB
:10119000DF910895DF93CF9300D000D00F92CDB7A9
:1011A000DEB789836A8389818430A0F58981282FFD
:1011B00030E03D832C838C819D8181309105D1F07D
:1011C0002C813D81223031052CF48C819D8100974A
:1011D00061F01EC02C813D812230310581F08C816F
:1011E0009D818330910581F013C0EBE3F0E08A81AB
:1011F00080830EC0E8E3F0E08A81808309C0E5E3E4
:10120000F0E08A81808304C0E2E3F0E08A81808399
:101210001B8202C091E09B838B810F900F900F90F7
:101220000F900F90CF91DF910895DF93CF93CDB7BB
:10123000DEB728970FB6F894DEBF0FBECDBF898307
:101240006A834B838981843008F0F4C08A818830B6
:1012500008F0F0C08B81813009F070C08981282F9F
:1012600030E038872F838F8198858130910549F14F
:101270002F813885223031052CF48F819885009795
:1012800061F05AC02F8138852230310571F18F818C
:10129000988583309105E9F14FC0ABE3B0E0EBE313
:1012A000F0E08081482F8A81282F30E081E090E0B3
:1012B000022E02C0880F991F0A94E2F7842B8C93A8
:1012C0003BC0A8E3B0E0E8E3F0E08081482F8A81EA
:1012D000282F30E081E090E0022E02C0880F991F95
:1012E0000A94E2F7842B8C9327C0A5E3B0E0E5E3F2
:1012F000F0E08081482F8A81282F30E081E090E063
:10130000022E02C0880F991F0A94E2F7842B8C9357
:1013100013C0A2E3B0E0E2E3F0E08081482F8A81CD
:10132000282F30E081E090E0022E02C0880F991F44
:101330000A94E2F7842B8C931E827EC08B818823D3
:1013400009F075C08981282F30E03D832C838C8182
:101350009D818130910559F12C813D8122303105EB
:101360002CF48C819D81009769F05FC02C813D81B8
:101370002230310589F18C819D818330910509F4FA
:1013800040C053C0ABE3B0E0EBE3F0E08081482F16
:101390008A81282F30E081E090E0022E02C0880F81
:1013A000991F0A94E2F7809584238C933EC0A8E3AA
:1013B000B0E0E8E3F0E08081482F8A81282F30E018
:1013C00081E090E0022E02C0880F991F0A94E2F794
:1013D000809584238C9329C0A5E3B0E0E5E3F0E099
:1013E0008081482F8A81282F30E081E090E0022E12
:1013F00002C0880F991F0A94E2F7809584238C938A
:1014000014C0A2E3B0E0E2E3F0E08081482F8A81DB
:10141000282F30E081E090E0022E02C0880F991F53
:101420000A94E2F7809584238C931E8205C092E093
:101430009E8302C021E02E838E8128960FB6F894F9
:10144000DEBF0FBECDBFCF91DF910895DF93CF9365
:1014500000D000D000D0CDB7DEB789837B836A830C
:1014600089818430E0F58981282F30E03E832D8307
:101470008D819E8181309105E1F02D813E81223068
:1014800031052CF48D819E81009761F026C02D815D
:101490003E8122303105A1F08D819E8183309105FE
:1014A000B1F01BC0E9E3F0E08081EA81FB81808339
:1014B00014C0E6E3F0E08081EA81FB8180830DC007
:1014C000E3E3F0E08081EA81FB81808306C0E0E312
:1014D000F0E08081EA81FB8180831C8202C091E080
:1014E0009C838C8126960FB6F894DEBF0FBECDBFCD
:1014F000CF91DF910895DF93CF93CDB7DEB72797D4
:101500000FB6F894DEBF0FBECDBF89836A835C83BC
:101510004B838981843008F076C08A81883008F056
:1015200072C08981282F30E03F832E834E815F81F6
:101530004130510559F18E819F818230910534F4FB
:101540002E813F812115310569F05BC04E815F819D
:101550004230510579F18E819F818330910509F4E4
:101560003DC04FC0E9E3F0E08081282F30E08A8160
:10157000882F90E0A90102C0559547958A95E2F71A
:10158000CA018170EB81FC8180833BC0E6E3F0E01F
:101590008081282F30E08A81882F90E0A90102C045
:1015A000559547958A95E2F7CA018170EB81FC81D8
:1015B000808327C0E3E3F0E08081282F30E08A8138
:1015C000882F90E0A90102C0559547958A95E2F7CA
:1015D000CA018170EB81FC81808313C0E0E3F0E0FD
:1015E0008081282F30E08A81882F90E0A90102C0F5
:1015F000559547958A95E2F7CA018170EB81FC8188
:1016000080831D8202C051E05D838D8127960FB6D5
:10161000F894DEBF0FBECDBFCF91DF910895DF9369
:10162000CF9300D000D00F92CDB7DEB789836A8305
:101630008981843008F074C08A81883008F070C0D5
:101640008981282F30E03D832C838C819D818130DE
:10165000910549F12C813D81223031052CF48C819A
:101660009D81009761F05AC02C813D812230310567
:1016700071F18C819D8183309105E9F14FC0ABE31D
:10168000B0E0EBE3F0E08081482F8A81282F30E042
:1016900081E090E0022E02C0880F991F0A94E2F7C1
:1016A00084278C933BC0A8E3B0E0E8E3F0E08081BE
:1016B000482F8A81282F30E081E090E0022E02C07E
:1016C000880F991F0A94E2F784278C9327C0A5E31B
:1016D000B0E0E5E3F0E08081482F8A81282F30E0F8
:1016E00081E090E0022E02C0880F991F0A94E2F771
:1016F00084278C9313C0A2E3B0E0E2E3F0E08081A2
:10170000482F8A81282F30E081E090E0022E02C02D
:10171000880F991F0A94E2F784278C931B8202C0DA
:1017200091E09B838B810F900F900F900F900F9003
:10173000CF91DF910895DF93CF9300D000D00F9227
:10174000CDB7DEB789836A838981843008F0D1C040
:101750008A81883008F0CDC08981282F30E03D8310
:101760002C834C815D814130510509F442C08C814C
:101770009D818230910534F42C813D812115310504
:1017800071F0B5C04C815D814230510509F45BC0F8
:101790008C819D818330910509F47FC0A8C0EAE364
:1017A000F0E08081282F30E08A81882F90E0A90125
:1017B00002C0559547958A95E2F7CA0181709070ED
:1017C0000097A1F4ABE3B0E0EBE3F0E08081482FB9
:1017D0008A81282F30E081E090E0022E02C0880F3D
:1017E000991F0A94E2F7842B8C9381C053E05B83AA
:1017F00082C0E7E3F0E08081282F30E08A81882FE3
:1018000090E0A90102C0559547958A95E2F7CA0173
:10181000817090700097A1F4A8E3B0E0E8E3F0E0F5
:101820008081482F8A81282F30E081E090E0022ECD
:1018300002C0880F991F0A94E2F7842B8C9357C03B
:1018400053E05B8358C0E4E3F0E08081282F30E070
:101850008A81882F90E0A90102C0559547958A9505
:10186000E2F7CA01817090700097A1F4A5E3B0E09F
:10187000E5E3F0E08081482F8A81282F30E081E085
:1018800090E0022E02C0880F991F0A94E2F7842B81
:101890008C932DC053E05B832EC0E1E3F0E08081A8
:1018A000282F30E08A81882F90E0A90102C0559549
:1018B00047958A95E2F7CA01817090700097A1F46C
:1018C000A2E3B0E0E2E3F0E08081482F8A81282F94
:1018D00030E081E090E0022E02C0880F991F0A9448
:1018E000E2F7842B8C9303C053E05B8304C01B821C
:1018F00002C081E08B838B810F900F900F900F902F
:101900000F90CF91DF910895DF93CF9300D00F9286
:10191000CDB7DEB78A836B8319828A816B8141E000
:101920000E94B90789830F900F900F90CF91DF919C
:101930000895DF93CF9300D00F92CDB7DEB78A839F
:101940006B8319828A816B810E940F0B89830F90B0
:101950000F900F90CF91DF910895DF93CF9300D038
:101960000F92CDB7DEB7898389818330D0F4898126
:10197000282F30E03B832A838A819B818130910527
:1019800081F02A813B812230310541F08A819B819F
:10199000009739F480E00E94040D03C082E00E94A9
:1019A000040D0F900F900F90CF91DF910895DF936A
:1019B000CF9300D000D0CDB7DEB789836A83898109
:1019C0008330D8F48981282F30E03C832B838B81AE
:1019D0009C818130910589F02B813C812230310539
:1019E00049F08B819C81009741F4ECE5F0E08A811D
:1019F000808303C0E3E4F0E010820F900F900F901B
:101A00000F90CF91DF910895DF93CF9300D00F9285
:101A1000CDB7DEB789838981833068F58981282F26
:101A200030E03B832A838A819B818130910519F1C3
:101A30002A813B8122303105B9F08A819B81009750
:101A4000D1F4A3E5B0E0E3E5F0E0808188648C9315
:101A5000A3E5B0E0E3E5F0E0808180628C93ECE503
:101A6000F0E080E8808307C0A5E4B0E0E5E4F0E0C2
:101A7000808188648C930F900F900F90CF91DF91AD
:101A80000895DF93CF930F92CDB7DEB78983898115
:101A9000833060F48981882F90E0009739F4A3E5C2
:101AA000B0E0E3E5F0E0808182608C930F90CF910D
:101AB000DF910895DF93CF930F92CDB7DEB789837F
:101AC0008981833060F48981882F90E0009739F410
:101AD000A9E5B0E0E9E5F0E0808183608C930F90A8
:101AE000CF91DF910895DF93CF930F92CDB7DEB7FB
:101AF00089838981833060F48981882F90E0009701
:101B000039F4A9E5B0E0E9E5F0E080818C7F8C93C1
:101B10000F90CF91DF910895DF93CF9300D000D045
:101B200000D0CDB7DEB789836A835C834B8389811C
:101B3000833008F58981882F90E00097E1F48A814D
:101B4000282F30E03E832D838D819E81009731F0D8
:101B50002D813E812130310541F00DC08B819C816A
:101B6000909371008093700006C08B819C8190934C
:101B700073008093720026960FB6F894DEBF0FBEF6
:101B8000CDBFCF91DF910895DF93CF930F92CDB763
:101B9000DEB789838981833060F48981882F90E062
:101BA000009739F4A3E5B0E0E3E5F0E080818D7FB4
:101BB0008C930F90CF91DF910895DF93CF93CDB7A2
:101BC000DEB7AFE5B0E0EFE5F0E0808180688C93B0
:101BD000CF91DF910895DF93CF93CDB7DEB7AFE517
:101BE000B0E0EFE5F0E080818F778C93CF91DF91CB
:101BF00008951F920F920FB60F9211242F933F93C7
:101C00004F935F936F937F938F939F93AF93BF9304
:101C1000EF93FF93DF93CF93CDB7DEB7E0917000E2
:101C2000F09171000995CF91DF91FF91EF91BF91F4
:101C3000AF919F918F917F916F915F914F913F9164
:101C40002F910F900FBE0F901F9018951F920F921B
:101C50000FB60F9211242F933F934F935F936F937F
:101C60007F938F939F93AF93BF93EF93FF93DF93F4
:101C7000CF93CDB7DEB7E0917200F0917300099574
:101C8000CF91DF91FF91EF91BF91AF919F918F9194
:101C90007F916F915F914F913F912F910F900FBE68
:101CA0000F901F901895A1E21A2EAA1BBB1BFD01D5
:101CB0000DC0AA1FBB1FEE1FFF1FA217B307E4072B
:101CC000F50720F0A21BB30BE40BF50B661F771F83
:101CD000881F991F1A9469F7609570958095909563
:101CE0009B01AC01BD01CF0108952F923F924F920D
:101CF0005F926F927F928F929F92AF92BF92CF929C
:101D0000DF92EF92FF920F931F93CF93DF93CDB7A4
:101D1000DEB7CA1BDB0B0FB6F894DEBF0FBECDBF1C
:101D200009942A88398848885F846E847D848C84ED
:101D30009B84AA84B984C884DF80EE80FD800C81F6
:101D40001B81AA81B981CE0FD11D0FB6F894DEBFD9
:0C1D50000FBECDBFED010895F894FFCF49
:081D5C0000000000000000007F
:00000001FF
