:100000000C942A000C9447000C9447000C94470071
:100010000C942E130C9401130C94D4120C94A7126C
:100020000C947A120C944D120C9420120C94F3112F
:100030000C9447000C9447000C9447000C94470024
:100040000C9447000C9447000C9447000C94470014
:100050000C94470011241FBECFE5D8E0DEBFCDBF12
:1000600011E0A8E6B1E001C01D92A038B107E1F7A8
:1000700011E0A0E6B0E0ECE6F7E202C005900D92D8
:10008000A836B107D9F70E949C060C94B4130C94BF
:100090000000EF92FF920F931F937B018C0120E0F1
:1000A00030E040E05FE40E94C50388238CF0C80183
:1000B000B70120E030E040E05FE40E94C1010E940F
:1000C00053049B01AC01205030404040504806C0D2
:1000D000C801B7010E9453049B01AC01B901CA01D8
:1000E0001F910F91FF90EF900895A0E0B0E0EBE733
:1000F000F0E00C947D13DC012B01FA019C9192300D
:1001000008F439C1EB018881823008F433C194309E
:1001100069F4843009F02FC111969C91119789815F
:10012000981709F428C1A0E6B0E025C1843009F48D
:1001300021C18230A9F4923009F01DC19A01AD01AC
:1001400088E0EA010990AE01E90109929E0181501F
:10015000C1F7E201898111969C918923818308C1AD
:10016000923009F407C112962D903C901397EB0141
:100170008A819B811496AD90BD90CD90DC901797AD
:10018000EC80FD800E811F819101281B390BB90184
:1001900037FF04C066277727621B730B6032710537
:1001A0000CF061C0121613066CF537014801062EDB
:1001B00004C096948794779467940A94D2F721E0C8
:1001C00030E040E050E004C0220F331F441F551FB1
:1001D0006A95D2F721503040404050402E213F21B7
:1001E00040235123211531054105510521F021E01E
:1001F00030E040E050E079018A01E628F72808293C
:1002000019293CC0232BD1F1260E371E350146019A
:10021000062E04C096948794779467940A94D2F734
:1002200021E030E040E050E004C0220F331F441FC3
:10023000551F6A95D2F721503040404050402A2146
:100240003B214C215D21211531054105510521F04E
:1002500021E030E040E050E059016A01A628B728CB
:10026000C828D9280BC0821593052CF01C01AA249C
:10027000BB24650103C0EE24FF24870111969C91E5
:10028000D20111968C91981709F445C0992339F041
:10029000A80197012A193B094C095D0906C0A6016E
:1002A00095012E193F09400B510B57FD08C01182D3
:1002B0003382228224833583468357831DC081E0A5
:1002C00081833382228288279927DC01821B930B4A
:1002D000A40BB50B84839583A683B7830DC0220F2F
:1002E000331F441F551F24833583468357838281E0
:1002F000938101979383828324813581468157813D
:10030000DA01C9010197A109B1098F5F9F4FAF4F72
:10031000BF4328F30BC0918333822282EA0CFB1C7B
:100320000C1D1D1DE482F5820683178383E0808304
:10033000248135814681578157FF1AC0C901AA27F8
:1003400097FDA095BA2F81709070A070B0705695EF
:10035000479537952795822B932BA42BB52B848318
:100360009583A683B7838281938101969383828349
:10037000DF0101C0D201CD01CDB7DEB7E2E10C94BF
:100380009913A0E2B0E0E7ECF1E00C9489136983E3
:100390007A838B839C832D833E834F835887E9E048
:1003A000EE2EF12CEC0EFD1ECE010196B7010E943F
:1003B000CB058E010F5E1F4FCE010596B8010E943E
:1003C000CB058A8991E089278A8BC701B801AE01E4
:1003D000475E5F4F0E9475000E94F604A096E6E01B
:1003E0000C94A513A0E2B0E0E8EFF1E00C948913BF
:1003F00069837A838B839C832D833E834F835887C5
:10040000F9E0EF2EF12CEC0EFD1ECE010196B701A6
:100410000E94CB058E010F5E1F4FCE010596B801DD
:100420000E94CB05C701B801AE01475E5F4F0E9435
:1004300075000E94F604A096E6E00C94A513A0E2D5
:10044000B0E0E5E2F2E00C947D1369837A838B835C
:100450009C832D833E834F835887CE010196BE0136
:10046000675F7F4F0E94CB05CE010596BE016F5E90
:100470007F4F0E94CB059985923088F08989823020
:10048000C8F0943019F4823051F404C0843029F457
:10049000923081F480E690E0C6C0923049F420E0CA
:1004A0009A858A89981321E02A87CE010996BBC0D4
:1004B000823049F420E09A858A89981321E02A8BBA
:1004C000CE014196B0C02D843E844F8458886D88FB
:1004D0007E888F88988CEE24FF248701AA24BB2471
:1004E000650140E050E060E070E0E0E0F0E0C10174
:1004F00081709070892BE9F0E60CF71C081D191D1E
:100500009A01AB012A0D3B1D4C1D5D1D80E090E062
:10051000A0E0B0E0E614F7040805190520F481E036
:1005200090E0A0E0B0E0BA01A901480F591F6A1F8E
:100530007B1FAA0CBB1CCC1CDD1C97FE08C081E0F5
:1005400090E0A0E0B0E0A82AB92ACA2ADB2A3196B6
:10055000E032F10549F0660C771C881C991C569412
:10056000479437942794C3CFFA85EA892B893C892D
:100570008B859C85280F391F2E5F3F4F17C0CA01FE
:1005800081709070892B61F016950795F794E79428
:1005900080E090E0A0E0B0E8E82AF92A0A2B1B2BC3
:1005A00076956795579547952F5F3F4F77FDE7CF36
:1005B0000CC0440F551F661F771F17FD4160EE0CDE
:1005C000FF1C001F111F21503040403090E05907A0
:1005D00090E0690790E4790760F32B8F3C8FDB0193
:1005E000CA018F779070A070B07080349105A1051A
:1005F000B10561F447FD0AC0E114F10401051105DC
:1006000029F0405C5F4F6F4F7F4F40781A8EFE1786
:1006100011F081E08A8F4D8F5E8F6F8F78A383E01A
:10062000898FCE0149960E94F604A096E2E10C94CF
:100630009913A8E1B0E0EFE1F3E00C94851369832E
:100640007A838B839C832D833E834F835887B9E0C5
:10065000EB2EF12CEC0EFD1ECE010196B7010E948F
:10066000CB058E010F5E1F4FCE010596B8010E948B
:10067000CB052985223008F47EC03989323010F448
:10068000B8017CC08A859A8989278A87243011F02D
:10069000223031F4231709F06EC060E670E06EC0BE
:1006A000343039F41D861E861F86188A1C861B86E8
:1006B00004C0323021F484E08987B7015FC02B8504
:1006C0003C858B899C89281B390B3C872B87ED84C3
:1006D000FE840F851889AD88BE88CF88D88CEA142F
:1006E000FB040C051D0540F4EE0CFF1C001F111F40
:1006F000215030403C872B8720E030E040E050E044
:1007000080E090E0A0E0B0E460E070E0EA14FB0478
:100710000C051D0540F0282B392B4A2B5B2BEA18C2
:10072000FB080C091D09B695A79597958795EE0CC2
:10073000FF1C001F111F6F5F7F4F6F31710531F775
:10074000DA01C9018F779070A070B0708034910584
:10075000A105B10561F427FD0AC0E114F10401050A
:10076000110529F0205C3F4F4F4F5F4F20782D87B8
:100770003E874F87588BBE01675F7F4FCB010E943A
:10078000F6046896EAE00C94A113A8E1B0E0EBEC63
:10079000F3E00C94891369837A838B839C832D8384
:1007A0003E834F83588789E0E82EF12CEC0EFD1E26
:1007B000CE010196B7010E94CB058E010F5E1F4F3F
:1007C000CE010596B8010E94CB058985823040F0A4
:1007D0008989823028F0C701B8010E94430601C010
:1007E0008FEF6896E6E00C94A513A8E0B0E0EBEF7D
:1007F000F3E00C9486139B01AC0183E08983DA015A
:10080000C9018827B7FD83959927AA27BB27B82E4A
:10081000211531054105510519F482E089833AC05B
:100820008823A9F0203080E0380780E0480780E87E
:10083000580729F460E070E080E09FEC30C0EE24BF
:10084000FF248701E21AF30A040B150B02C0790199
:100850008A018EE1C82ED12CDC82CB82ED82FE8211
:100860000F831887C801B7010E94A70401971816C3
:10087000190684F4082E04C0EE0CFF1C001F111F83
:100880000A94D2F7ED82FE820F831887C81AD90A1C
:10089000DC82CB82BA82CE0101960E94F6042896B1
:1008A000E9E00C94A213ACE0B0E0E9E5F4E00C94CC
:1008B0008D1369837A838B839C83CE010196BE015D
:1008C0006B5F7F4F0E94CB058D81823061F182305A
:1008D00050F1843021F48E81882351F12EC02F8174
:1008E000388537FD20C06E812F3131051CF066231D
:1008F000F9F023C08EE190E0821B930B29853A85A5
:100900004B855C8504C056954795379527958A9504
:10091000D2F76623B1F050954095309521953F4F21
:100920004F4F5F4F0EC020E030E040E050E009C084
:100930002FEF3FEF4FEF5FE704C020E030E040E0F3
:1009400050E8B901CA012C96E2E00C94A913EF9289
:10095000FF920F931F937B018C0180E0E81680E0EB
:10096000F80681E0080780E0180788F48FEFE816A2
:10097000F1040105110531F028F088E090E0A0E0D5
:10098000B0E017C080E090E0A0E0B0E012C080E0EE
:10099000E81680E0F80680E0080781E0180728F0F4
:1009A00088E190E0A0E0B0E004C080E190E0A0E049
:1009B000B0E020E230E040E050E0281B390B4A0B69
:1009C0005B0B04C016950795F794E7948A95D2F7C8
:1009D000F701E859FF4F8081281B3109410951096E
:1009E000C9011F910F91FF90EF900895DF92EF9250
:1009F000FF920F931F93FC01E480F580068117811D
:100A0000D1808081823048F480E090E0A0E1B0E0C5
:100A1000E82AF92A0A2B1B2BA5C0843009F49FC0B1
:100A2000823021F4EE24FF24870105C0E114F10493
:100A30000105110519F4E0E0F0E096C062817381D0
:100A40009FEF623879070CF05BC022E83FEF261B6E
:100A5000370B2A3131052CF020E030E040E050E047
:100A60002AC0B801A701022E04C076956795579554
:100A700047950A94D2F781E090E0A0E0B0E004C08E
:100A8000880F991FAA1FBB1F2A95D2F70197A109AA
:100A9000B1098E219F21A023B1230097A105B105A3
:100AA00021F081E090E0A0E0B0E09A01AB01282BBA
:100AB000392B4A2B5B2BDA01C9018F779070A0701C
:100AC000B07080349105A105B10539F427FF09C044
:100AD000205C3F4F4F4F5F4F04C0215C3F4F4F4F53
:100AE0005F4FE0E0F0E02030A0E03A07A0E04A07E6
:100AF000A0E45A0710F0E1E0F0E079018A0127C094
:100B00006038710564F5FB01E158FF4FD801C7015A
:100B10008F779070A070B07080349105A105B105F9
:100B200039F4E7FE0DC080E490E0A0E0B0E004C03E
:100B30008FE390E0A0E0B0E0E80EF91E0A1F1B1F53
:100B400017FF05C016950795F794E794319687E04F
:100B500016950795F794E7948A95D1F705C0EE248A
:100B6000FF248701EFEFF0E06E2F6795662767950A
:100B7000902F9F77D794DD24D7948E2F8695492F79
:100B8000462B582F5D29B701CA011F910F91FF9085
:100B9000EF90DF900895FC01DB01408151812281BB
:100BA000622F6F7770E0221F2227221F9381892FE7
:100BB000880F822B282F30E0991F9927991F1196B3
:100BC0009C93119721153105A9F541155105610532
:100BD000710511F482E037C082E89FEF13969C9371
:100BE0008E9312979A01AB0167E0220F331F441FC7
:100BF000551F6A95D1F783E08C930DC0220F331FE8
:100C0000441F551F12968D919C911397019713962F
:100C10009C938E931297203080E0380780E048073D
:100C200080E4580758F314962D933D934D935C93AD
:100C3000179708952F3F310579F441155105610546
:100C4000710519F484E08C93089564FF03C081E07A
:100C50008C9312C01C9210C02F57304013963C93B7
:100C60002E93129783E08C9387E0440F551F661FE5
:100C7000771F8A95D1F7706414964D935D936D93A9
:100C80007C93179708951F93DC01FB019C91923090
:100C900008F447C08081823008F443C0943051F496
:100CA00011961C91843099F58181682F70E0611B49
:100CB00071093FC0843021F0923031F48230B9F1B3
:100CC0008181882389F12DC011961C911197823062
:100CD000F1F081811817D9F412962D913C91139758
:100CE000828193818217930794F028173907BCF00B
:100CF00014968D919D910D90BC91A02D24813581EC
:100D000046815781281739074A075B0718F41123D2
:100D100041F00AC082179307A407B50740F41123D6
:100D200019F061E070E005C06FEF7FEF02C060E096
:100D300070E0CB011F910895DF93CF9300D0CDB722
:100D4000DEB780E060E041E00E94C5078A8381E071
:100D500060E041E00E94C5078A8382E060E041E0F4
:100D60000E94C5078A8383E060E041E00E94C507D6
:100D70008A8381E063E041E00E94C5078A8380E0C6
:100D80000E94B90C80E00E94990F81E0898307C01E
:100D900080E069810E94E30C89818F5F898389816A
:100DA0008436B0F307C080E069810E94E30C89813A
:100DB0008150898389818823B1F7E7CFDF93CF936F
:100DC000CDB7DEB78091680190916901A0916A0169
:100DD000B0916B010196A11DB11D809368019093A4
:100DE0006901A0936A01B0936B01809168019091B1
:100DF0006901A0916A01B0916B0120EA3FE040E0F7
:100E000050E0BC01CD010E945B13DC01CB010097D7
:100E1000A105B10521F482E060E00E941B0B8091E6
:100E2000680190916901A0916A01B0916B0120E481
:100E30003FE140E050E0BC01CD010E945B13DC01CA
:100E4000CB010097A105B10521F483E060E00E9489
:100E50001B0BCF91DF910895DF93CF93CDB7DEB712
:100E600080916C0190916D01A0916E01B0916F0124
:100E70000196A11DB11D80936C0190936D01A0930B
:100E80006E01B0936F0180916C0190916D01A09102
:100E90006E01B0916F0120ED37E040E050E0BC0101
:100EA000CD010E945B13DC01CB010097A105B105C8
:100EB00021F481E060E00E941B0B80916C01909115
:100EC0006D01A0916E01B0916F0120EA3FE040E01A
:100ED00050E0BC01CD010E945B13DC01CB01009707
:100EE000A105B10521F480E060E00E941B0BCF91C9
:100EF000DF910895DF93CF9300D000D00F92CDB74C
:100F0000DEB789836A8389818430A0F58981282F9F
:100F100030E03D832C838C819D8181309105D1F01F
:100F20002C813D81223031052CF48C819D810097EC
:100F300061F01EC02C813D812230310581F08C8111
:100F40009D818330910581F013C0EAE3F0E08A814E
:100F500080830EC0E7E3F0E08A81808309C0E4E388
:100F6000F0E08A81808304C0E1E3F0E08A8180833D
:100F70001B8202C091E09B838B810F900F900F909A
:100F80000F900F90CF91DF910895DF93CF93CDB75E
:100F9000DEB728970FB6F894DEBF0FBECDBF8983AA
:100FA0006A834B838981843008F0F4C08A81883059
:100FB00008F0F0C08B81813009F070C08981282F42
:100FC00030E038872F838F8198858130910549F1F2
:100FD0002F813885223031052CF48F819885009738
:100FE00061F05AC02F8138852230310571F18F812F
:100FF000988583309105E9F14FC0AAE3B0E0EAE3B8
:10100000F0E08081482F8A81282F30E081E090E055
:10101000022E02C0880F991F0A94E2F7842B8C934A
:101020003BC0A7E3B0E0E7E3F0E08081482F8A818E
:10103000282F30E081E090E0022E02C0880F991F37
:101040000A94E2F7842B8C9327C0A4E3B0E0E4E396
:10105000F0E08081482F8A81282F30E081E090E005
:10106000022E02C0880F991F0A94E2F7842B8C93FA
:1010700013C0A1E3B0E0E1E3F0E08081482F8A8172
:10108000282F30E081E090E0022E02C0880F991FE7
:101090000A94E2F7842B8C931E827EC08B81882376
:1010A00009F075C08981282F30E03D832C838C8125
:1010B0009D818130910559F12C813D81223031058E
:1010C0002CF48C819D81009769F05FC02C813D815B
:1010D0002230310589F18C819D818330910509F49D
:1010E00040C053C0AAE3B0E0EAE3F0E08081482FBB
:1010F0008A81282F30E081E090E0022E02C0880F24
:10110000991F0A94E2F7809584238C933EC0A7E34D
:10111000B0E0E7E3F0E08081482F8A81282F30E0BB
:1011200081E090E0022E02C0880F991F0A94E2F736
:10113000809584238C9329C0A4E3B0E0E4E3F0E03D
:101140008081482F8A81282F30E081E090E0022EB4
:1011500002C0880F991F0A94E2F7809584238C932C
:1011600014C0A1E3B0E0E1E3F0E08081482F8A8180
:10117000282F30E081E090E0022E02C0880F991FF6
:101180000A94E2F7809584238C931E8205C092E036
:101190009E8302C021E02E838E8128960FB6F8949C
:1011A000DEBF0FBECDBFCF91DF910895DF93CF9308
:1011B00000D000D00F92CDB7DEB789836A838981D2
:1011C0008430A0F58981282F30E03D832C838C81E9
:1011D0009D8181309105D1F02C813D8122303105F6
:1011E0002CF48C819D81009761F01EC02C813D8183
:1011F0002230310581F08C819D818330910581F011
:1012000013C0EBE3F0E08A8180830EC0E8E3F0E0F6
:101210008A81808309C0E5E3F0E08A81808304C08D
:10122000E2E3F0E08A8180831B8202C091E09B832D
:101230008B810F900F900F900F900F90CF91DF91B7
:101240000895DF93CF93CDB7DEB728970FB6F89404
:10125000DEBF0FBECDBF89836A834B838981843013
:1012600008F0F4C08A81883008F0F0C08B818130AA
:1012700009F070C08981282F30E038872F838F8153
:1012800098858130910549F12F81388522303105CB
:101290002CF48F819885009761F05AC02F81388592
:1012A0002230310571F18F81988583309105E9F104
:1012B0004FC0ABE3B0E0EBE3F0E08081482F8A81E0
:1012C000282F30E081E090E0022E02C0880F991FA5
:1012D0000A94E2F7842B8C933BC0A8E3B0E0E8E3E8
:1012E000F0E08081482F8A81282F30E081E090E073
:1012F000022E02C0880F991F0A94E2F7842B8C9368
:1013000027C0A5E3B0E0E5E3F0E08081482F8A81C3
:10131000282F30E081E090E0022E02C0880F991F54
:101320000A94E2F7842B8C9313C0A2E3B0E0E2E3CB
:10133000F0E08081482F8A81282F30E081E090E022
:10134000022E02C0880F991F0A94E2F7842B8C9317
:101350001E827EC08B81882309F075C08981282F69
:1013600030E03D832C838C819D818130910559F142
:101370002C813D81223031052CF48C819D81009798
:1013800069F05FC02C813D812230310589F18C816B
:101390009D818330910509F440C053C0ABE3B0E0B8
:1013A000EBE3F0E08081482F8A81282F30E081E054
:1013B00090E0022E02C0880F991F0A94E2F78095F0
:1013C00084238C933EC0A8E3B0E0E8E3F0E08081A2
:1013D000482F8A81282F30E081E090E0022E02C061
:1013E000880F991F0A94E2F7809584238C9329C073
:1013F000A5E3B0E0E5E3F0E08081482F8A81282F63
:1014000030E081E090E0022E02C0880F991F0A941C
:10141000E2F7809584238C9314C0A2E3B0E0E2E36A
:10142000F0E08081482F8A81282F30E081E090E031
:10143000022E02C0880F991F0A94E2F78095842338
:101440008C931E8205C092E09E8302C021E02E8311
:101450008E8128960FB6F894DEBF0FBECDBFCF9118
:10146000DF910895DF93CF9300D000D000D0CDB7A7
:10147000DEB789837B836A8389818430E0F5898143
:10148000282F30E03E832D838D819E818130910510
:10149000E1F02D813E81223031052CF48D819E8139
:1014A000009761F026C02D813E8122303105A1F0E8
:1014B0008D819E8183309105B1F01BC0E9E3F0E09E
:1014C0008081EA81FB81808314C0E6E3F0E08081C3
:1014D000EA81FB8180830DC0E3E3F0E08081EA8153
:1014E000FB81808306C0E0E3F0E08081EA81FB813C
:1014F00080831C8202C091E09C838C8126960FB66B
:10150000F894DEBF0FBECDBFCF91DF910895DF937A
:10151000CF93CDB7DEB727970FB6F894DEBF0FBED7
:10152000CDBF89836A835C834B838981843008F0D3
:1015300076C08A81883008F072C08981282F30E017
:101540003F832E834E815F814130510559F18E8159
:101550009F818230910534F42E813F812115310520
:1015600069F05BC04E815F814230510579F18E8117
:101570009F818330910509F43DC04FC0E9E3F0E05D
:101580008081282F30E08A81882F90E0A90102C055
:10159000559547958A95E2F7CA018170EB81FC81E8
:1015A00080833BC0E6E3F0E08081282F30E08A8131
:1015B000882F90E0A90102C0559547958A95E2F7DA
:1015C000CA018170EB81FC81808327C0E3E3F0E0F6
:1015D0008081282F30E08A81882F90E0A90102C005
:1015E000559547958A95E2F7CA018170EB81FC8198
:1015F000808313C0E0E3F0E08081282F30E08A810F
:10160000882F90E0A90102C0559547958A95E2F789
:10161000CA018170EB81FC8180831D8202C051E090
:101620005D838D8127960FB6F894DEBF0FBECDBFC8
:10163000CF91DF910895DF93CF9300D000D00F9228
:10164000CDB7DEB789836A838981843008F074C09E
:101650008A81883008F070C08981282F30E03D836E
:101660002C838C819D818130910549F12C813D81B4
:10167000223031052CF48C819D81009761F05AC095
:101680002C813D812230310571F18C819D81833027
:101690009105E9F14FC0ABE3B0E0EBE3F0E080810E
:1016A000482F8A81282F30E081E090E0022E02C08E
:1016B000880F991F0A94E2F784278C933BC0A8E314
:1016C000B0E0E8E3F0E08081482F8A81282F30E005
:1016D00081E090E0022E02C0880F991F0A94E2F781
:1016E00084278C9327C0A5E3B0E0E5E3F0E0808198
:1016F000482F8A81282F30E081E090E0022E02C03E
:10170000880F991F0A94E2F784278C9313C0A2E3F1
:10171000B0E0E2E3F0E08081482F8A81282F30E0BA
:1017200081E090E0022E02C0880F991F0A94E2F730
:1017300084278C931B8202C091E09B838B810F9046
:101740000F900F900F900F90CF91DF910895DF933E
:10175000CF9300D000D00F92CDB7DEB789836A83D4
:101760008981843008F0D1C08A81883008F0CDC0EA
:101770008981282F30E03D832C834C815D8141306D
:10178000510509F442C08C819D818230910534F469
:101790002C813D812115310571F0B5C04C815D81F1
:1017A0004230510509F45BC08C819D8183309105E5
:1017B00009F47FC0A8C0EAE3F0E08081282F30E080
:1017C0008A81882F90E0A90102C0559547958A9596
:1017D000E2F7CA01817090700097A1F4ABE3B0E02A
:1017E000EBE3F0E08081482F8A81282F30E081E010
:1017F00090E0022E02C0880F991F0A94E2F7842B12
:101800008C9381C053E05B8382C0E7E3F0E080818A
:10181000282F30E08A81882F90E0A90102C05595D9
:1018200047958A95E2F7CA01817090700097A1F4FC
:10183000A8E3B0E0E8E3F0E08081482F8A81282F18
:1018400030E081E090E0022E02C0880F991F0A94D8
:10185000E2F7842B8C9357C053E05B8358C0E4E3DA
:10186000F0E08081282F30E08A81882F90E0A90164
:1018700002C0559547958A95E2F7CA01817090702C
:101880000097A1F4A5E3B0E0E5E3F0E08081482F04
:101890008A81282F30E081E090E0022E02C0880F7C
:1018A000991F0A94E2F7842B8C932DC053E05B833D
:1018B0002EC0E1E3F0E08081282F30E08A81882F7C
:1018C00090E0A90102C0559547958A95E2F7CA01B3
:1018D000817090700097A1F4A2E3B0E0E2E3F0E041
:1018E0008081482F8A81282F30E081E090E0022E0D
:1018F00002C0880F991F0A94E2F7842B8C9303C0CF
:1019000053E05B8304C01B8202C081E08B838B8128
:101910000F900F900F900F900F90CF91DF9108953F
:10192000DF93CF9300D00F92CDB7DEB78A836B835E
:1019300019828A816B8141E00E94C50789830F90DB
:101940000F900F90CF91DF910895DF93CF9300D048
:101950000F92CDB7DEB78A836B8319828A816B8140
:101960000E941B0B89830F900F900F90CF91DF91F6
:101970000895DF93CF9300D00F92CDB7DEB7898360
:1019800089818330D0F48981282F30E03B832A83FA
:101990008A819B818130910581F02A813B812230AF
:1019A000310541F08A819B81009739F480E00E94E3
:1019B000480D03C082E00E94480D0F900F900F90D9
:1019C000CF91DF9108950F931F93DF93CF9300D0B2
:1019D00000D0CDB7DEB789836A838981833008F070
:1019E0004EC08981282F30E03C832B838B819C81E2
:1019F0008130910509F443C0EB81FC81E230F105AF
:101A0000D9F12B813C8121153105C9F50CE510E098
:101A10008A81882F90E0AA2797FDA095BA2FBC0154
:101A2000CD010E94F503DC01CB01BC01CD0120E01A
:101A300030E048EC52E40E941903DC01CB01BC0108
:101A4000CD0120E030E040E853E40E941F02DC01B9
:101A5000CB01BC01CD0120E030E040E85FE30E9413
:101A6000C101DC01CB01BC01CD010E944900DC01B8
:101A7000CB01F801808303C0E3E4F0E010820F9013
:101A80000F900F900F90CF91DF911F910F910895BC
:101A9000DF93CF9300D000D000D0CDB7DEB78A83DC
:101AA00085E089838A81833008F03AC28A81282FB1
:101AB00030E03E832D838D819E818130910599F0A8
:101AC0002D813E812230310509F424C28D819E8111
:101AD000009709F025C2A3E5B0E0E3E5F0E08081DE
:101AE00088648C931DC28981282F30E03C832B832E
:101AF0008B819C818730910509F424C12B813C8125
:101B0000283031054CF58B819C818330910509F497
:101B1000A5C02B813C81243031058CF48B819C81C4
:101B20008130910509F460C02B813C812230310560
:101B30000CF077C08B819C810097C9F1F1C12B819A
:101B40003C812530310509F4C3C08B819C818630EE
:101B500091050CF0DAC09FC02B813C812B30310500
:101B600009F464C18B819C818C3091056CF42B81CC
:101B70003C812930310509F41FC18B819C818A3059
:101B800091050CF036C1FBC02B813C812E30310514
:101B900009F486C18B819C818F30910509F49DC128
:101BA0002B813C812C30310509F45DC1B9C1AFE412
:101BB000B0E0EFE4F0E080818E7F8C93AFE4B0E0A2
:101BC000EFE4F0E080818D7F8C93AEE4B0E0EEE452
:101BD000F0E08081877F8C93AEE4B0E0EEE4F0E04B
:101BE00080818F7E8C939CC1AFE4B0E0EFE4F0E0A5
:101BF000808181608C93AFE4B0E0EFE4F0E080811D
:101C00008D7F8C93AEE4B0E0EEE4F0E08081877FDE
:101C10008C93AEE4B0E0EEE4F0E080818F7E8C93B4
:101C20007FC1AFE4B0E0EFE4F0E080818E7F8C9381
:101C3000AFE4B0E0EFE4F0E0808182608C93AEE44A
:101C4000B0E0EEE4F0E08081877F8C93AEE4B0E01A
:101C5000EEE4F0E080818F7E8C9362C1AFE4B0E06F
:101C6000EFE4F0E0808181608C93AFE4B0E0EFE4DA
:101C7000F0E0808182608C93AEE4B0E0EEE4F0E0CE
:101C80008081877F8C93AEE4B0E0EEE4F0E0808169
:101C90008F7E8C9345C1AFE4B0E0EFE4F0E080814B
:101CA0008E7F8C93AFE4B0E0EFE4F0E080818D7F35
:101CB0008C93AEE4B0E0EEE4F0E0808188608C9339
:101CC000AEE4B0E0EEE4F0E080818F7E8C9328C13A
:101CD000AFE4B0E0EFE4F0E0808181608C93AFE4AA
:101CE000B0E0EFE4F0E080818D7F8C93AEE4B0E073
:101CF000EEE4F0E0808188608C93AEE4B0E0EEE446
:101D0000F0E080818F7E8C930BC1AFE4B0E0EFE414
:101D1000F0E080818E7F8C93AFE4B0E0EFE4F0E000
:101D2000808182608C93AEE4B0E0EEE4F0E08081EC
:101D300088608C93AEE4B0E0EEE4F0E080818F7ECA
:101D40008C93EEC0AFE4B0E0EFE4F0E0808181601E
:101D50008C93AFE4B0E0EFE4F0E0808182608C939C
:101D6000AEE4B0E0EEE4F0E0808188608C93AEE415
:101D7000B0E0EEE4F0E080818F7E8C93D1C0AFE4E0
:101D8000B0E0EFE4F0E080818E7F8C93AFE4B0E0D0
:101D9000EFE4F0E080818D7F8C93AEE4B0E0EEE480
:101DA000F0E08081877F8C93AEE4B0E0EEE4F0E079
:101DB000808180618C93B4C0AFE4B0E0EFE4F0E0E8
:101DC000808181608C93AFE4B0E0EFE4F0E080814B
:101DD0008D7F8C93AEE4B0E0EEE4F0E08081877F0D
:101DE0008C93AEE4B0E0EEE4F0E0808180618C930F
:101DF00097C0AFE4B0E0EFE4F0E080818E7F8C9399
:101E0000AFE4B0E0EFE4F0E0808182608C93AEE478
:101E1000B0E0EEE4F0E08081877F8C93AEE4B0E048
:101E2000EEE4F0E0808180618C937AC0AFE4B0E0B2
:101E3000EFE4F0E0808181608C93AFE4B0E0EFE408
:101E4000F0E0808182608C93AEE4B0E0EEE4F0E0FC
:101E50008081877F8C93AEE4B0E0EEE4F0E0808197
:101E600080618C935DC0AFE4B0E0EFE4F0E080818E
:101E70008E7F8C93AFE4B0E0EFE4F0E080818D7F63
:101E80008C93AEE4B0E0EEE4F0E0808188608C9367
:101E9000AEE4B0E0EEE4F0E0808180618C9340C07D
:101EA000AFE4B0E0EFE4F0E080818E7F8C93AFE4AC
:101EB000B0E0EFE4F0E0808182608C93AEE4B0E0CB
:101EC000EEE4F0E0808188608C93AEE4B0E0EEE474
:101ED000F0E0808180618C9323C0AFE4B0E0EFE458
:101EE000F0E0808181608C93AFE4B0E0EFE4F0E05B
:101EF000808182608C93AEE4B0E0EEE4F0E080811B
:101F000088608C93AEE4B0E0EEE4F0E08081806124
:101F10008C9306C0E5E4F0E0A5E4B0E08C9180830A
:101F200026960FB6F894DEBF0FBECDBFCF91DF91DE
:101F30000895DF93CF9300D00F92CDB7DEB789839A
:101F40008981833050F58981282F30E03B832A83B3
:101F50008A819B818130910589F02A813B812230E1
:101F60003105A1F08A819B810097B9F4A3E5B0E027
:101F7000E3E5F0E0808182608C930FC0AEE4B0E0D6
:101F8000EEE4F0E0808182608C9307C0A3E5B0E0CE
:101F9000E3E5F0E0808182608C930F900F900F90CA
:101FA000CF91DF910895DF93CF9300D000D00F92AF
:101FB000CDB7DEB789837B836A838981282F30E0A0
:101FC0003D832C838C819D818830910509F445C027
:101FD0002C813D812930310584F48C819D818230B2
:101FE000910569F12C813D812430310579F18C8195
:101FF0009D8181309105E1F052C02C813D812032DC
:102000003105C9F18C819D818132910534F42C8197
:102010003D812031310541F142C08C819D81803468
:10202000910581F12C813D812038310591F137C036
:102030008A819B81909375018093740130C08A815D
:102040009B8190937F0180937E0129C08A819B812F
:10205000909379018093780122C08A819B8190932B
:102060007701809376011BC08A819B8190937B01CD
:1020700080937A0114C08A819B819093710180932F
:1020800070010DC08A819B8190937D0180937C01BA
:1020900006C08A819B8190937301809372010F9097
:1020A0000F900F900F900F90CF91DF910895DF93D5
:1020B000CF9300D00F92CDB7DEB78983898183306B
:1020C00050F58981282F30E03B832A838A819B81C8
:1020D0008130910589F02A813B8122303105A1F0C0
:1020E0008A819B810097B9F4A3E5B0E0E3E5F0E0D5
:1020F00080818D7F8C930FC0AEE4B0E0EEE4F0E021
:1021000080818D7F8C9307C0A5E4B0E0E5E4F0E02A
:1021100080818D7F8C930F900F900F90CF91DF91E6
:102120000895DF93CF930F92CDB7DEB7898389816E
:102130008823D1F089818138B8F4A9E5B0E0E9E5D8
:10214000F0E090818981892B8C93EFE5F0E080812C
:10215000881F8827881F813039F0AFE5B0E0EFE5B0
:10216000F0E0808180688C930F90CF91DF9108958B
:10217000DF93CF930F92CDB7DEB789838981882310
:1021800069F08981813850F4A9E5B0E0E9E5F0E033
:102190008081982F8981809589238C930F90CF918E
:1021A000DF910895DF93CF9300D00F92CDB7DEB7C4
:1021B00089838981843008F03EC08981282F30E0EE
:1021C0003B832A838A819B8181309105E9F02A81B2
:1021D0003B81223031052CF48A819B81009761F08C
:1021E0002AC02A813B8122303105B1F08A819B814E
:1021F00083309105C9F01FC0A3E5B0E0E3E5F0E04E
:10220000808180628C9317C0AFE4B0E0EFE4F0E02F
:10221000808180648C930FC0AFE4B0E0EFE4F0E025
:10222000808180618C9307C0A5E4B0E0E5E4F0E034
:10223000808180628C930F900F900F90CF91DF91EF
:102240000895DF93CF9300D00F92CDB7DEB7898387
:102250008981843008F03EC08981282F30E03B839B
:102260002A838A819B8181309105E9F02A813B8113
:10227000223031052CF48A819B81009761F02AC0BD
:102280002A813B8122303105B1F08A819B818330E4
:102290009105C9F01FC0A3E5B0E0E3E5F0E080815F
:1022A0008F7D8C9317C0AFE4B0E0EFE4F0E0808165
:1022B0008F7B8C930FC0AFE4B0E0EFE4F0E080815F
:1022C0008F7E8C9307C0A5E4B0E0E5E4F0E0808168
:1022D0008F7D8C930F900F900F90CF91DF91089589
:1022E000DF93CF9300D000D00F92CDB7DEB78983B4
:1022F0007B836A8389818430B0F58981282F30E01F
:102300003D832C838C819D8181309105D1F02C817E
:102310003D81223031052CF48C819D81009761F044
:1023200022C02C813D812230310591F08C819D812C
:1023300083309105A1F017C0ECE5F0E08A8180833D
:1023400012C0EAE4F0E08A819B81918380830BC014
:10235000E8E4F0E08A819B819183808304C0E3E418
:10236000F0E08A8180830F900F900F900F900F9074
:10237000CF91DF910895DF93CF9300D000D00F92DB
:10238000CDB7DEB789837B836A838981833018F573
:102390008981282F30E03D832C838C819D81813081
:1023A000910571F02C813D812230310581F08C81C5
:1023B0009D81009781F4E2E5F0E08A8180830BC083
:1023C000ECE4F0E08A819B819183808304C0E4E4A3
:1023D000F0E08A8180830F900F900F900F900F9004
:1023E000CF91DF9108951F920F920FB60F92112493
:1023F0002F933F934F935F936F937F938F939F930D
:10240000AF93BF93EF93FF93DF93CF93CDB7DEB737
:10241000E0917401F09175010995CF91DF91FF91E1
:10242000EF91BF91AF919F918F917F916F915F914C
:102430004F913F912F910F900FBE0F901F901895C5
:102440001F920F920FB60F9211242F933F934F9329
:102450005F936F937F938F939F93AF93BF93EF930C
:10246000FF93DF93CF93CDB7DEB7E0917E01F0917C
:102470007F010995CF91DF91FF91EF91BF91AF91CE
:102480009F918F917F916F915F914F913F912F918C
:102490000F900FBE0F901F9018951F920F920FB6BE
:1024A0000F9211242F933F934F935F936F937F93DA
:1024B0008F939F93AF93BF93EF93FF93DF93CF934C
:1024C000CDB7DEB7E0917001F09171010995CF9120
:1024D000DF91FF91EF91BF91AF919F918F917F918C
:1024E0006F915F914F913F912F910F900FBE0F9081
:1024F0001F9018951F920F920FB60F9211242F93D1
:102500003F934F935F936F937F938F939F93AF937B
:10251000BF93EF93FF93DF93CF93CDB7DEB7E091F7
:102520007601F09177010995CF91DF91FF91EF91BD
:10253000BF91AF919F918F917F916F915F914F91DB
:102540003F912F910F900FBE0F901F9018951F92E3
:102550000F920FB60F9211242F933F934F935F93D7
:102560006F937F938F939F93AF93BF93EF93FF935B
:10257000DF93CF93CDB7DEB7E0917A01F0917B0185
:102580000995CF91DF91FF91EF91BF91AF919F910D
:102590008F917F916F915F914F913F912F910F900C
:1025A0000FBE0F901F9018951F920F920FB60F92AB
:1025B00011242F933F934F935F936F937F938F9348
:1025C0009F93AF93BF93EF93FF93DF93CF93CDB7D9
:1025D000DEB7E0917801F09179010995CF91DF9113
:1025E000FF91EF91BF91AF919F918F917F916F91EB
:1025F0005F914F913F912F910F900FBE0F901F90C1
:1026000018951F920F920FB60F9211242F933F939C
:102610004F935F936F937F938F939F93AF93BF93EA
:10262000EF93FF93DF93CF93CDB7DEB7E0917C01BB
:10263000F0917D010995CF91DF91FF91EF91BF91CD
:10264000AF919F918F917F916F915F914F913F914A
:102650002F910F900FBE0F901F9018951F920F9201
:102660000FB60F9211242F933F934F935F936F9365
:102670007F938F939F93AF93BF93EF93FF93DF93DA
:10268000CF93CDB7DEB7E0917201F0917301099558
:10269000CF91DF91FF91EF91BF91AF919F918F917A
:1026A0007F916F915F914F913F912F910F900FBE4E
:1026B0000F901F901895A1E21A2EAA1BBB1BFD01BB
:1026C0000DC0AA1FBB1FEE1FFF1FA217B307E40711
:1026D000F50720F0A21BB30BE40BF50B661F771F69
:1026E000881F991F1A9469F7609570958095909549
:1026F0009B01AC01BD01CF0108952F923F924F92F3
:102700005F926F927F928F929F92AF92BF92CF9281
:10271000DF92EF92FF920F931F93CF93DF93CDB78A
:10272000DEB7CA1BDB0B0FB6F894DEBF0FBECDBF02
:1027300009942A88398848885F846E847D848C84D3
:102740009B84AA84B984C884DF80EE80FD800C81DC
:102750001B81AA81B981CE0FD11D0FB6F894DEBFBF
:0C2760000FBECDBFED010895F894FFCF2F
:10276C00000000000000000000010202030303034C
:10277C000404040404040404050505050505050505
:10278C0005050505050505050606060606060606E5
:10279C0006060606060606060606060606060606CD
:1027AC0006060606060606060707070707070707B5
:1027BC00070707070707070707070707070707079D
:1027CC00070707070707070707070707070707078D
:1027DC00070707070707070707070707070707077D
:1027EC000707070707070707080808080808080865
:1027FC00080808080808080808080808080808084D
:10280C00080808080808080808080808080808083C
:10281C00080808080808080808080808080808082C
:10282C00080808080808080808080808080808081C
:10283C00080808080808080808080808080808080C
:10284C0008080808080808080808080808080808FC
:10285C0008080808080808080808080808080808EC
:08286C00080808080808080824
:00000001FF
